{
	"contracts/transfer.sol": {
		"FeeCollector": {
			"abi": [
				{
					"inputs": [],
					"stateMutability": "nonpayable",
					"type": "constructor"
				},
				{
					"inputs": [
						{
							"internalType": "address",
							"name": "target",
							"type": "address"
						}
					],
					"name": "AddressEmptyCode",
					"type": "error"
				},
				{
					"inputs": [
						{
							"internalType": "address",
							"name": "account",
							"type": "address"
						}
					],
					"name": "AddressInsufficientBalance",
					"type": "error"
				},
				{
					"inputs": [],
					"name": "FailedInnerCall",
					"type": "error"
				},
				{
					"inputs": [
						{
							"internalType": "address",
							"name": "token",
							"type": "address"
						}
					],
					"name": "SafeERC20FailedOperation",
					"type": "error"
				},
				{
					"anonymous": false,
					"inputs": [
						{
							"indexed": false,
							"internalType": "address",
							"name": "_from",
							"type": "address"
						},
						{
							"indexed": false,
							"internalType": "address",
							"name": "_destAddr",
							"type": "address"
						},
						{
							"indexed": false,
							"internalType": "uint256",
							"name": "_amount",
							"type": "uint256"
						}
					],
					"name": "ERC20TransferSent",
					"type": "event"
				},
				{
					"anonymous": false,
					"inputs": [
						{
							"indexed": false,
							"internalType": "address",
							"name": "_from",
							"type": "address"
						},
						{
							"indexed": false,
							"internalType": "uint256",
							"name": "_amount",
							"type": "uint256"
						}
					],
					"name": "TransferReceived",
					"type": "event"
				},
				{
					"anonymous": false,
					"inputs": [
						{
							"indexed": false,
							"internalType": "address",
							"name": "_from",
							"type": "address"
						},
						{
							"indexed": false,
							"internalType": "address",
							"name": "_destAddr",
							"type": "address"
						},
						{
							"indexed": false,
							"internalType": "uint256",
							"name": "_amount",
							"type": "uint256"
						}
					],
					"name": "TransferSent",
					"type": "event"
				},
				{
					"inputs": [],
					"name": "balance",
					"outputs": [
						{
							"internalType": "uint256",
							"name": "",
							"type": "uint256"
						}
					],
					"stateMutability": "view",
					"type": "function"
				},
				{
					"inputs": [],
					"name": "owner",
					"outputs": [
						{
							"internalType": "address",
							"name": "",
							"type": "address"
						}
					],
					"stateMutability": "view",
					"type": "function"
				},
				{
					"inputs": [
						{
							"internalType": "contract IERC20",
							"name": "token",
							"type": "address"
						},
						{
							"internalType": "address",
							"name": "to",
							"type": "address"
						},
						{
							"internalType": "uint256",
							"name": "amount",
							"type": "uint256"
						}
					],
					"name": "transferERC20",
					"outputs": [],
					"stateMutability": "nonpayable",
					"type": "function"
				},
				{
					"inputs": [
						{
							"internalType": "uint256",
							"name": "amount",
							"type": "uint256"
						},
						{
							"internalType": "address payable",
							"name": "destAddr",
							"type": "address"
						}
					],
					"name": "withdraw",
					"outputs": [],
					"stateMutability": "nonpayable",
					"type": "function"
				},
				{
					"stateMutability": "payable",
					"type": "receive"
				}
			],
			"devdoc": {
				"errors": {
					"AddressEmptyCode(address)": [
						{
							"details": "There's no code at `target` (it is not a contract)."
						}
					],
					"AddressInsufficientBalance(address)": [
						{
							"details": "The ETH balance of the account is not enough to perform the operation."
						}
					],
					"FailedInnerCall()": [
						{
							"details": "A call to an address target failed. The target may have reverted."
						}
					],
					"SafeERC20FailedOperation(address)": [
						{
							"details": "An operation with an ERC20 token failed."
						}
					]
				},
				"kind": "dev",
				"methods": {},
				"version": 1
			},
			"evm": {
				"assembly": "    /* \"contracts/transfer.sol\":218:1561  contract FeeCollector {... */\n  mstore(0x40, 0x80)\n    /* \"contracts/transfer.sol\":551:602  constructor() {... */\n  callvalue\n  dup1\n  iszero\n  tag_1\n  jumpi\n  0x00\n  dup1\n  revert\ntag_1:\n  pop\n    /* \"contracts/transfer.sol\":584:594  msg.sender */\n  caller\n    /* \"contracts/transfer.sol\":576:581  owner */\n  0x00\n  dup1\n    /* \"contracts/transfer.sol\":576:594  owner = msg.sender */\n  0x0100\n  exp\n  dup2\n  sload\n  dup2\n  0xffffffffffffffffffffffffffffffffffffffff\n  mul\n  not\n  and\n  swap1\n  dup4\n  0xffffffffffffffffffffffffffffffffffffffff\n  and\n  mul\n  or\n  swap1\n  sstore\n  pop\n    /* \"contracts/transfer.sol\":218:1561  contract FeeCollector {... */\n  dataSize(sub_0)\n  dup1\n  dataOffset(sub_0)\n  0x00\n  codecopy\n  0x00\n  return\nstop\n\nsub_0: assembly {\n        /* \"contracts/transfer.sol\":218:1561  contract FeeCollector {... */\n      mstore(0x40, 0x80)\n      jumpi(tag_1, lt(calldatasize, 0x04))\n      shr(0xe0, calldataload(0x00))\n      dup1\n      0xf714ce\n      eq\n      tag_3\n      jumpi\n      dup1\n      0x8da5cb5b\n      eq\n      tag_4\n      jumpi\n      dup1\n      0x9db5dbe4\n      eq\n      tag_5\n      jumpi\n      dup1\n      0xb69ef8a8\n      eq\n      tag_6\n      jumpi\n      jump(tag_2)\n    tag_1:\n      jumpi(tag_2, calldatasize)\n        /* \"contracts/transfer.sol\":659:668  msg.value */\n      callvalue\n        /* \"contracts/transfer.sol\":648:655  balance */\n      0x01\n      0x00\n        /* \"contracts/transfer.sol\":648:668  balance += msg.value */\n      dup3\n      dup3\n      sload\n      tag_9\n      swap2\n      swap1\n      tag_10\n      jump\t// in\n    tag_9:\n      swap3\n      pop\n      pop\n      dup2\n      swap1\n      sstore\n      pop\n        /* \"contracts/transfer.sol\":684:723  TransferReceived(msg.sender, msg.value) */\n      0xf1b03f708b9c39f453fe3f0cef84164c7d6f7df836df0796e1e9c2bce6ee397e\n        /* \"contracts/transfer.sol\":701:711  msg.sender */\n      caller\n        /* \"contracts/transfer.sol\":713:722  msg.value */\n      callvalue\n        /* \"contracts/transfer.sol\":684:723  TransferReceived(msg.sender, msg.value) */\n      mload(0x40)\n      tag_11\n      swap3\n      swap2\n      swap1\n      tag_12\n      jump\t// in\n    tag_11:\n      mload(0x40)\n      dup1\n      swap2\n      sub\n      swap1\n      log1\n        /* \"contracts/transfer.sol\":218:1561  contract FeeCollector {... */\n      stop\n    tag_2:\n      0x00\n      dup1\n      revert\n        /* \"contracts/transfer.sol\":739:1066  function withdraw(uint amount, address payable destAddr) public {... */\n    tag_3:\n      callvalue\n      dup1\n      iszero\n      tag_13\n      jumpi\n      0x00\n      dup1\n      revert\n    tag_13:\n      pop\n      tag_14\n      0x04\n      dup1\n      calldatasize\n      sub\n      dup2\n      add\n      swap1\n      tag_15\n      swap2\n      swap1\n      tag_16\n      jump\t// in\n    tag_15:\n      tag_17\n      jump\t// in\n    tag_14:\n      stop\n        /* \"contracts/transfer.sol\":282:302  address public owner */\n    tag_4:\n      callvalue\n      dup1\n      iszero\n      tag_18\n      jumpi\n      0x00\n      dup1\n      revert\n    tag_18:\n      pop\n      tag_19\n      tag_20\n      jump\t// in\n    tag_19:\n      mload(0x40)\n      tag_21\n      swap2\n      swap1\n      tag_22\n      jump\t// in\n    tag_21:\n      mload(0x40)\n      dup1\n      swap2\n      sub\n      swap1\n      return\n        /* \"contracts/transfer.sol\":1139:1558  function transferERC20(IERC20 token, address to, uint256 amount) public {... */\n    tag_5:\n      callvalue\n      dup1\n      iszero\n      tag_23\n      jumpi\n      0x00\n      dup1\n      revert\n    tag_23:\n      pop\n      tag_24\n      0x04\n      dup1\n      calldatasize\n      sub\n      dup2\n      add\n      swap1\n      tag_25\n      swap2\n      swap1\n      tag_26\n      jump\t// in\n    tag_25:\n      tag_27\n      jump\t// in\n    tag_24:\n      stop\n        /* \"contracts/transfer.sol\":309:331  uint256 public balance */\n    tag_6:\n      callvalue\n      dup1\n      iszero\n      tag_28\n      jumpi\n      0x00\n      dup1\n      revert\n    tag_28:\n      pop\n      tag_29\n      tag_30\n      jump\t// in\n    tag_29:\n      mload(0x40)\n      tag_31\n      swap2\n      swap1\n      tag_32\n      jump\t// in\n    tag_31:\n      mload(0x40)\n      dup1\n      swap2\n      sub\n      swap1\n      return\n        /* \"contracts/transfer.sol\":739:1066  function withdraw(uint amount, address payable destAddr) public {... */\n    tag_17:\n        /* \"contracts/transfer.sol\":836:841  owner */\n      0x00\n      dup1\n      sload\n      swap1\n      0x0100\n      exp\n      swap1\n      div\n      0xffffffffffffffffffffffffffffffffffffffff\n      and\n        /* \"contracts/transfer.sol\":822:841  msg.sender == owner */\n      0xffffffffffffffffffffffffffffffffffffffff\n      and\n        /* \"contracts/transfer.sol\":822:832  msg.sender */\n      caller\n        /* \"contracts/transfer.sol\":822:841  msg.sender == owner */\n      0xffffffffffffffffffffffffffffffffffffffff\n      and\n      eq\n        /* \"contracts/transfer.sol\":814:875  require(msg.sender == owner, \"Only owner can withdraw funds\") */\n      tag_34\n      jumpi\n      mload(0x40)\n      0x08c379a000000000000000000000000000000000000000000000000000000000\n      dup2\n      mstore\n      0x04\n      add\n      tag_35\n      swap1\n      tag_36\n      jump\t// in\n    tag_35:\n      mload(0x40)\n      dup1\n      swap2\n      sub\n      swap1\n      revert\n    tag_34:\n        /* \"contracts/transfer.sol\":904:911  balance */\n      sload(0x01)\n        /* \"contracts/transfer.sol\":894:900  amount */\n      dup3\n        /* \"contracts/transfer.sol\":894:911  amount <= balance */\n      gt\n      iszero\n        /* \"contracts/transfer.sol\":886:934  require(amount <= balance, \"Insufficient funds\") */\n      tag_37\n      jumpi\n      mload(0x40)\n      0x08c379a000000000000000000000000000000000000000000000000000000000\n      dup2\n      mstore\n      0x04\n      add\n      tag_38\n      swap1\n      tag_39\n      jump\t// in\n    tag_38:\n      mload(0x40)\n      dup1\n      swap2\n      sub\n      swap1\n      revert\n    tag_37:\n        /* \"contracts/transfer.sol\":947:955  destAddr */\n      dup1\n        /* \"contracts/transfer.sol\":947:964  destAddr.transfer */\n      0xffffffffffffffffffffffffffffffffffffffff\n      and\n        /* \"contracts/transfer.sol\":947:972  destAddr.transfer(amount) */\n      0x08fc\n        /* \"contracts/transfer.sol\":965:971  amount */\n      dup4\n        /* \"contracts/transfer.sol\":947:972  destAddr.transfer(amount) */\n      swap1\n      dup2\n      iszero\n      mul\n      swap1\n      mload(0x40)\n      0x00\n      mload(0x40)\n      dup1\n      dup4\n      sub\n      dup2\n      dup6\n      dup9\n      dup9\n      call\n      swap4\n      pop\n      pop\n      pop\n      pop\n      iszero\n      dup1\n      iszero\n      tag_41\n      jumpi\n      returndatasize\n      0x00\n      dup1\n      returndatacopy\n      revert(0x00, returndatasize)\n    tag_41:\n      pop\n        /* \"contracts/transfer.sol\":994:1000  amount */\n      dup2\n        /* \"contracts/transfer.sol\":983:990  balance */\n      0x01\n      0x00\n        /* \"contracts/transfer.sol\":983:1000  balance -= amount */\n      dup3\n      dup3\n      sload\n      tag_42\n      swap2\n      swap1\n      tag_43\n      jump\t// in\n    tag_42:\n      swap3\n      pop\n      pop\n      dup2\n      swap1\n      sstore\n      pop\n        /* \"contracts/transfer.sol\":1016:1058  TransferSent(msg.sender, destAddr, amount) */\n      0xfda3a3e0e1479b43cb1c701f7576187f4c4ad80768d627387e00184302f7d88e\n        /* \"contracts/transfer.sol\":1029:1039  msg.sender */\n      caller\n        /* \"contracts/transfer.sol\":1041:1049  destAddr */\n      dup3\n        /* \"contracts/transfer.sol\":1051:1057  amount */\n      dup5\n        /* \"contracts/transfer.sol\":1016:1058  TransferSent(msg.sender, destAddr, amount) */\n      mload(0x40)\n      tag_44\n      swap4\n      swap3\n      swap2\n      swap1\n      tag_45\n      jump\t// in\n    tag_44:\n      mload(0x40)\n      dup1\n      swap2\n      sub\n      swap1\n      log1\n        /* \"contracts/transfer.sol\":739:1066  function withdraw(uint amount, address payable destAddr) public {... */\n      pop\n      pop\n      jump\t// out\n        /* \"contracts/transfer.sol\":282:302  address public owner */\n    tag_20:\n      0x00\n      dup1\n      sload\n      swap1\n      0x0100\n      exp\n      swap1\n      div\n      0xffffffffffffffffffffffffffffffffffffffff\n      and\n      dup2\n      jump\t// out\n        /* \"contracts/transfer.sol\":1139:1558  function transferERC20(IERC20 token, address to, uint256 amount) public {... */\n    tag_27:\n        /* \"contracts/transfer.sol\":1244:1249  owner */\n      0x00\n      dup1\n      sload\n      swap1\n      0x0100\n      exp\n      swap1\n      div\n      0xffffffffffffffffffffffffffffffffffffffff\n      and\n        /* \"contracts/transfer.sol\":1230:1249  msg.sender == owner */\n      0xffffffffffffffffffffffffffffffffffffffff\n      and\n        /* \"contracts/transfer.sol\":1230:1240  msg.sender */\n      caller\n        /* \"contracts/transfer.sol\":1230:1249  msg.sender == owner */\n      0xffffffffffffffffffffffffffffffffffffffff\n      and\n      eq\n        /* \"contracts/transfer.sol\":1222:1283  require(msg.sender == owner, \"Only owner can withdraw funds\") */\n      tag_47\n      jumpi\n      mload(0x40)\n      0x08c379a000000000000000000000000000000000000000000000000000000000\n      dup2\n      mstore\n      0x04\n      add\n      tag_48\n      swap1\n      tag_36\n      jump\t// in\n    tag_48:\n      mload(0x40)\n      dup1\n      swap2\n      sub\n      swap1\n      revert\n    tag_47:\n        /* \"contracts/transfer.sol\":1294:1314  uint256 erc20balance */\n      0x00\n        /* \"contracts/transfer.sol\":1317:1322  token */\n      dup4\n        /* \"contracts/transfer.sol\":1317:1332  token.balanceOf */\n      0xffffffffffffffffffffffffffffffffffffffff\n      and\n      0x70a08231\n        /* \"contracts/transfer.sol\":1341:1345  this */\n      address\n        /* \"contracts/transfer.sol\":1317:1347  token.balanceOf(address(this)) */\n      mload(0x40)\n      dup3\n      0xffffffff\n      and\n      0xe0\n      shl\n      dup2\n      mstore\n      0x04\n      add\n      tag_49\n      swap2\n      swap1\n      tag_22\n      jump\t// in\n    tag_49:\n      0x20\n      mload(0x40)\n      dup1\n      dup4\n      sub\n      dup2\n      dup7\n      gas\n      staticcall\n      iszero\n      dup1\n      iszero\n      tag_51\n      jumpi\n      returndatasize\n      0x00\n      dup1\n      returndatacopy\n      revert(0x00, returndatasize)\n    tag_51:\n      pop\n      pop\n      pop\n      pop\n      mload(0x40)\n      returndatasize\n      not(0x1f)\n      0x1f\n      dup3\n      add\n      and\n      dup3\n      add\n      dup1\n      0x40\n      mstore\n      pop\n      dup2\n      add\n      swap1\n      tag_52\n      swap2\n      swap1\n      tag_53\n      jump\t// in\n    tag_52:\n        /* \"contracts/transfer.sol\":1294:1347  uint256 erc20balance = token.balanceOf(address(this)) */\n      swap1\n      pop\n        /* \"contracts/transfer.sol\":1376:1388  erc20balance */\n      dup1\n        /* \"contracts/transfer.sol\":1366:1372  amount */\n      dup3\n        /* \"contracts/transfer.sol\":1366:1388  amount <= erc20balance */\n      gt\n      iszero\n        /* \"contracts/transfer.sol\":1358:1407  require(amount <= erc20balance, \"Balance is low\") */\n      tag_54\n      jumpi\n      mload(0x40)\n      0x08c379a000000000000000000000000000000000000000000000000000000000\n      dup2\n      mstore\n      0x04\n      add\n      tag_55\n      swap1\n      tag_56\n      jump\t// in\n    tag_55:\n      mload(0x40)\n      dup1\n      swap2\n      sub\n      swap1\n      revert\n    tag_54:\n        /* \"contracts/transfer.sol\":1420:1450  token.safeTransfer(to, amount) */\n      tag_57\n        /* \"contracts/transfer.sol\":1439:1441  to */\n      dup4\n        /* \"contracts/transfer.sol\":1443:1449  amount */\n      dup4\n        /* \"contracts/transfer.sol\":1420:1425  token */\n      dup7\n        /* \"contracts/transfer.sol\":1420:1438  token.safeTransfer */\n      0xffffffffffffffffffffffffffffffffffffffff\n      and\n      tag_58\n      swap1\n        /* \"contracts/transfer.sol\":1420:1450  token.safeTransfer(to, amount) */\n      swap3\n      swap2\n      swap1\n      0xffffffff\n      and\n      jump\t// in\n    tag_57:\n        /* \"contracts/transfer.sol\":1509:1550  ERC20TransferSent(msg.sender, to, amount) */\n      0x03501c7341fda73ec7c804f841cec1d8d25a04b5a430589f0624026eb1cff370\n        /* \"contracts/transfer.sol\":1527:1537  msg.sender */\n      caller\n        /* \"contracts/transfer.sol\":1539:1541  to */\n      dup5\n        /* \"contracts/transfer.sol\":1543:1549  amount */\n      dup5\n        /* \"contracts/transfer.sol\":1509:1550  ERC20TransferSent(msg.sender, to, amount) */\n      mload(0x40)\n      tag_59\n      swap4\n      swap3\n      swap2\n      swap1\n      tag_60\n      jump\t// in\n    tag_59:\n      mload(0x40)\n      dup1\n      swap2\n      sub\n      swap1\n      log1\n        /* \"contracts/transfer.sol\":1211:1558  {... */\n      pop\n        /* \"contracts/transfer.sol\":1139:1558  function transferERC20(IERC20 token, address to, uint256 amount) public {... */\n      pop\n      pop\n      pop\n      jump\t// out\n        /* \"contracts/transfer.sol\":309:331  uint256 public balance */\n    tag_30:\n      sload(0x01)\n      dup2\n      jump\t// out\n        /* \"@openzeppelin/contracts/token/ERC20/utils/SafeERC20.sol\":1303:1463  function safeTransfer(IERC20 token, address to, uint256 value) internal {... */\n    tag_58:\n        /* \"@openzeppelin/contracts/token/ERC20/utils/SafeERC20.sol\":1385:1456  _callOptionalReturn(token, abi.encodeCall(token.transfer, (to, value))) */\n      tag_62\n        /* \"@openzeppelin/contracts/token/ERC20/utils/SafeERC20.sol\":1405:1410  token */\n      dup4\n        /* \"@openzeppelin/contracts/token/ERC20/utils/SafeERC20.sol\":1427:1432  token */\n      dup5\n        /* \"@openzeppelin/contracts/token/ERC20/utils/SafeERC20.sol\":1427:1441  token.transfer */\n      0xffffffffffffffffffffffffffffffffffffffff\n      and\n      0xa9059cbb\n        /* \"@openzeppelin/contracts/token/ERC20/utils/SafeERC20.sol\":1444:1446  to */\n      dup6\n        /* \"@openzeppelin/contracts/token/ERC20/utils/SafeERC20.sol\":1448:1453  value */\n      dup6\n        /* \"@openzeppelin/contracts/token/ERC20/utils/SafeERC20.sol\":1412:1455  abi.encodeCall(token.transfer, (to, value)) */\n      add(0x24, mload(0x40))\n      tag_63\n      swap3\n      swap2\n      swap1\n      tag_12\n      jump\t// in\n    tag_63:\n      mload(0x40)\n      0x20\n      dup2\n      dup4\n      sub\n      sub\n      dup2\n      mstore\n      swap1\n      0x40\n      mstore\n      swap2\n      pop\n      0xe0\n      shl\n      0x20\n      dup3\n      add\n      dup1\n      mload\n      0xffffffffffffffffffffffffffffffffffffffffffffffffffffffff\n      dup4\n      dup2\n      dup4\n      and\n      or\n      dup4\n      mstore\n      pop\n      pop\n      pop\n      pop\n        /* \"@openzeppelin/contracts/token/ERC20/utils/SafeERC20.sol\":1385:1404  _callOptionalReturn */\n      tag_64\n        /* \"@openzeppelin/contracts/token/ERC20/utils/SafeERC20.sol\":1385:1456  _callOptionalReturn(token, abi.encodeCall(token.transfer, (to, value))) */\n      jump\t// in\n    tag_62:\n        /* \"@openzeppelin/contracts/token/ERC20/utils/SafeERC20.sol\":1303:1463  function safeTransfer(IERC20 token, address to, uint256 value) internal {... */\n      pop\n      pop\n      pop\n      jump\t// out\n        /* \"@openzeppelin/contracts/token/ERC20/utils/SafeERC20.sol\":4059:4688  function _callOptionalReturn(IERC20 token, bytes memory data) private {... */\n    tag_64:\n        /* \"@openzeppelin/contracts/token/ERC20/utils/SafeERC20.sol\":4478:4501  bytes memory returndata */\n      0x00\n        /* \"@openzeppelin/contracts/token/ERC20/utils/SafeERC20.sol\":4504:4537  address(token).functionCall(data) */\n      tag_66\n        /* \"@openzeppelin/contracts/token/ERC20/utils/SafeERC20.sol\":4532:4536  data */\n      dup3\n        /* \"@openzeppelin/contracts/token/ERC20/utils/SafeERC20.sol\":4512:4517  token */\n      dup5\n        /* \"@openzeppelin/contracts/token/ERC20/utils/SafeERC20.sol\":4504:4531  address(token).functionCall */\n      0xffffffffffffffffffffffffffffffffffffffff\n      and\n      tag_67\n      swap1\n        /* \"@openzeppelin/contracts/token/ERC20/utils/SafeERC20.sol\":4504:4537  address(token).functionCall(data) */\n      swap2\n      swap1\n      0xffffffff\n      and\n      jump\t// in\n    tag_66:\n        /* \"@openzeppelin/contracts/token/ERC20/utils/SafeERC20.sol\":4478:4537  bytes memory returndata = address(token).functionCall(data) */\n      swap1\n      pop\n        /* \"@openzeppelin/contracts/token/ERC20/utils/SafeERC20.sol\":4572:4573  0 */\n      0x00\n        /* \"@openzeppelin/contracts/token/ERC20/utils/SafeERC20.sol\":4551:4561  returndata */\n      dup2\n        /* \"@openzeppelin/contracts/token/ERC20/utils/SafeERC20.sol\":4551:4568  returndata.length */\n      mload\n        /* \"@openzeppelin/contracts/token/ERC20/utils/SafeERC20.sol\":4551:4573  returndata.length != 0 */\n      eq\n      iszero\n        /* \"@openzeppelin/contracts/token/ERC20/utils/SafeERC20.sol\":4551:4608  returndata.length != 0 && !abi.decode(returndata, (bool)) */\n      dup1\n      iszero\n      tag_68\n      jumpi\n      pop\n        /* \"@openzeppelin/contracts/token/ERC20/utils/SafeERC20.sol\":4589:4599  returndata */\n      dup1\n        /* \"@openzeppelin/contracts/token/ERC20/utils/SafeERC20.sol\":4578:4608  abi.decode(returndata, (bool)) */\n      dup1\n      0x20\n      add\n      swap1\n      mload\n      dup2\n      add\n      swap1\n      tag_69\n      swap2\n      swap1\n      tag_70\n      jump\t// in\n    tag_69:\n        /* \"@openzeppelin/contracts/token/ERC20/utils/SafeERC20.sol\":4577:4608  !abi.decode(returndata, (bool)) */\n      iszero\n        /* \"@openzeppelin/contracts/token/ERC20/utils/SafeERC20.sol\":4551:4608  returndata.length != 0 && !abi.decode(returndata, (bool)) */\n    tag_68:\n        /* \"@openzeppelin/contracts/token/ERC20/utils/SafeERC20.sol\":4547:4682  if (returndata.length != 0 && !abi.decode(returndata, (bool))) {... */\n      iszero\n      tag_71\n      jumpi\n        /* \"@openzeppelin/contracts/token/ERC20/utils/SafeERC20.sol\":4664:4669  token */\n      dup3\n        /* \"@openzeppelin/contracts/token/ERC20/utils/SafeERC20.sol\":4631:4671  SafeERC20FailedOperation(address(token)) */\n      mload(0x40)\n      0x5274afe700000000000000000000000000000000000000000000000000000000\n      dup2\n      mstore\n      0x04\n      add\n      tag_72\n      swap2\n      swap1\n      tag_22\n      jump\t// in\n    tag_72:\n      mload(0x40)\n      dup1\n      swap2\n      sub\n      swap1\n      revert\n        /* \"@openzeppelin/contracts/token/ERC20/utils/SafeERC20.sol\":4547:4682  if (returndata.length != 0 && !abi.decode(returndata, (bool))) {... */\n    tag_71:\n        /* \"@openzeppelin/contracts/token/ERC20/utils/SafeERC20.sol\":4129:4688  {... */\n      pop\n        /* \"@openzeppelin/contracts/token/ERC20/utils/SafeERC20.sol\":4059:4688  function _callOptionalReturn(IERC20 token, bytes memory data) private {... */\n      pop\n      pop\n      jump\t// out\n        /* \"@openzeppelin/contracts/utils/Address.sol\":2705:2856  function functionCall(address target, bytes memory data) internal returns (bytes memory) {... */\n    tag_67:\n        /* \"@openzeppelin/contracts/utils/Address.sol\":2780:2792  bytes memory */\n      0x60\n        /* \"@openzeppelin/contracts/utils/Address.sol\":2811:2849  functionCallWithValue(target, data, 0) */\n      tag_74\n        /* \"@openzeppelin/contracts/utils/Address.sol\":2833:2839  target */\n      dup4\n        /* \"@openzeppelin/contracts/utils/Address.sol\":2841:2845  data */\n      dup4\n        /* \"@openzeppelin/contracts/utils/Address.sol\":2847:2848  0 */\n      0x00\n        /* \"@openzeppelin/contracts/utils/Address.sol\":2811:2832  functionCallWithValue */\n      tag_75\n        /* \"@openzeppelin/contracts/utils/Address.sol\":2811:2849  functionCallWithValue(target, data, 0) */\n      jump\t// in\n    tag_74:\n        /* \"@openzeppelin/contracts/utils/Address.sol\":2804:2849  return functionCallWithValue(target, data, 0) */\n      swap1\n      pop\n        /* \"@openzeppelin/contracts/utils/Address.sol\":2705:2856  function functionCall(address target, bytes memory data) internal returns (bytes memory) {... */\n      swap3\n      swap2\n      pop\n      pop\n      jump\t// out\n        /* \"@openzeppelin/contracts/utils/Address.sol\":3180:3572  function functionCallWithValue(address target, bytes memory data, uint256 value) internal returns (bytes memory) {... */\n    tag_75:\n        /* \"@openzeppelin/contracts/utils/Address.sol\":3279:3291  bytes memory */\n      0x60\n        /* \"@openzeppelin/contracts/utils/Address.sol\":3331:3336  value */\n      dup2\n        /* \"@openzeppelin/contracts/utils/Address.sol\":3307:3328  address(this).balance */\n      selfbalance\n        /* \"@openzeppelin/contracts/utils/Address.sol\":3307:3336  address(this).balance < value */\n      lt\n        /* \"@openzeppelin/contracts/utils/Address.sol\":3303:3411  if (address(this).balance < value) {... */\n      iszero\n      tag_77\n      jumpi\n        /* \"@openzeppelin/contracts/utils/Address.sol\":3394:3398  this */\n      address\n        /* \"@openzeppelin/contracts/utils/Address.sol\":3359:3400  AddressInsufficientBalance(address(this)) */\n      mload(0x40)\n      0xcd78605900000000000000000000000000000000000000000000000000000000\n      dup2\n      mstore\n      0x04\n      add\n      tag_78\n      swap2\n      swap1\n      tag_22\n      jump\t// in\n    tag_78:\n      mload(0x40)\n      dup1\n      swap2\n      sub\n      swap1\n      revert\n        /* \"@openzeppelin/contracts/utils/Address.sol\":3303:3411  if (address(this).balance < value) {... */\n    tag_77:\n        /* \"@openzeppelin/contracts/utils/Address.sol\":3421:3433  bool success */\n      0x00\n        /* \"@openzeppelin/contracts/utils/Address.sol\":3435:3458  bytes memory returndata */\n      dup1\n        /* \"@openzeppelin/contracts/utils/Address.sol\":3462:3468  target */\n      dup6\n        /* \"@openzeppelin/contracts/utils/Address.sol\":3462:3473  target.call */\n      0xffffffffffffffffffffffffffffffffffffffff\n      and\n        /* \"@openzeppelin/contracts/utils/Address.sol\":3481:3486  value */\n      dup5\n        /* \"@openzeppelin/contracts/utils/Address.sol\":3488:3492  data */\n      dup7\n        /* \"@openzeppelin/contracts/utils/Address.sol\":3462:3493  target.call{value: value}(data) */\n      mload(0x40)\n      tag_79\n      swap2\n      swap1\n      tag_80\n      jump\t// in\n    tag_79:\n      0x00\n      mload(0x40)\n      dup1\n      dup4\n      sub\n      dup2\n      dup6\n      dup8\n      gas\n      call\n      swap3\n      pop\n      pop\n      pop\n      returndatasize\n      dup1\n      0x00\n      dup2\n      eq\n      tag_83\n      jumpi\n      mload(0x40)\n      swap2\n      pop\n      and(add(returndatasize, 0x3f), not(0x1f))\n      dup3\n      add\n      0x40\n      mstore\n      returndatasize\n      dup3\n      mstore\n      returndatasize\n      0x00\n      0x20\n      dup5\n      add\n      returndatacopy\n      jump(tag_82)\n    tag_83:\n      0x60\n      swap2\n      pop\n    tag_82:\n      pop\n        /* \"@openzeppelin/contracts/utils/Address.sol\":3420:3493  (bool success, bytes memory returndata) = target.call{value: value}(data) */\n      swap2\n      pop\n      swap2\n      pop\n        /* \"@openzeppelin/contracts/utils/Address.sol\":3510:3565  verifyCallResultFromTarget(target, success, returndata) */\n      tag_84\n        /* \"@openzeppelin/contracts/utils/Address.sol\":3537:3543  target */\n      dup7\n        /* \"@openzeppelin/contracts/utils/Address.sol\":3545:3552  success */\n      dup4\n        /* \"@openzeppelin/contracts/utils/Address.sol\":3554:3564  returndata */\n      dup4\n        /* \"@openzeppelin/contracts/utils/Address.sol\":3510:3536  verifyCallResultFromTarget */\n      tag_85\n        /* \"@openzeppelin/contracts/utils/Address.sol\":3510:3565  verifyCallResultFromTarget(target, success, returndata) */\n      jump\t// in\n    tag_84:\n        /* \"@openzeppelin/contracts/utils/Address.sol\":3503:3565  return verifyCallResultFromTarget(target, success, returndata) */\n      swap3\n      pop\n      pop\n      pop\n        /* \"@openzeppelin/contracts/utils/Address.sol\":3180:3572  function functionCallWithValue(address target, bytes memory data, uint256 value) internal returns (bytes memory) {... */\n      swap4\n      swap3\n      pop\n      pop\n      pop\n      jump\t// out\n        /* \"@openzeppelin/contracts/utils/Address.sol\":4625:5207  function verifyCallResultFromTarget(... */\n    tag_85:\n        /* \"@openzeppelin/contracts/utils/Address.sol\":4769:4781  bytes memory */\n      0x60\n        /* \"@openzeppelin/contracts/utils/Address.sol\":4798:4805  success */\n      dup3\n        /* \"@openzeppelin/contracts/utils/Address.sol\":4793:5201  if (!success) {... */\n      tag_87\n      jumpi\n        /* \"@openzeppelin/contracts/utils/Address.sol\":4821:4840  _revert(returndata) */\n      tag_88\n        /* \"@openzeppelin/contracts/utils/Address.sol\":4829:4839  returndata */\n      dup3\n        /* \"@openzeppelin/contracts/utils/Address.sol\":4821:4828  _revert */\n      tag_89\n        /* \"@openzeppelin/contracts/utils/Address.sol\":4821:4840  _revert(returndata) */\n      jump\t// in\n    tag_88:\n        /* \"@openzeppelin/contracts/utils/Address.sol\":4793:5201  if (!success) {... */\n      jump(tag_90)\n    tag_87:\n        /* \"@openzeppelin/contracts/utils/Address.sol\":5066:5067  0 */\n      0x00\n        /* \"@openzeppelin/contracts/utils/Address.sol\":5045:5055  returndata */\n      dup3\n        /* \"@openzeppelin/contracts/utils/Address.sol\":5045:5062  returndata.length */\n      mload\n        /* \"@openzeppelin/contracts/utils/Address.sol\":5045:5067  returndata.length == 0 */\n      eq\n        /* \"@openzeppelin/contracts/utils/Address.sol\":5045:5094  returndata.length == 0 && target.code.length == 0 */\n      dup1\n      iszero\n      tag_91\n      jumpi\n      pop\n        /* \"@openzeppelin/contracts/utils/Address.sol\":5093:5094  0 */\n      0x00\n        /* \"@openzeppelin/contracts/utils/Address.sol\":5071:5077  target */\n      dup5\n        /* \"@openzeppelin/contracts/utils/Address.sol\":5071:5089  target.code.length */\n      0xffffffffffffffffffffffffffffffffffffffff\n      and\n      extcodesize\n        /* \"@openzeppelin/contracts/utils/Address.sol\":5071:5094  target.code.length == 0 */\n      eq\n        /* \"@openzeppelin/contracts/utils/Address.sol\":5045:5094  returndata.length == 0 && target.code.length == 0 */\n    tag_91:\n        /* \"@openzeppelin/contracts/utils/Address.sol\":5041:5160  if (returndata.length == 0 && target.code.length == 0) {... */\n      iszero\n      tag_92\n      jumpi\n        /* \"@openzeppelin/contracts/utils/Address.sol\":5138:5144  target */\n      dup4\n        /* \"@openzeppelin/contracts/utils/Address.sol\":5121:5145  AddressEmptyCode(target) */\n      mload(0x40)\n      0x9996b31500000000000000000000000000000000000000000000000000000000\n      dup2\n      mstore\n      0x04\n      add\n      tag_93\n      swap2\n      swap1\n      tag_22\n      jump\t// in\n    tag_93:\n      mload(0x40)\n      dup1\n      swap2\n      sub\n      swap1\n      revert\n        /* \"@openzeppelin/contracts/utils/Address.sol\":5041:5160  if (returndata.length == 0 && target.code.length == 0) {... */\n    tag_92:\n        /* \"@openzeppelin/contracts/utils/Address.sol\":5180:5190  returndata */\n      dup2\n        /* \"@openzeppelin/contracts/utils/Address.sol\":5173:5190  return returndata */\n      swap1\n      pop\n      jump(tag_86)\n        /* \"@openzeppelin/contracts/utils/Address.sol\":4793:5201  if (!success) {... */\n    tag_90:\n        /* \"@openzeppelin/contracts/utils/Address.sol\":4625:5207  function verifyCallResultFromTarget(... */\n    tag_86:\n      swap4\n      swap3\n      pop\n      pop\n      pop\n      jump\t// out\n        /* \"@openzeppelin/contracts/utils/Address.sol\":5743:6259  function _revert(bytes memory returndata) private pure {... */\n    tag_89:\n        /* \"@openzeppelin/contracts/utils/Address.sol\":5894:5895  0 */\n      0x00\n        /* \"@openzeppelin/contracts/utils/Address.sol\":5874:5884  returndata */\n      dup2\n        /* \"@openzeppelin/contracts/utils/Address.sol\":5874:5891  returndata.length */\n      mload\n        /* \"@openzeppelin/contracts/utils/Address.sol\":5874:5895  returndata.length > 0 */\n      gt\n        /* \"@openzeppelin/contracts/utils/Address.sol\":5870:6253  if (returndata.length > 0) {... */\n      iszero\n      tag_95\n      jumpi\n        /* \"@openzeppelin/contracts/utils/Address.sol\":6102:6112  returndata */\n      dup1\n        /* \"@openzeppelin/contracts/utils/Address.sol\":6096:6113  mload(returndata) */\n      mload\n        /* \"@openzeppelin/contracts/utils/Address.sol\":6158:6173  returndata_size */\n      dup1\n        /* \"@openzeppelin/contracts/utils/Address.sol\":6145:6155  returndata */\n      dup3\n        /* \"@openzeppelin/contracts/utils/Address.sol\":6141:6143  32 */\n      0x20\n        /* \"@openzeppelin/contracts/utils/Address.sol\":6137:6156  add(32, returndata) */\n      add\n        /* \"@openzeppelin/contracts/utils/Address.sol\":6130:6174  revert(add(32, returndata), returndata_size) */\n      revert\n        /* \"@openzeppelin/contracts/utils/Address.sol\":5870:6253  if (returndata.length > 0) {... */\n    tag_95:\n        /* \"@openzeppelin/contracts/utils/Address.sol\":6225:6242  FailedInnerCall() */\n      mload(0x40)\n      0x1425ea4200000000000000000000000000000000000000000000000000000000\n      dup2\n      mstore\n      0x04\n      add\n      mload(0x40)\n      dup1\n      swap2\n      sub\n      swap1\n      revert\n        /* \"#utility.yul\":7:84   */\n    tag_97:\n        /* \"#utility.yul\":44:51   */\n      0x00\n        /* \"#utility.yul\":73:78   */\n      dup2\n        /* \"#utility.yul\":62:78   */\n      swap1\n      pop\n        /* \"#utility.yul\":7:84   */\n      swap2\n      swap1\n      pop\n      jump\t// out\n        /* \"#utility.yul\":90:270   */\n    tag_98:\n        /* \"#utility.yul\":138:215   */\n      0x4e487b7100000000000000000000000000000000000000000000000000000000\n        /* \"#utility.yul\":135:136   */\n      0x00\n        /* \"#utility.yul\":128:216   */\n      mstore\n        /* \"#utility.yul\":235:239   */\n      0x11\n        /* \"#utility.yul\":232:233   */\n      0x04\n        /* \"#utility.yul\":225:240   */\n      mstore\n        /* \"#utility.yul\":259:263   */\n      0x24\n        /* \"#utility.yul\":256:257   */\n      0x00\n        /* \"#utility.yul\":249:264   */\n      revert\n        /* \"#utility.yul\":276:467   */\n    tag_10:\n        /* \"#utility.yul\":316:319   */\n      0x00\n        /* \"#utility.yul\":335:355   */\n      tag_140\n        /* \"#utility.yul\":353:354   */\n      dup3\n        /* \"#utility.yul\":335:355   */\n      tag_97\n      jump\t// in\n    tag_140:\n        /* \"#utility.yul\":330:355   */\n      swap2\n      pop\n        /* \"#utility.yul\":369:389   */\n      tag_141\n        /* \"#utility.yul\":387:388   */\n      dup4\n        /* \"#utility.yul\":369:389   */\n      tag_97\n      jump\t// in\n    tag_141:\n        /* \"#utility.yul\":364:389   */\n      swap3\n      pop\n        /* \"#utility.yul\":412:413   */\n      dup3\n        /* \"#utility.yul\":409:410   */\n      dup3\n        /* \"#utility.yul\":405:414   */\n      add\n        /* \"#utility.yul\":398:414   */\n      swap1\n      pop\n        /* \"#utility.yul\":433:436   */\n      dup1\n        /* \"#utility.yul\":430:431   */\n      dup3\n        /* \"#utility.yul\":427:437   */\n      gt\n        /* \"#utility.yul\":424:460   */\n      iszero\n      tag_142\n      jumpi\n        /* \"#utility.yul\":440:458   */\n      tag_143\n      tag_98\n      jump\t// in\n    tag_143:\n        /* \"#utility.yul\":424:460   */\n    tag_142:\n        /* \"#utility.yul\":276:467   */\n      swap3\n      swap2\n      pop\n      pop\n      jump\t// out\n        /* \"#utility.yul\":473:599   */\n    tag_99:\n        /* \"#utility.yul\":510:517   */\n      0x00\n        /* \"#utility.yul\":550:592   */\n      0xffffffffffffffffffffffffffffffffffffffff\n        /* \"#utility.yul\":543:548   */\n      dup3\n        /* \"#utility.yul\":539:593   */\n      and\n        /* \"#utility.yul\":528:593   */\n      swap1\n      pop\n        /* \"#utility.yul\":473:599   */\n      swap2\n      swap1\n      pop\n      jump\t// out\n        /* \"#utility.yul\":605:701   */\n    tag_100:\n        /* \"#utility.yul\":642:649   */\n      0x00\n        /* \"#utility.yul\":671:695   */\n      tag_146\n        /* \"#utility.yul\":689:694   */\n      dup3\n        /* \"#utility.yul\":671:695   */\n      tag_99\n      jump\t// in\n    tag_146:\n        /* \"#utility.yul\":660:695   */\n      swap1\n      pop\n        /* \"#utility.yul\":605:701   */\n      swap2\n      swap1\n      pop\n      jump\t// out\n        /* \"#utility.yul\":707:825   */\n    tag_101:\n        /* \"#utility.yul\":794:818   */\n      tag_148\n        /* \"#utility.yul\":812:817   */\n      dup2\n        /* \"#utility.yul\":794:818   */\n      tag_100\n      jump\t// in\n    tag_148:\n        /* \"#utility.yul\":789:792   */\n      dup3\n        /* \"#utility.yul\":782:819   */\n      mstore\n        /* \"#utility.yul\":707:825   */\n      pop\n      pop\n      jump\t// out\n        /* \"#utility.yul\":831:949   */\n    tag_102:\n        /* \"#utility.yul\":918:942   */\n      tag_150\n        /* \"#utility.yul\":936:941   */\n      dup2\n        /* \"#utility.yul\":918:942   */\n      tag_97\n      jump\t// in\n    tag_150:\n        /* \"#utility.yul\":913:916   */\n      dup3\n        /* \"#utility.yul\":906:943   */\n      mstore\n        /* \"#utility.yul\":831:949   */\n      pop\n      pop\n      jump\t// out\n        /* \"#utility.yul\":955:1287   */\n    tag_12:\n        /* \"#utility.yul\":1076:1080   */\n      0x00\n        /* \"#utility.yul\":1114:1116   */\n      0x40\n        /* \"#utility.yul\":1103:1112   */\n      dup3\n        /* \"#utility.yul\":1099:1117   */\n      add\n        /* \"#utility.yul\":1091:1117   */\n      swap1\n      pop\n        /* \"#utility.yul\":1127:1198   */\n      tag_152\n        /* \"#utility.yul\":1195:1196   */\n      0x00\n        /* \"#utility.yul\":1184:1193   */\n      dup4\n        /* \"#utility.yul\":1180:1197   */\n      add\n        /* \"#utility.yul\":1171:1177   */\n      dup6\n        /* \"#utility.yul\":1127:1198   */\n      tag_101\n      jump\t// in\n    tag_152:\n        /* \"#utility.yul\":1208:1280   */\n      tag_153\n        /* \"#utility.yul\":1276:1278   */\n      0x20\n        /* \"#utility.yul\":1265:1274   */\n      dup4\n        /* \"#utility.yul\":1261:1279   */\n      add\n        /* \"#utility.yul\":1252:1258   */\n      dup5\n        /* \"#utility.yul\":1208:1280   */\n      tag_102\n      jump\t// in\n    tag_153:\n        /* \"#utility.yul\":955:1287   */\n      swap4\n      swap3\n      pop\n      pop\n      pop\n      jump\t// out\n        /* \"#utility.yul\":1374:1491   */\n    tag_104:\n        /* \"#utility.yul\":1483:1484   */\n      0x00\n        /* \"#utility.yul\":1480:1481   */\n      dup1\n        /* \"#utility.yul\":1473:1485   */\n      revert\n        /* \"#utility.yul\":1620:1742   */\n    tag_106:\n        /* \"#utility.yul\":1693:1717   */\n      tag_158\n        /* \"#utility.yul\":1711:1716   */\n      dup2\n        /* \"#utility.yul\":1693:1717   */\n      tag_97\n      jump\t// in\n    tag_158:\n        /* \"#utility.yul\":1686:1691   */\n      dup2\n        /* \"#utility.yul\":1683:1718   */\n      eq\n        /* \"#utility.yul\":1673:1736   */\n      tag_159\n      jumpi\n        /* \"#utility.yul\":1732:1733   */\n      0x00\n        /* \"#utility.yul\":1729:1730   */\n      dup1\n        /* \"#utility.yul\":1722:1734   */\n      revert\n        /* \"#utility.yul\":1673:1736   */\n    tag_159:\n        /* \"#utility.yul\":1620:1742   */\n      pop\n      jump\t// out\n        /* \"#utility.yul\":1748:1887   */\n    tag_107:\n        /* \"#utility.yul\":1794:1799   */\n      0x00\n        /* \"#utility.yul\":1832:1838   */\n      dup2\n        /* \"#utility.yul\":1819:1839   */\n      calldataload\n        /* \"#utility.yul\":1810:1839   */\n      swap1\n      pop\n        /* \"#utility.yul\":1848:1881   */\n      tag_161\n        /* \"#utility.yul\":1875:1880   */\n      dup2\n        /* \"#utility.yul\":1848:1881   */\n      tag_106\n      jump\t// in\n    tag_161:\n        /* \"#utility.yul\":1748:1887   */\n      swap3\n      swap2\n      pop\n      pop\n      jump\t// out\n        /* \"#utility.yul\":1893:1997   */\n    tag_108:\n        /* \"#utility.yul\":1938:1945   */\n      0x00\n        /* \"#utility.yul\":1967:1991   */\n      tag_163\n        /* \"#utility.yul\":1985:1990   */\n      dup3\n        /* \"#utility.yul\":1967:1991   */\n      tag_99\n      jump\t// in\n    tag_163:\n        /* \"#utility.yul\":1956:1991   */\n      swap1\n      pop\n        /* \"#utility.yul\":1893:1997   */\n      swap2\n      swap1\n      pop\n      jump\t// out\n        /* \"#utility.yul\":2003:2141   */\n    tag_109:\n        /* \"#utility.yul\":2084:2116   */\n      tag_165\n        /* \"#utility.yul\":2110:2115   */\n      dup2\n        /* \"#utility.yul\":2084:2116   */\n      tag_108\n      jump\t// in\n    tag_165:\n        /* \"#utility.yul\":2077:2082   */\n      dup2\n        /* \"#utility.yul\":2074:2117   */\n      eq\n        /* \"#utility.yul\":2064:2135   */\n      tag_166\n      jumpi\n        /* \"#utility.yul\":2131:2132   */\n      0x00\n        /* \"#utility.yul\":2128:2129   */\n      dup1\n        /* \"#utility.yul\":2121:2133   */\n      revert\n        /* \"#utility.yul\":2064:2135   */\n    tag_166:\n        /* \"#utility.yul\":2003:2141   */\n      pop\n      jump\t// out\n        /* \"#utility.yul\":2147:2302   */\n    tag_110:\n        /* \"#utility.yul\":2201:2206   */\n      0x00\n        /* \"#utility.yul\":2239:2245   */\n      dup2\n        /* \"#utility.yul\":2226:2246   */\n      calldataload\n        /* \"#utility.yul\":2217:2246   */\n      swap1\n      pop\n        /* \"#utility.yul\":2255:2296   */\n      tag_168\n        /* \"#utility.yul\":2290:2295   */\n      dup2\n        /* \"#utility.yul\":2255:2296   */\n      tag_109\n      jump\t// in\n    tag_168:\n        /* \"#utility.yul\":2147:2302   */\n      swap3\n      swap2\n      pop\n      pop\n      jump\t// out\n        /* \"#utility.yul\":2308:2798   */\n    tag_16:\n        /* \"#utility.yul\":2384:2390   */\n      0x00\n        /* \"#utility.yul\":2392:2398   */\n      dup1\n        /* \"#utility.yul\":2441:2443   */\n      0x40\n        /* \"#utility.yul\":2429:2438   */\n      dup4\n        /* \"#utility.yul\":2420:2427   */\n      dup6\n        /* \"#utility.yul\":2416:2439   */\n      sub\n        /* \"#utility.yul\":2412:2444   */\n      slt\n        /* \"#utility.yul\":2409:2528   */\n      iszero\n      tag_170\n      jumpi\n        /* \"#utility.yul\":2447:2526   */\n      tag_171\n      tag_104\n      jump\t// in\n    tag_171:\n        /* \"#utility.yul\":2409:2528   */\n    tag_170:\n        /* \"#utility.yul\":2567:2568   */\n      0x00\n        /* \"#utility.yul\":2592:2645   */\n      tag_172\n        /* \"#utility.yul\":2637:2644   */\n      dup6\n        /* \"#utility.yul\":2628:2634   */\n      dup3\n        /* \"#utility.yul\":2617:2626   */\n      dup7\n        /* \"#utility.yul\":2613:2635   */\n      add\n        /* \"#utility.yul\":2592:2645   */\n      tag_107\n      jump\t// in\n    tag_172:\n        /* \"#utility.yul\":2582:2645   */\n      swap3\n      pop\n        /* \"#utility.yul\":2538:2655   */\n      pop\n        /* \"#utility.yul\":2694:2696   */\n      0x20\n        /* \"#utility.yul\":2720:2781   */\n      tag_173\n        /* \"#utility.yul\":2773:2780   */\n      dup6\n        /* \"#utility.yul\":2764:2770   */\n      dup3\n        /* \"#utility.yul\":2753:2762   */\n      dup7\n        /* \"#utility.yul\":2749:2771   */\n      add\n        /* \"#utility.yul\":2720:2781   */\n      tag_110\n      jump\t// in\n    tag_173:\n        /* \"#utility.yul\":2710:2781   */\n      swap2\n      pop\n        /* \"#utility.yul\":2665:2791   */\n      pop\n        /* \"#utility.yul\":2308:2798   */\n      swap3\n      pop\n      swap3\n      swap1\n      pop\n      jump\t// out\n        /* \"#utility.yul\":2804:3026   */\n    tag_22:\n        /* \"#utility.yul\":2897:2901   */\n      0x00\n        /* \"#utility.yul\":2935:2937   */\n      0x20\n        /* \"#utility.yul\":2924:2933   */\n      dup3\n        /* \"#utility.yul\":2920:2938   */\n      add\n        /* \"#utility.yul\":2912:2938   */\n      swap1\n      pop\n        /* \"#utility.yul\":2948:3019   */\n      tag_175\n        /* \"#utility.yul\":3016:3017   */\n      0x00\n        /* \"#utility.yul\":3005:3014   */\n      dup4\n        /* \"#utility.yul\":3001:3018   */\n      add\n        /* \"#utility.yul\":2992:2998   */\n      dup5\n        /* \"#utility.yul\":2948:3019   */\n      tag_101\n      jump\t// in\n    tag_175:\n        /* \"#utility.yul\":2804:3026   */\n      swap3\n      swap2\n      pop\n      pop\n      jump\t// out\n        /* \"#utility.yul\":3032:3141   */\n    tag_111:\n        /* \"#utility.yul\":3082:3089   */\n      0x00\n        /* \"#utility.yul\":3111:3135   */\n      tag_177\n        /* \"#utility.yul\":3129:3134   */\n      dup3\n        /* \"#utility.yul\":3111:3135   */\n      tag_100\n      jump\t// in\n    tag_177:\n        /* \"#utility.yul\":3100:3135   */\n      swap1\n      pop\n        /* \"#utility.yul\":3032:3141   */\n      swap2\n      swap1\n      pop\n      jump\t// out\n        /* \"#utility.yul\":3147:3295   */\n    tag_112:\n        /* \"#utility.yul\":3233:3270   */\n      tag_179\n        /* \"#utility.yul\":3264:3269   */\n      dup2\n        /* \"#utility.yul\":3233:3270   */\n      tag_111\n      jump\t// in\n    tag_179:\n        /* \"#utility.yul\":3226:3231   */\n      dup2\n        /* \"#utility.yul\":3223:3271   */\n      eq\n        /* \"#utility.yul\":3213:3289   */\n      tag_180\n      jumpi\n        /* \"#utility.yul\":3285:3286   */\n      0x00\n        /* \"#utility.yul\":3282:3283   */\n      dup1\n        /* \"#utility.yul\":3275:3287   */\n      revert\n        /* \"#utility.yul\":3213:3289   */\n    tag_180:\n        /* \"#utility.yul\":3147:3295   */\n      pop\n      jump\t// out\n        /* \"#utility.yul\":3301:3466   */\n    tag_113:\n        /* \"#utility.yul\":3360:3365   */\n      0x00\n        /* \"#utility.yul\":3398:3404   */\n      dup2\n        /* \"#utility.yul\":3385:3405   */\n      calldataload\n        /* \"#utility.yul\":3376:3405   */\n      swap1\n      pop\n        /* \"#utility.yul\":3414:3460   */\n      tag_182\n        /* \"#utility.yul\":3454:3459   */\n      dup2\n        /* \"#utility.yul\":3414:3460   */\n      tag_112\n      jump\t// in\n    tag_182:\n        /* \"#utility.yul\":3301:3466   */\n      swap3\n      swap2\n      pop\n      pop\n      jump\t// out\n        /* \"#utility.yul\":3472:3594   */\n    tag_114:\n        /* \"#utility.yul\":3545:3569   */\n      tag_184\n        /* \"#utility.yul\":3563:3568   */\n      dup2\n        /* \"#utility.yul\":3545:3569   */\n      tag_100\n      jump\t// in\n    tag_184:\n        /* \"#utility.yul\":3538:3543   */\n      dup2\n        /* \"#utility.yul\":3535:3570   */\n      eq\n        /* \"#utility.yul\":3525:3588   */\n      tag_185\n      jumpi\n        /* \"#utility.yul\":3584:3585   */\n      0x00\n        /* \"#utility.yul\":3581:3582   */\n      dup1\n        /* \"#utility.yul\":3574:3586   */\n      revert\n        /* \"#utility.yul\":3525:3588   */\n    tag_185:\n        /* \"#utility.yul\":3472:3594   */\n      pop\n      jump\t// out\n        /* \"#utility.yul\":3600:3739   */\n    tag_115:\n        /* \"#utility.yul\":3646:3651   */\n      0x00\n        /* \"#utility.yul\":3684:3690   */\n      dup2\n        /* \"#utility.yul\":3671:3691   */\n      calldataload\n        /* \"#utility.yul\":3662:3691   */\n      swap1\n      pop\n        /* \"#utility.yul\":3700:3733   */\n      tag_187\n        /* \"#utility.yul\":3727:3732   */\n      dup2\n        /* \"#utility.yul\":3700:3733   */\n      tag_114\n      jump\t// in\n    tag_187:\n        /* \"#utility.yul\":3600:3739   */\n      swap3\n      swap2\n      pop\n      pop\n      jump\t// out\n        /* \"#utility.yul\":3745:4390   */\n    tag_26:\n        /* \"#utility.yul\":3835:3841   */\n      0x00\n        /* \"#utility.yul\":3843:3849   */\n      dup1\n        /* \"#utility.yul\":3851:3857   */\n      0x00\n        /* \"#utility.yul\":3900:3902   */\n      0x60\n        /* \"#utility.yul\":3888:3897   */\n      dup5\n        /* \"#utility.yul\":3879:3886   */\n      dup7\n        /* \"#utility.yul\":3875:3898   */\n      sub\n        /* \"#utility.yul\":3871:3903   */\n      slt\n        /* \"#utility.yul\":3868:3987   */\n      iszero\n      tag_189\n      jumpi\n        /* \"#utility.yul\":3906:3985   */\n      tag_190\n      tag_104\n      jump\t// in\n    tag_190:\n        /* \"#utility.yul\":3868:3987   */\n    tag_189:\n        /* \"#utility.yul\":4026:4027   */\n      0x00\n        /* \"#utility.yul\":4051:4117   */\n      tag_191\n        /* \"#utility.yul\":4109:4116   */\n      dup7\n        /* \"#utility.yul\":4100:4106   */\n      dup3\n        /* \"#utility.yul\":4089:4098   */\n      dup8\n        /* \"#utility.yul\":4085:4107   */\n      add\n        /* \"#utility.yul\":4051:4117   */\n      tag_113\n      jump\t// in\n    tag_191:\n        /* \"#utility.yul\":4041:4117   */\n      swap4\n      pop\n        /* \"#utility.yul\":3997:4127   */\n      pop\n        /* \"#utility.yul\":4166:4168   */\n      0x20\n        /* \"#utility.yul\":4192:4245   */\n      tag_192\n        /* \"#utility.yul\":4237:4244   */\n      dup7\n        /* \"#utility.yul\":4228:4234   */\n      dup3\n        /* \"#utility.yul\":4217:4226   */\n      dup8\n        /* \"#utility.yul\":4213:4235   */\n      add\n        /* \"#utility.yul\":4192:4245   */\n      tag_115\n      jump\t// in\n    tag_192:\n        /* \"#utility.yul\":4182:4245   */\n      swap3\n      pop\n        /* \"#utility.yul\":4137:4255   */\n      pop\n        /* \"#utility.yul\":4294:4296   */\n      0x40\n        /* \"#utility.yul\":4320:4373   */\n      tag_193\n        /* \"#utility.yul\":4365:4372   */\n      dup7\n        /* \"#utility.yul\":4356:4362   */\n      dup3\n        /* \"#utility.yul\":4345:4354   */\n      dup8\n        /* \"#utility.yul\":4341:4363   */\n      add\n        /* \"#utility.yul\":4320:4373   */\n      tag_107\n      jump\t// in\n    tag_193:\n        /* \"#utility.yul\":4310:4373   */\n      swap2\n      pop\n        /* \"#utility.yul\":4265:4383   */\n      pop\n        /* \"#utility.yul\":3745:4390   */\n      swap3\n      pop\n      swap3\n      pop\n      swap3\n      jump\t// out\n        /* \"#utility.yul\":4396:4618   */\n    tag_32:\n        /* \"#utility.yul\":4489:4493   */\n      0x00\n        /* \"#utility.yul\":4527:4529   */\n      0x20\n        /* \"#utility.yul\":4516:4525   */\n      dup3\n        /* \"#utility.yul\":4512:4530   */\n      add\n        /* \"#utility.yul\":4504:4530   */\n      swap1\n      pop\n        /* \"#utility.yul\":4540:4611   */\n      tag_195\n        /* \"#utility.yul\":4608:4609   */\n      0x00\n        /* \"#utility.yul\":4597:4606   */\n      dup4\n        /* \"#utility.yul\":4593:4610   */\n      add\n        /* \"#utility.yul\":4584:4590   */\n      dup5\n        /* \"#utility.yul\":4540:4611   */\n      tag_102\n      jump\t// in\n    tag_195:\n        /* \"#utility.yul\":4396:4618   */\n      swap3\n      swap2\n      pop\n      pop\n      jump\t// out\n        /* \"#utility.yul\":4624:4793   */\n    tag_116:\n        /* \"#utility.yul\":4708:4719   */\n      0x00\n        /* \"#utility.yul\":4742:4748   */\n      dup3\n        /* \"#utility.yul\":4737:4740   */\n      dup3\n        /* \"#utility.yul\":4730:4749   */\n      mstore\n        /* \"#utility.yul\":4782:4786   */\n      0x20\n        /* \"#utility.yul\":4777:4780   */\n      dup3\n        /* \"#utility.yul\":4773:4787   */\n      add\n        /* \"#utility.yul\":4758:4787   */\n      swap1\n      pop\n        /* \"#utility.yul\":4624:4793   */\n      swap3\n      swap2\n      pop\n      pop\n      jump\t// out\n        /* \"#utility.yul\":4799:4978   */\n    tag_117:\n        /* \"#utility.yul\":4939:4970   */\n      0x4f6e6c79206f776e65722063616e2077697468647261772066756e6473000000\n        /* \"#utility.yul\":4935:4936   */\n      0x00\n        /* \"#utility.yul\":4927:4933   */\n      dup3\n        /* \"#utility.yul\":4923:4937   */\n      add\n        /* \"#utility.yul\":4916:4971   */\n      mstore\n        /* \"#utility.yul\":4799:4978   */\n      pop\n      jump\t// out\n        /* \"#utility.yul\":4984:5350   */\n    tag_118:\n        /* \"#utility.yul\":5126:5129   */\n      0x00\n        /* \"#utility.yul\":5147:5214   */\n      tag_199\n        /* \"#utility.yul\":5211:5213   */\n      0x1d\n        /* \"#utility.yul\":5206:5209   */\n      dup4\n        /* \"#utility.yul\":5147:5214   */\n      tag_116\n      jump\t// in\n    tag_199:\n        /* \"#utility.yul\":5140:5214   */\n      swap2\n      pop\n        /* \"#utility.yul\":5223:5316   */\n      tag_200\n        /* \"#utility.yul\":5312:5315   */\n      dup3\n        /* \"#utility.yul\":5223:5316   */\n      tag_117\n      jump\t// in\n    tag_200:\n        /* \"#utility.yul\":5341:5343   */\n      0x20\n        /* \"#utility.yul\":5336:5339   */\n      dup3\n        /* \"#utility.yul\":5332:5344   */\n      add\n        /* \"#utility.yul\":5325:5344   */\n      swap1\n      pop\n        /* \"#utility.yul\":4984:5350   */\n      swap2\n      swap1\n      pop\n      jump\t// out\n        /* \"#utility.yul\":5356:5775   */\n    tag_36:\n        /* \"#utility.yul\":5522:5526   */\n      0x00\n        /* \"#utility.yul\":5560:5562   */\n      0x20\n        /* \"#utility.yul\":5549:5558   */\n      dup3\n        /* \"#utility.yul\":5545:5563   */\n      add\n        /* \"#utility.yul\":5537:5563   */\n      swap1\n      pop\n        /* \"#utility.yul\":5609:5618   */\n      dup2\n        /* \"#utility.yul\":5603:5607   */\n      dup2\n        /* \"#utility.yul\":5599:5619   */\n      sub\n        /* \"#utility.yul\":5595:5596   */\n      0x00\n        /* \"#utility.yul\":5584:5593   */\n      dup4\n        /* \"#utility.yul\":5580:5597   */\n      add\n        /* \"#utility.yul\":5573:5620   */\n      mstore\n        /* \"#utility.yul\":5637:5768   */\n      tag_202\n        /* \"#utility.yul\":5763:5767   */\n      dup2\n        /* \"#utility.yul\":5637:5768   */\n      tag_118\n      jump\t// in\n    tag_202:\n        /* \"#utility.yul\":5629:5768   */\n      swap1\n      pop\n        /* \"#utility.yul\":5356:5775   */\n      swap2\n      swap1\n      pop\n      jump\t// out\n        /* \"#utility.yul\":5781:5949   */\n    tag_119:\n        /* \"#utility.yul\":5921:5941   */\n      0x496e73756666696369656e742066756e64730000000000000000000000000000\n        /* \"#utility.yul\":5917:5918   */\n      0x00\n        /* \"#utility.yul\":5909:5915   */\n      dup3\n        /* \"#utility.yul\":5905:5919   */\n      add\n        /* \"#utility.yul\":5898:5942   */\n      mstore\n        /* \"#utility.yul\":5781:5949   */\n      pop\n      jump\t// out\n        /* \"#utility.yul\":5955:6321   */\n    tag_120:\n        /* \"#utility.yul\":6097:6100   */\n      0x00\n        /* \"#utility.yul\":6118:6185   */\n      tag_205\n        /* \"#utility.yul\":6182:6184   */\n      0x12\n        /* \"#utility.yul\":6177:6180   */\n      dup4\n        /* \"#utility.yul\":6118:6185   */\n      tag_116\n      jump\t// in\n    tag_205:\n        /* \"#utility.yul\":6111:6185   */\n      swap2\n      pop\n        /* \"#utility.yul\":6194:6287   */\n      tag_206\n        /* \"#utility.yul\":6283:6286   */\n      dup3\n        /* \"#utility.yul\":6194:6287   */\n      tag_119\n      jump\t// in\n    tag_206:\n        /* \"#utility.yul\":6312:6314   */\n      0x20\n        /* \"#utility.yul\":6307:6310   */\n      dup3\n        /* \"#utility.yul\":6303:6315   */\n      add\n        /* \"#utility.yul\":6296:6315   */\n      swap1\n      pop\n        /* \"#utility.yul\":5955:6321   */\n      swap2\n      swap1\n      pop\n      jump\t// out\n        /* \"#utility.yul\":6327:6746   */\n    tag_39:\n        /* \"#utility.yul\":6493:6497   */\n      0x00\n        /* \"#utility.yul\":6531:6533   */\n      0x20\n        /* \"#utility.yul\":6520:6529   */\n      dup3\n        /* \"#utility.yul\":6516:6534   */\n      add\n        /* \"#utility.yul\":6508:6534   */\n      swap1\n      pop\n        /* \"#utility.yul\":6580:6589   */\n      dup2\n        /* \"#utility.yul\":6574:6578   */\n      dup2\n        /* \"#utility.yul\":6570:6590   */\n      sub\n        /* \"#utility.yul\":6566:6567   */\n      0x00\n        /* \"#utility.yul\":6555:6564   */\n      dup4\n        /* \"#utility.yul\":6551:6568   */\n      add\n        /* \"#utility.yul\":6544:6591   */\n      mstore\n        /* \"#utility.yul\":6608:6739   */\n      tag_208\n        /* \"#utility.yul\":6734:6738   */\n      dup2\n        /* \"#utility.yul\":6608:6739   */\n      tag_120\n      jump\t// in\n    tag_208:\n        /* \"#utility.yul\":6600:6739   */\n      swap1\n      pop\n        /* \"#utility.yul\":6327:6746   */\n      swap2\n      swap1\n      pop\n      jump\t// out\n        /* \"#utility.yul\":6752:6946   */\n    tag_43:\n        /* \"#utility.yul\":6792:6796   */\n      0x00\n        /* \"#utility.yul\":6812:6832   */\n      tag_210\n        /* \"#utility.yul\":6830:6831   */\n      dup3\n        /* \"#utility.yul\":6812:6832   */\n      tag_97\n      jump\t// in\n    tag_210:\n        /* \"#utility.yul\":6807:6832   */\n      swap2\n      pop\n        /* \"#utility.yul\":6846:6866   */\n      tag_211\n        /* \"#utility.yul\":6864:6865   */\n      dup4\n        /* \"#utility.yul\":6846:6866   */\n      tag_97\n      jump\t// in\n    tag_211:\n        /* \"#utility.yul\":6841:6866   */\n      swap3\n      pop\n        /* \"#utility.yul\":6890:6891   */\n      dup3\n        /* \"#utility.yul\":6887:6888   */\n      dup3\n        /* \"#utility.yul\":6883:6892   */\n      sub\n        /* \"#utility.yul\":6875:6892   */\n      swap1\n      pop\n        /* \"#utility.yul\":6914:6915   */\n      dup2\n        /* \"#utility.yul\":6908:6912   */\n      dup2\n        /* \"#utility.yul\":6905:6916   */\n      gt\n        /* \"#utility.yul\":6902:6939   */\n      iszero\n      tag_212\n      jumpi\n        /* \"#utility.yul\":6919:6937   */\n      tag_213\n      tag_98\n      jump\t// in\n    tag_213:\n        /* \"#utility.yul\":6902:6939   */\n    tag_212:\n        /* \"#utility.yul\":6752:6946   */\n      swap3\n      swap2\n      pop\n      pop\n      jump\t// out\n        /* \"#utility.yul\":6952:7012   */\n    tag_121:\n        /* \"#utility.yul\":6980:6983   */\n      0x00\n        /* \"#utility.yul\":7001:7006   */\n      dup2\n        /* \"#utility.yul\":6994:7006   */\n      swap1\n      pop\n        /* \"#utility.yul\":6952:7012   */\n      swap2\n      swap1\n      pop\n      jump\t// out\n        /* \"#utility.yul\":7018:7160   */\n    tag_122:\n        /* \"#utility.yul\":7068:7077   */\n      0x00\n        /* \"#utility.yul\":7101:7154   */\n      tag_216\n        /* \"#utility.yul\":7119:7153   */\n      tag_217\n        /* \"#utility.yul\":7128:7152   */\n      tag_218\n        /* \"#utility.yul\":7146:7151   */\n      dup5\n        /* \"#utility.yul\":7128:7152   */\n      tag_99\n      jump\t// in\n    tag_218:\n        /* \"#utility.yul\":7119:7153   */\n      tag_121\n      jump\t// in\n    tag_217:\n        /* \"#utility.yul\":7101:7154   */\n      tag_99\n      jump\t// in\n    tag_216:\n        /* \"#utility.yul\":7088:7154   */\n      swap1\n      pop\n        /* \"#utility.yul\":7018:7160   */\n      swap2\n      swap1\n      pop\n      jump\t// out\n        /* \"#utility.yul\":7166:7292   */\n    tag_123:\n        /* \"#utility.yul\":7216:7225   */\n      0x00\n        /* \"#utility.yul\":7249:7286   */\n      tag_220\n        /* \"#utility.yul\":7280:7285   */\n      dup3\n        /* \"#utility.yul\":7249:7286   */\n      tag_122\n      jump\t// in\n    tag_220:\n        /* \"#utility.yul\":7236:7286   */\n      swap1\n      pop\n        /* \"#utility.yul\":7166:7292   */\n      swap2\n      swap1\n      pop\n      jump\t// out\n        /* \"#utility.yul\":7298:7432   */\n    tag_124:\n        /* \"#utility.yul\":7356:7365   */\n      0x00\n        /* \"#utility.yul\":7389:7426   */\n      tag_222\n        /* \"#utility.yul\":7420:7425   */\n      dup3\n        /* \"#utility.yul\":7389:7426   */\n      tag_123\n      jump\t// in\n    tag_222:\n        /* \"#utility.yul\":7376:7426   */\n      swap1\n      pop\n        /* \"#utility.yul\":7298:7432   */\n      swap2\n      swap1\n      pop\n      jump\t// out\n        /* \"#utility.yul\":7438:7585   */\n    tag_125:\n        /* \"#utility.yul\":7533:7578   */\n      tag_224\n        /* \"#utility.yul\":7572:7577   */\n      dup2\n        /* \"#utility.yul\":7533:7578   */\n      tag_124\n      jump\t// in\n    tag_224:\n        /* \"#utility.yul\":7528:7531   */\n      dup3\n        /* \"#utility.yul\":7521:7579   */\n      mstore\n        /* \"#utility.yul\":7438:7585   */\n      pop\n      pop\n      jump\t// out\n        /* \"#utility.yul\":7591:8049   */\n    tag_45:\n        /* \"#utility.yul\":7748:7752   */\n      0x00\n        /* \"#utility.yul\":7786:7788   */\n      0x60\n        /* \"#utility.yul\":7775:7784   */\n      dup3\n        /* \"#utility.yul\":7771:7789   */\n      add\n        /* \"#utility.yul\":7763:7789   */\n      swap1\n      pop\n        /* \"#utility.yul\":7799:7870   */\n      tag_226\n        /* \"#utility.yul\":7867:7868   */\n      0x00\n        /* \"#utility.yul\":7856:7865   */\n      dup4\n        /* \"#utility.yul\":7852:7869   */\n      add\n        /* \"#utility.yul\":7843:7849   */\n      dup7\n        /* \"#utility.yul\":7799:7870   */\n      tag_101\n      jump\t// in\n    tag_226:\n        /* \"#utility.yul\":7880:7960   */\n      tag_227\n        /* \"#utility.yul\":7956:7958   */\n      0x20\n        /* \"#utility.yul\":7945:7954   */\n      dup4\n        /* \"#utility.yul\":7941:7959   */\n      add\n        /* \"#utility.yul\":7932:7938   */\n      dup6\n        /* \"#utility.yul\":7880:7960   */\n      tag_125\n      jump\t// in\n    tag_227:\n        /* \"#utility.yul\":7970:8042   */\n      tag_228\n        /* \"#utility.yul\":8038:8040   */\n      0x40\n        /* \"#utility.yul\":8027:8036   */\n      dup4\n        /* \"#utility.yul\":8023:8041   */\n      add\n        /* \"#utility.yul\":8014:8020   */\n      dup5\n        /* \"#utility.yul\":7970:8042   */\n      tag_102\n      jump\t// in\n    tag_228:\n        /* \"#utility.yul\":7591:8049   */\n      swap5\n      swap4\n      pop\n      pop\n      pop\n      pop\n      jump\t// out\n        /* \"#utility.yul\":8055:8198   */\n    tag_126:\n        /* \"#utility.yul\":8112:8117   */\n      0x00\n        /* \"#utility.yul\":8143:8149   */\n      dup2\n        /* \"#utility.yul\":8137:8150   */\n      mload\n        /* \"#utility.yul\":8128:8150   */\n      swap1\n      pop\n        /* \"#utility.yul\":8159:8192   */\n      tag_230\n        /* \"#utility.yul\":8186:8191   */\n      dup2\n        /* \"#utility.yul\":8159:8192   */\n      tag_106\n      jump\t// in\n    tag_230:\n        /* \"#utility.yul\":8055:8198   */\n      swap3\n      swap2\n      pop\n      pop\n      jump\t// out\n        /* \"#utility.yul\":8204:8555   */\n    tag_53:\n        /* \"#utility.yul\":8274:8280   */\n      0x00\n        /* \"#utility.yul\":8323:8325   */\n      0x20\n        /* \"#utility.yul\":8311:8320   */\n      dup3\n        /* \"#utility.yul\":8302:8309   */\n      dup5\n        /* \"#utility.yul\":8298:8321   */\n      sub\n        /* \"#utility.yul\":8294:8326   */\n      slt\n        /* \"#utility.yul\":8291:8410   */\n      iszero\n      tag_232\n      jumpi\n        /* \"#utility.yul\":8329:8408   */\n      tag_233\n      tag_104\n      jump\t// in\n    tag_233:\n        /* \"#utility.yul\":8291:8410   */\n    tag_232:\n        /* \"#utility.yul\":8449:8450   */\n      0x00\n        /* \"#utility.yul\":8474:8538   */\n      tag_234\n        /* \"#utility.yul\":8530:8537   */\n      dup5\n        /* \"#utility.yul\":8521:8527   */\n      dup3\n        /* \"#utility.yul\":8510:8519   */\n      dup6\n        /* \"#utility.yul\":8506:8528   */\n      add\n        /* \"#utility.yul\":8474:8538   */\n      tag_126\n      jump\t// in\n    tag_234:\n        /* \"#utility.yul\":8464:8538   */\n      swap2\n      pop\n        /* \"#utility.yul\":8420:8548   */\n      pop\n        /* \"#utility.yul\":8204:8555   */\n      swap3\n      swap2\n      pop\n      pop\n      jump\t// out\n        /* \"#utility.yul\":8561:8725   */\n    tag_127:\n        /* \"#utility.yul\":8701:8717   */\n      0x42616c616e6365206973206c6f77000000000000000000000000000000000000\n        /* \"#utility.yul\":8697:8698   */\n      0x00\n        /* \"#utility.yul\":8689:8695   */\n      dup3\n        /* \"#utility.yul\":8685:8699   */\n      add\n        /* \"#utility.yul\":8678:8718   */\n      mstore\n        /* \"#utility.yul\":8561:8725   */\n      pop\n      jump\t// out\n        /* \"#utility.yul\":8731:9097   */\n    tag_128:\n        /* \"#utility.yul\":8873:8876   */\n      0x00\n        /* \"#utility.yul\":8894:8961   */\n      tag_237\n        /* \"#utility.yul\":8958:8960   */\n      0x0e\n        /* \"#utility.yul\":8953:8956   */\n      dup4\n        /* \"#utility.yul\":8894:8961   */\n      tag_116\n      jump\t// in\n    tag_237:\n        /* \"#utility.yul\":8887:8961   */\n      swap2\n      pop\n        /* \"#utility.yul\":8970:9063   */\n      tag_238\n        /* \"#utility.yul\":9059:9062   */\n      dup3\n        /* \"#utility.yul\":8970:9063   */\n      tag_127\n      jump\t// in\n    tag_238:\n        /* \"#utility.yul\":9088:9090   */\n      0x20\n        /* \"#utility.yul\":9083:9086   */\n      dup3\n        /* \"#utility.yul\":9079:9091   */\n      add\n        /* \"#utility.yul\":9072:9091   */\n      swap1\n      pop\n        /* \"#utility.yul\":8731:9097   */\n      swap2\n      swap1\n      pop\n      jump\t// out\n        /* \"#utility.yul\":9103:9522   */\n    tag_56:\n        /* \"#utility.yul\":9269:9273   */\n      0x00\n        /* \"#utility.yul\":9307:9309   */\n      0x20\n        /* \"#utility.yul\":9296:9305   */\n      dup3\n        /* \"#utility.yul\":9292:9310   */\n      add\n        /* \"#utility.yul\":9284:9310   */\n      swap1\n      pop\n        /* \"#utility.yul\":9356:9365   */\n      dup2\n        /* \"#utility.yul\":9350:9354   */\n      dup2\n        /* \"#utility.yul\":9346:9366   */\n      sub\n        /* \"#utility.yul\":9342:9343   */\n      0x00\n        /* \"#utility.yul\":9331:9340   */\n      dup4\n        /* \"#utility.yul\":9327:9344   */\n      add\n        /* \"#utility.yul\":9320:9367   */\n      mstore\n        /* \"#utility.yul\":9384:9515   */\n      tag_240\n        /* \"#utility.yul\":9510:9514   */\n      dup2\n        /* \"#utility.yul\":9384:9515   */\n      tag_128\n      jump\t// in\n    tag_240:\n        /* \"#utility.yul\":9376:9515   */\n      swap1\n      pop\n        /* \"#utility.yul\":9103:9522   */\n      swap2\n      swap1\n      pop\n      jump\t// out\n        /* \"#utility.yul\":9528:9970   */\n    tag_60:\n        /* \"#utility.yul\":9677:9681   */\n      0x00\n        /* \"#utility.yul\":9715:9717   */\n      0x60\n        /* \"#utility.yul\":9704:9713   */\n      dup3\n        /* \"#utility.yul\":9700:9718   */\n      add\n        /* \"#utility.yul\":9692:9718   */\n      swap1\n      pop\n        /* \"#utility.yul\":9728:9799   */\n      tag_242\n        /* \"#utility.yul\":9796:9797   */\n      0x00\n        /* \"#utility.yul\":9785:9794   */\n      dup4\n        /* \"#utility.yul\":9781:9798   */\n      add\n        /* \"#utility.yul\":9772:9778   */\n      dup7\n        /* \"#utility.yul\":9728:9799   */\n      tag_101\n      jump\t// in\n    tag_242:\n        /* \"#utility.yul\":9809:9881   */\n      tag_243\n        /* \"#utility.yul\":9877:9879   */\n      0x20\n        /* \"#utility.yul\":9866:9875   */\n      dup4\n        /* \"#utility.yul\":9862:9880   */\n      add\n        /* \"#utility.yul\":9853:9859   */\n      dup6\n        /* \"#utility.yul\":9809:9881   */\n      tag_101\n      jump\t// in\n    tag_243:\n        /* \"#utility.yul\":9891:9963   */\n      tag_244\n        /* \"#utility.yul\":9959:9961   */\n      0x40\n        /* \"#utility.yul\":9948:9957   */\n      dup4\n        /* \"#utility.yul\":9944:9962   */\n      add\n        /* \"#utility.yul\":9935:9941   */\n      dup5\n        /* \"#utility.yul\":9891:9963   */\n      tag_102\n      jump\t// in\n    tag_244:\n        /* \"#utility.yul\":9528:9970   */\n      swap5\n      swap4\n      pop\n      pop\n      pop\n      pop\n      jump\t// out\n        /* \"#utility.yul\":9976:10066   */\n    tag_129:\n        /* \"#utility.yul\":10010:10017   */\n      0x00\n        /* \"#utility.yul\":10053:10058   */\n      dup2\n        /* \"#utility.yul\":10046:10059   */\n      iszero\n        /* \"#utility.yul\":10039:10060   */\n      iszero\n        /* \"#utility.yul\":10028:10060   */\n      swap1\n      pop\n        /* \"#utility.yul\":9976:10066   */\n      swap2\n      swap1\n      pop\n      jump\t// out\n        /* \"#utility.yul\":10072:10188   */\n    tag_130:\n        /* \"#utility.yul\":10142:10163   */\n      tag_247\n        /* \"#utility.yul\":10157:10162   */\n      dup2\n        /* \"#utility.yul\":10142:10163   */\n      tag_129\n      jump\t// in\n    tag_247:\n        /* \"#utility.yul\":10135:10140   */\n      dup2\n        /* \"#utility.yul\":10132:10164   */\n      eq\n        /* \"#utility.yul\":10122:10182   */\n      tag_248\n      jumpi\n        /* \"#utility.yul\":10178:10179   */\n      0x00\n        /* \"#utility.yul\":10175:10176   */\n      dup1\n        /* \"#utility.yul\":10168:10180   */\n      revert\n        /* \"#utility.yul\":10122:10182   */\n    tag_248:\n        /* \"#utility.yul\":10072:10188   */\n      pop\n      jump\t// out\n        /* \"#utility.yul\":10194:10331   */\n    tag_131:\n        /* \"#utility.yul\":10248:10253   */\n      0x00\n        /* \"#utility.yul\":10279:10285   */\n      dup2\n        /* \"#utility.yul\":10273:10286   */\n      mload\n        /* \"#utility.yul\":10264:10286   */\n      swap1\n      pop\n        /* \"#utility.yul\":10295:10325   */\n      tag_250\n        /* \"#utility.yul\":10319:10324   */\n      dup2\n        /* \"#utility.yul\":10295:10325   */\n      tag_130\n      jump\t// in\n    tag_250:\n        /* \"#utility.yul\":10194:10331   */\n      swap3\n      swap2\n      pop\n      pop\n      jump\t// out\n        /* \"#utility.yul\":10337:10682   */\n    tag_70:\n        /* \"#utility.yul\":10404:10410   */\n      0x00\n        /* \"#utility.yul\":10453:10455   */\n      0x20\n        /* \"#utility.yul\":10441:10450   */\n      dup3\n        /* \"#utility.yul\":10432:10439   */\n      dup5\n        /* \"#utility.yul\":10428:10451   */\n      sub\n        /* \"#utility.yul\":10424:10456   */\n      slt\n        /* \"#utility.yul\":10421:10540   */\n      iszero\n      tag_252\n      jumpi\n        /* \"#utility.yul\":10459:10538   */\n      tag_253\n      tag_104\n      jump\t// in\n    tag_253:\n        /* \"#utility.yul\":10421:10540   */\n    tag_252:\n        /* \"#utility.yul\":10579:10580   */\n      0x00\n        /* \"#utility.yul\":10604:10665   */\n      tag_254\n        /* \"#utility.yul\":10657:10664   */\n      dup5\n        /* \"#utility.yul\":10648:10654   */\n      dup3\n        /* \"#utility.yul\":10637:10646   */\n      dup6\n        /* \"#utility.yul\":10633:10655   */\n      add\n        /* \"#utility.yul\":10604:10665   */\n      tag_131\n      jump\t// in\n    tag_254:\n        /* \"#utility.yul\":10594:10665   */\n      swap2\n      pop\n        /* \"#utility.yul\":10550:10675   */\n      pop\n        /* \"#utility.yul\":10337:10682   */\n      swap3\n      swap2\n      pop\n      pop\n      jump\t// out\n        /* \"#utility.yul\":10688:10786   */\n    tag_132:\n        /* \"#utility.yul\":10739:10745   */\n      0x00\n        /* \"#utility.yul\":10773:10778   */\n      dup2\n        /* \"#utility.yul\":10767:10779   */\n      mload\n        /* \"#utility.yul\":10757:10779   */\n      swap1\n      pop\n        /* \"#utility.yul\":10688:10786   */\n      swap2\n      swap1\n      pop\n      jump\t// out\n        /* \"#utility.yul\":10792:10939   */\n    tag_133:\n        /* \"#utility.yul\":10893:10904   */\n      0x00\n        /* \"#utility.yul\":10930:10933   */\n      dup2\n        /* \"#utility.yul\":10915:10933   */\n      swap1\n      pop\n        /* \"#utility.yul\":10792:10939   */\n      swap3\n      swap2\n      pop\n      pop\n      jump\t// out\n        /* \"#utility.yul\":10945:11084   */\n    tag_134:\n        /* \"#utility.yul\":11034:11040   */\n      dup3\n        /* \"#utility.yul\":11029:11032   */\n      dup2\n        /* \"#utility.yul\":11024:11027   */\n      dup4\n        /* \"#utility.yul\":11018:11041   */\n      mcopy\n        /* \"#utility.yul\":11075:11076   */\n      0x00\n        /* \"#utility.yul\":11066:11072   */\n      dup4\n        /* \"#utility.yul\":11061:11064   */\n      dup4\n        /* \"#utility.yul\":11057:11073   */\n      add\n        /* \"#utility.yul\":11050:11077   */\n      mstore\n        /* \"#utility.yul\":10945:11084   */\n      pop\n      pop\n      pop\n      jump\t// out\n        /* \"#utility.yul\":11090:11476   */\n    tag_135:\n        /* \"#utility.yul\":11194:11197   */\n      0x00\n        /* \"#utility.yul\":11222:11260   */\n      tag_259\n        /* \"#utility.yul\":11254:11259   */\n      dup3\n        /* \"#utility.yul\":11222:11260   */\n      tag_132\n      jump\t// in\n    tag_259:\n        /* \"#utility.yul\":11276:11364   */\n      tag_260\n        /* \"#utility.yul\":11357:11363   */\n      dup2\n        /* \"#utility.yul\":11352:11355   */\n      dup6\n        /* \"#utility.yul\":11276:11364   */\n      tag_133\n      jump\t// in\n    tag_260:\n        /* \"#utility.yul\":11269:11364   */\n      swap4\n      pop\n        /* \"#utility.yul\":11373:11438   */\n      tag_261\n        /* \"#utility.yul\":11431:11437   */\n      dup2\n        /* \"#utility.yul\":11426:11429   */\n      dup6\n        /* \"#utility.yul\":11419:11423   */\n      0x20\n        /* \"#utility.yul\":11412:11417   */\n      dup7\n        /* \"#utility.yul\":11408:11424   */\n      add\n        /* \"#utility.yul\":11373:11438   */\n      tag_134\n      jump\t// in\n    tag_261:\n        /* \"#utility.yul\":11463:11469   */\n      dup1\n        /* \"#utility.yul\":11458:11461   */\n      dup5\n        /* \"#utility.yul\":11454:11470   */\n      add\n        /* \"#utility.yul\":11447:11470   */\n      swap2\n      pop\n        /* \"#utility.yul\":11198:11476   */\n      pop\n        /* \"#utility.yul\":11090:11476   */\n      swap3\n      swap2\n      pop\n      pop\n      jump\t// out\n        /* \"#utility.yul\":11482:11753   */\n    tag_80:\n        /* \"#utility.yul\":11612:11615   */\n      0x00\n        /* \"#utility.yul\":11634:11727   */\n      tag_263\n        /* \"#utility.yul\":11723:11726   */\n      dup3\n        /* \"#utility.yul\":11714:11720   */\n      dup5\n        /* \"#utility.yul\":11634:11727   */\n      tag_135\n      jump\t// in\n    tag_263:\n        /* \"#utility.yul\":11627:11727   */\n      swap2\n      pop\n        /* \"#utility.yul\":11744:11747   */\n      dup2\n        /* \"#utility.yul\":11737:11747   */\n      swap1\n      pop\n        /* \"#utility.yul\":11482:11753   */\n      swap3\n      swap2\n      pop\n      pop\n      jump\t// out\n\n    auxdata: 0xa26469706673582212204df055fae71f3039051bccbe05a3abef3a22bd8d70f10a241010d2a4a3e4871e64736f6c634300081a0033\n}\n",
				"bytecode": {
					"linkReferences": {},
					"object": "6080604052348015600e575f80fd5b50335f806101000a81548173ffffffffffffffffffffffffffffffffffffffff021916908373ffffffffffffffffffffffffffffffffffffffff160217905550610d3a8061005b5f395ff3fe608060405260043610610041575f3560e01c8062f714ce1461009d5780638da5cb5b146100c55780639db5dbe4146100ef578063b69ef8a81461011757610099565b36610099573460015f8282546100579190610787565b925050819055507ff1b03f708b9c39f453fe3f0cef84164c7d6f7df836df0796e1e9c2bce6ee397e333460405161008f929190610808565b60405180910390a1005b5f80fd5b3480156100a8575f80fd5b506100c360048036038101906100be9190610898565b610141565b005b3480156100d0575f80fd5b506100d96102ae565b6040516100e691906108d6565b60405180910390f35b3480156100fa575f80fd5b5061011560048036038101906101109190610954565b6102d1565b005b348015610122575f80fd5b5061012b610488565b60405161013891906109a4565b60405180910390f35b5f8054906101000a900473ffffffffffffffffffffffffffffffffffffffff1673ffffffffffffffffffffffffffffffffffffffff163373ffffffffffffffffffffffffffffffffffffffff16146101ce576040517f08c379a00000000000000000000000000000000000000000000000000000000081526004016101c590610a17565b60405180910390fd5b600154821115610213576040517f08c379a000000000000000000000000000000000000000000000000000000000815260040161020a90610a7f565b60405180910390fd5b8073ffffffffffffffffffffffffffffffffffffffff166108fc8390811502906040515f60405180830381858888f19350505050158015610256573d5f803e3d5ffd5b508160015f8282546102689190610a9d565b925050819055507ffda3a3e0e1479b43cb1c701f7576187f4c4ad80768d627387e00184302f7d88e3382846040516102a293929190610b2b565b60405180910390a15050565b5f8054906101000a900473ffffffffffffffffffffffffffffffffffffffff1681565b5f8054906101000a900473ffffffffffffffffffffffffffffffffffffffff1673ffffffffffffffffffffffffffffffffffffffff163373ffffffffffffffffffffffffffffffffffffffff161461035e576040517f08c379a000000000000000000000000000000000000000000000000000000000815260040161035590610a17565b60405180910390fd5b5f8373ffffffffffffffffffffffffffffffffffffffff166370a08231306040518263ffffffff1660e01b815260040161039891906108d6565b602060405180830381865afa1580156103b3573d5f803e3d5ffd5b505050506040513d601f19601f820116820180604052508101906103d79190610b74565b90508082111561041c576040517f08c379a000000000000000000000000000000000000000000000000000000000815260040161041390610be9565b60405180910390fd5b61044783838673ffffffffffffffffffffffffffffffffffffffff1661048e9092919063ffffffff16565b7f03501c7341fda73ec7c804f841cec1d8d25a04b5a430589f0624026eb1cff37033848460405161047a93929190610c07565b60405180910390a150505050565b60015481565b610508838473ffffffffffffffffffffffffffffffffffffffff1663a9059cbb85856040516024016104c1929190610808565b604051602081830303815290604052915060e01b6020820180517bffffffffffffffffffffffffffffffffffffffffffffffffffffffff838183161783525050505061050d565b505050565b5f610537828473ffffffffffffffffffffffffffffffffffffffff166105a290919063ffffffff16565b90505f81511415801561055b5750808060200190518101906105599190610c71565b155b1561059d57826040517f5274afe700000000000000000000000000000000000000000000000000000000815260040161059491906108d6565b60405180910390fd5b505050565b60606105af83835f6105b7565b905092915050565b6060814710156105fe57306040517fcd7860590000000000000000000000000000000000000000000000000000000081526004016105f591906108d6565b60405180910390fd5b5f808573ffffffffffffffffffffffffffffffffffffffff1684866040516106269190610cee565b5f6040518083038185875af1925050503d805f8114610660576040519150601f19603f3d011682016040523d82523d5f602084013e610665565b606091505b5091509150610675868383610680565b925050509392505050565b606082610695576106908261070d565b610705565b5f82511480156106bb57505f8473ffffffffffffffffffffffffffffffffffffffff163b145b156106fd57836040517f9996b3150000000000000000000000000000000000000000000000000000000081526004016106f491906108d6565b60405180910390fd5b819050610706565b5b9392505050565b5f8151111561071f5780518082602001fd5b6040517f1425ea4200000000000000000000000000000000000000000000000000000000815260040160405180910390fd5b5f819050919050565b7f4e487b71000000000000000000000000000000000000000000000000000000005f52601160045260245ffd5b5f61079182610751565b915061079c83610751565b92508282019050808211156107b4576107b361075a565b5b92915050565b5f73ffffffffffffffffffffffffffffffffffffffff82169050919050565b5f6107e3826107ba565b9050919050565b6107f3816107d9565b82525050565b61080281610751565b82525050565b5f60408201905061081b5f8301856107ea565b61082860208301846107f9565b9392505050565b5f80fd5b61083c81610751565b8114610846575f80fd5b50565b5f8135905061085781610833565b92915050565b5f610867826107ba565b9050919050565b6108778161085d565b8114610881575f80fd5b50565b5f813590506108928161086e565b92915050565b5f80604083850312156108ae576108ad61082f565b5b5f6108bb85828601610849565b92505060206108cc85828601610884565b9150509250929050565b5f6020820190506108e95f8301846107ea565b92915050565b5f6108f9826107d9565b9050919050565b610909816108ef565b8114610913575f80fd5b50565b5f8135905061092481610900565b92915050565b610933816107d9565b811461093d575f80fd5b50565b5f8135905061094e8161092a565b92915050565b5f805f6060848603121561096b5761096a61082f565b5b5f61097886828701610916565b935050602061098986828701610940565b925050604061099a86828701610849565b9150509250925092565b5f6020820190506109b75f8301846107f9565b92915050565b5f82825260208201905092915050565b7f4f6e6c79206f776e65722063616e2077697468647261772066756e64730000005f82015250565b5f610a01601d836109bd565b9150610a0c826109cd565b602082019050919050565b5f6020820190508181035f830152610a2e816109f5565b9050919050565b7f496e73756666696369656e742066756e647300000000000000000000000000005f82015250565b5f610a696012836109bd565b9150610a7482610a35565b602082019050919050565b5f6020820190508181035f830152610a9681610a5d565b9050919050565b5f610aa782610751565b9150610ab283610751565b9250828203905081811115610aca57610ac961075a565b5b92915050565b5f819050919050565b5f610af3610aee610ae9846107ba565b610ad0565b6107ba565b9050919050565b5f610b0482610ad9565b9050919050565b5f610b1582610afa565b9050919050565b610b2581610b0b565b82525050565b5f606082019050610b3e5f8301866107ea565b610b4b6020830185610b1c565b610b5860408301846107f9565b949350505050565b5f81519050610b6e81610833565b92915050565b5f60208284031215610b8957610b8861082f565b5b5f610b9684828501610b60565b91505092915050565b7f42616c616e6365206973206c6f770000000000000000000000000000000000005f82015250565b5f610bd3600e836109bd565b9150610bde82610b9f565b602082019050919050565b5f6020820190508181035f830152610c0081610bc7565b9050919050565b5f606082019050610c1a5f8301866107ea565b610c2760208301856107ea565b610c3460408301846107f9565b949350505050565b5f8115159050919050565b610c5081610c3c565b8114610c5a575f80fd5b50565b5f81519050610c6b81610c47565b92915050565b5f60208284031215610c8657610c8561082f565b5b5f610c9384828501610c5d565b91505092915050565b5f81519050919050565b5f81905092915050565b8281835e5f83830152505050565b5f610cc882610c9c565b610cd28185610ca6565b9350610ce2818560208601610cb0565b80840191505092915050565b5f610cf98284610cbe565b91508190509291505056fea26469706673582212204df055fae71f3039051bccbe05a3abef3a22bd8d70f10a241010d2a4a3e4871e64736f6c634300081a0033",
					"opcodes": "PUSH1 0x80 PUSH1 0x40 MSTORE CALLVALUE DUP1 ISZERO PUSH1 0xE JUMPI PUSH0 DUP1 REVERT JUMPDEST POP CALLER PUSH0 DUP1 PUSH2 0x100 EXP DUP2 SLOAD DUP2 PUSH20 0xFFFFFFFFFFFFFFFFFFFFFFFFFFFFFFFFFFFFFFFF MUL NOT AND SWAP1 DUP4 PUSH20 0xFFFFFFFFFFFFFFFFFFFFFFFFFFFFFFFFFFFFFFFF AND MUL OR SWAP1 SSTORE POP PUSH2 0xD3A DUP1 PUSH2 0x5B PUSH0 CODECOPY PUSH0 RETURN INVALID PUSH1 0x80 PUSH1 0x40 MSTORE PUSH1 0x4 CALLDATASIZE LT PUSH2 0x41 JUMPI PUSH0 CALLDATALOAD PUSH1 0xE0 SHR DUP1 PUSH3 0xF714CE EQ PUSH2 0x9D JUMPI DUP1 PUSH4 0x8DA5CB5B EQ PUSH2 0xC5 JUMPI DUP1 PUSH4 0x9DB5DBE4 EQ PUSH2 0xEF JUMPI DUP1 PUSH4 0xB69EF8A8 EQ PUSH2 0x117 JUMPI PUSH2 0x99 JUMP JUMPDEST CALLDATASIZE PUSH2 0x99 JUMPI CALLVALUE PUSH1 0x1 PUSH0 DUP3 DUP3 SLOAD PUSH2 0x57 SWAP2 SWAP1 PUSH2 0x787 JUMP JUMPDEST SWAP3 POP POP DUP2 SWAP1 SSTORE POP PUSH32 0xF1B03F708B9C39F453FE3F0CEF84164C7D6F7DF836DF0796E1E9C2BCE6EE397E CALLER CALLVALUE PUSH1 0x40 MLOAD PUSH2 0x8F SWAP3 SWAP2 SWAP1 PUSH2 0x808 JUMP JUMPDEST PUSH1 0x40 MLOAD DUP1 SWAP2 SUB SWAP1 LOG1 STOP JUMPDEST PUSH0 DUP1 REVERT JUMPDEST CALLVALUE DUP1 ISZERO PUSH2 0xA8 JUMPI PUSH0 DUP1 REVERT JUMPDEST POP PUSH2 0xC3 PUSH1 0x4 DUP1 CALLDATASIZE SUB DUP2 ADD SWAP1 PUSH2 0xBE SWAP2 SWAP1 PUSH2 0x898 JUMP JUMPDEST PUSH2 0x141 JUMP JUMPDEST STOP JUMPDEST CALLVALUE DUP1 ISZERO PUSH2 0xD0 JUMPI PUSH0 DUP1 REVERT JUMPDEST POP PUSH2 0xD9 PUSH2 0x2AE JUMP JUMPDEST PUSH1 0x40 MLOAD PUSH2 0xE6 SWAP2 SWAP1 PUSH2 0x8D6 JUMP JUMPDEST PUSH1 0x40 MLOAD DUP1 SWAP2 SUB SWAP1 RETURN JUMPDEST CALLVALUE DUP1 ISZERO PUSH2 0xFA JUMPI PUSH0 DUP1 REVERT JUMPDEST POP PUSH2 0x115 PUSH1 0x4 DUP1 CALLDATASIZE SUB DUP2 ADD SWAP1 PUSH2 0x110 SWAP2 SWAP1 PUSH2 0x954 JUMP JUMPDEST PUSH2 0x2D1 JUMP JUMPDEST STOP JUMPDEST CALLVALUE DUP1 ISZERO PUSH2 0x122 JUMPI PUSH0 DUP1 REVERT JUMPDEST POP PUSH2 0x12B PUSH2 0x488 JUMP JUMPDEST PUSH1 0x40 MLOAD PUSH2 0x138 SWAP2 SWAP1 PUSH2 0x9A4 JUMP JUMPDEST PUSH1 0x40 MLOAD DUP1 SWAP2 SUB SWAP1 RETURN JUMPDEST PUSH0 DUP1 SLOAD SWAP1 PUSH2 0x100 EXP SWAP1 DIV PUSH20 0xFFFFFFFFFFFFFFFFFFFFFFFFFFFFFFFFFFFFFFFF AND PUSH20 0xFFFFFFFFFFFFFFFFFFFFFFFFFFFFFFFFFFFFFFFF AND CALLER PUSH20 0xFFFFFFFFFFFFFFFFFFFFFFFFFFFFFFFFFFFFFFFF AND EQ PUSH2 0x1CE JUMPI PUSH1 0x40 MLOAD PUSH32 0x8C379A000000000000000000000000000000000000000000000000000000000 DUP2 MSTORE PUSH1 0x4 ADD PUSH2 0x1C5 SWAP1 PUSH2 0xA17 JUMP JUMPDEST PUSH1 0x40 MLOAD DUP1 SWAP2 SUB SWAP1 REVERT JUMPDEST PUSH1 0x1 SLOAD DUP3 GT ISZERO PUSH2 0x213 JUMPI PUSH1 0x40 MLOAD PUSH32 0x8C379A000000000000000000000000000000000000000000000000000000000 DUP2 MSTORE PUSH1 0x4 ADD PUSH2 0x20A SWAP1 PUSH2 0xA7F JUMP JUMPDEST PUSH1 0x40 MLOAD DUP1 SWAP2 SUB SWAP1 REVERT JUMPDEST DUP1 PUSH20 0xFFFFFFFFFFFFFFFFFFFFFFFFFFFFFFFFFFFFFFFF AND PUSH2 0x8FC DUP4 SWAP1 DUP2 ISZERO MUL SWAP1 PUSH1 0x40 MLOAD PUSH0 PUSH1 0x40 MLOAD DUP1 DUP4 SUB DUP2 DUP6 DUP9 DUP9 CALL SWAP4 POP POP POP POP ISZERO DUP1 ISZERO PUSH2 0x256 JUMPI RETURNDATASIZE PUSH0 DUP1 RETURNDATACOPY RETURNDATASIZE PUSH0 REVERT JUMPDEST POP DUP2 PUSH1 0x1 PUSH0 DUP3 DUP3 SLOAD PUSH2 0x268 SWAP2 SWAP1 PUSH2 0xA9D JUMP JUMPDEST SWAP3 POP POP DUP2 SWAP1 SSTORE POP PUSH32 0xFDA3A3E0E1479B43CB1C701F7576187F4C4AD80768D627387E00184302F7D88E CALLER DUP3 DUP5 PUSH1 0x40 MLOAD PUSH2 0x2A2 SWAP4 SWAP3 SWAP2 SWAP1 PUSH2 0xB2B JUMP JUMPDEST PUSH1 0x40 MLOAD DUP1 SWAP2 SUB SWAP1 LOG1 POP POP JUMP JUMPDEST PUSH0 DUP1 SLOAD SWAP1 PUSH2 0x100 EXP SWAP1 DIV PUSH20 0xFFFFFFFFFFFFFFFFFFFFFFFFFFFFFFFFFFFFFFFF AND DUP2 JUMP JUMPDEST PUSH0 DUP1 SLOAD SWAP1 PUSH2 0x100 EXP SWAP1 DIV PUSH20 0xFFFFFFFFFFFFFFFFFFFFFFFFFFFFFFFFFFFFFFFF AND PUSH20 0xFFFFFFFFFFFFFFFFFFFFFFFFFFFFFFFFFFFFFFFF AND CALLER PUSH20 0xFFFFFFFFFFFFFFFFFFFFFFFFFFFFFFFFFFFFFFFF AND EQ PUSH2 0x35E JUMPI PUSH1 0x40 MLOAD PUSH32 0x8C379A000000000000000000000000000000000000000000000000000000000 DUP2 MSTORE PUSH1 0x4 ADD PUSH2 0x355 SWAP1 PUSH2 0xA17 JUMP JUMPDEST PUSH1 0x40 MLOAD DUP1 SWAP2 SUB SWAP1 REVERT JUMPDEST PUSH0 DUP4 PUSH20 0xFFFFFFFFFFFFFFFFFFFFFFFFFFFFFFFFFFFFFFFF AND PUSH4 0x70A08231 ADDRESS PUSH1 0x40 MLOAD DUP3 PUSH4 0xFFFFFFFF AND PUSH1 0xE0 SHL DUP2 MSTORE PUSH1 0x4 ADD PUSH2 0x398 SWAP2 SWAP1 PUSH2 0x8D6 JUMP JUMPDEST PUSH1 0x20 PUSH1 0x40 MLOAD DUP1 DUP4 SUB DUP2 DUP7 GAS STATICCALL ISZERO DUP1 ISZERO PUSH2 0x3B3 JUMPI RETURNDATASIZE PUSH0 DUP1 RETURNDATACOPY RETURNDATASIZE PUSH0 REVERT JUMPDEST POP POP POP POP PUSH1 0x40 MLOAD RETURNDATASIZE PUSH1 0x1F NOT PUSH1 0x1F DUP3 ADD AND DUP3 ADD DUP1 PUSH1 0x40 MSTORE POP DUP2 ADD SWAP1 PUSH2 0x3D7 SWAP2 SWAP1 PUSH2 0xB74 JUMP JUMPDEST SWAP1 POP DUP1 DUP3 GT ISZERO PUSH2 0x41C JUMPI PUSH1 0x40 MLOAD PUSH32 0x8C379A000000000000000000000000000000000000000000000000000000000 DUP2 MSTORE PUSH1 0x4 ADD PUSH2 0x413 SWAP1 PUSH2 0xBE9 JUMP JUMPDEST PUSH1 0x40 MLOAD DUP1 SWAP2 SUB SWAP1 REVERT JUMPDEST PUSH2 0x447 DUP4 DUP4 DUP7 PUSH20 0xFFFFFFFFFFFFFFFFFFFFFFFFFFFFFFFFFFFFFFFF AND PUSH2 0x48E SWAP1 SWAP3 SWAP2 SWAP1 PUSH4 0xFFFFFFFF AND JUMP JUMPDEST PUSH32 0x3501C7341FDA73EC7C804F841CEC1D8D25A04B5A430589F0624026EB1CFF370 CALLER DUP5 DUP5 PUSH1 0x40 MLOAD PUSH2 0x47A SWAP4 SWAP3 SWAP2 SWAP1 PUSH2 0xC07 JUMP JUMPDEST PUSH1 0x40 MLOAD DUP1 SWAP2 SUB SWAP1 LOG1 POP POP POP POP JUMP JUMPDEST PUSH1 0x1 SLOAD DUP2 JUMP JUMPDEST PUSH2 0x508 DUP4 DUP5 PUSH20 0xFFFFFFFFFFFFFFFFFFFFFFFFFFFFFFFFFFFFFFFF AND PUSH4 0xA9059CBB DUP6 DUP6 PUSH1 0x40 MLOAD PUSH1 0x24 ADD PUSH2 0x4C1 SWAP3 SWAP2 SWAP1 PUSH2 0x808 JUMP JUMPDEST PUSH1 0x40 MLOAD PUSH1 0x20 DUP2 DUP4 SUB SUB DUP2 MSTORE SWAP1 PUSH1 0x40 MSTORE SWAP2 POP PUSH1 0xE0 SHL PUSH1 0x20 DUP3 ADD DUP1 MLOAD PUSH28 0xFFFFFFFFFFFFFFFFFFFFFFFFFFFFFFFFFFFFFFFFFFFFFFFFFFFFFFFF DUP4 DUP2 DUP4 AND OR DUP4 MSTORE POP POP POP POP PUSH2 0x50D JUMP JUMPDEST POP POP POP JUMP JUMPDEST PUSH0 PUSH2 0x537 DUP3 DUP5 PUSH20 0xFFFFFFFFFFFFFFFFFFFFFFFFFFFFFFFFFFFFFFFF AND PUSH2 0x5A2 SWAP1 SWAP2 SWAP1 PUSH4 0xFFFFFFFF AND JUMP JUMPDEST SWAP1 POP PUSH0 DUP2 MLOAD EQ ISZERO DUP1 ISZERO PUSH2 0x55B JUMPI POP DUP1 DUP1 PUSH1 0x20 ADD SWAP1 MLOAD DUP2 ADD SWAP1 PUSH2 0x559 SWAP2 SWAP1 PUSH2 0xC71 JUMP JUMPDEST ISZERO JUMPDEST ISZERO PUSH2 0x59D JUMPI DUP3 PUSH1 0x40 MLOAD PUSH32 0x5274AFE700000000000000000000000000000000000000000000000000000000 DUP2 MSTORE PUSH1 0x4 ADD PUSH2 0x594 SWAP2 SWAP1 PUSH2 0x8D6 JUMP JUMPDEST PUSH1 0x40 MLOAD DUP1 SWAP2 SUB SWAP1 REVERT JUMPDEST POP POP POP JUMP JUMPDEST PUSH1 0x60 PUSH2 0x5AF DUP4 DUP4 PUSH0 PUSH2 0x5B7 JUMP JUMPDEST SWAP1 POP SWAP3 SWAP2 POP POP JUMP JUMPDEST PUSH1 0x60 DUP2 SELFBALANCE LT ISZERO PUSH2 0x5FE JUMPI ADDRESS PUSH1 0x40 MLOAD PUSH32 0xCD78605900000000000000000000000000000000000000000000000000000000 DUP2 MSTORE PUSH1 0x4 ADD PUSH2 0x5F5 SWAP2 SWAP1 PUSH2 0x8D6 JUMP JUMPDEST PUSH1 0x40 MLOAD DUP1 SWAP2 SUB SWAP1 REVERT JUMPDEST PUSH0 DUP1 DUP6 PUSH20 0xFFFFFFFFFFFFFFFFFFFFFFFFFFFFFFFFFFFFFFFF AND DUP5 DUP7 PUSH1 0x40 MLOAD PUSH2 0x626 SWAP2 SWAP1 PUSH2 0xCEE JUMP JUMPDEST PUSH0 PUSH1 0x40 MLOAD DUP1 DUP4 SUB DUP2 DUP6 DUP8 GAS CALL SWAP3 POP POP POP RETURNDATASIZE DUP1 PUSH0 DUP2 EQ PUSH2 0x660 JUMPI PUSH1 0x40 MLOAD SWAP2 POP PUSH1 0x1F NOT PUSH1 0x3F RETURNDATASIZE ADD AND DUP3 ADD PUSH1 0x40 MSTORE RETURNDATASIZE DUP3 MSTORE RETURNDATASIZE PUSH0 PUSH1 0x20 DUP5 ADD RETURNDATACOPY PUSH2 0x665 JUMP JUMPDEST PUSH1 0x60 SWAP2 POP JUMPDEST POP SWAP2 POP SWAP2 POP PUSH2 0x675 DUP7 DUP4 DUP4 PUSH2 0x680 JUMP JUMPDEST SWAP3 POP POP POP SWAP4 SWAP3 POP POP POP JUMP JUMPDEST PUSH1 0x60 DUP3 PUSH2 0x695 JUMPI PUSH2 0x690 DUP3 PUSH2 0x70D JUMP JUMPDEST PUSH2 0x705 JUMP JUMPDEST PUSH0 DUP3 MLOAD EQ DUP1 ISZERO PUSH2 0x6BB JUMPI POP PUSH0 DUP5 PUSH20 0xFFFFFFFFFFFFFFFFFFFFFFFFFFFFFFFFFFFFFFFF AND EXTCODESIZE EQ JUMPDEST ISZERO PUSH2 0x6FD JUMPI DUP4 PUSH1 0x40 MLOAD PUSH32 0x9996B31500000000000000000000000000000000000000000000000000000000 DUP2 MSTORE PUSH1 0x4 ADD PUSH2 0x6F4 SWAP2 SWAP1 PUSH2 0x8D6 JUMP JUMPDEST PUSH1 0x40 MLOAD DUP1 SWAP2 SUB SWAP1 REVERT JUMPDEST DUP2 SWAP1 POP PUSH2 0x706 JUMP JUMPDEST JUMPDEST SWAP4 SWAP3 POP POP POP JUMP JUMPDEST PUSH0 DUP2 MLOAD GT ISZERO PUSH2 0x71F JUMPI DUP1 MLOAD DUP1 DUP3 PUSH1 0x20 ADD REVERT JUMPDEST PUSH1 0x40 MLOAD PUSH32 0x1425EA4200000000000000000000000000000000000000000000000000000000 DUP2 MSTORE PUSH1 0x4 ADD PUSH1 0x40 MLOAD DUP1 SWAP2 SUB SWAP1 REVERT JUMPDEST PUSH0 DUP2 SWAP1 POP SWAP2 SWAP1 POP JUMP JUMPDEST PUSH32 0x4E487B7100000000000000000000000000000000000000000000000000000000 PUSH0 MSTORE PUSH1 0x11 PUSH1 0x4 MSTORE PUSH1 0x24 PUSH0 REVERT JUMPDEST PUSH0 PUSH2 0x791 DUP3 PUSH2 0x751 JUMP JUMPDEST SWAP2 POP PUSH2 0x79C DUP4 PUSH2 0x751 JUMP JUMPDEST SWAP3 POP DUP3 DUP3 ADD SWAP1 POP DUP1 DUP3 GT ISZERO PUSH2 0x7B4 JUMPI PUSH2 0x7B3 PUSH2 0x75A JUMP JUMPDEST JUMPDEST SWAP3 SWAP2 POP POP JUMP JUMPDEST PUSH0 PUSH20 0xFFFFFFFFFFFFFFFFFFFFFFFFFFFFFFFFFFFFFFFF DUP3 AND SWAP1 POP SWAP2 SWAP1 POP JUMP JUMPDEST PUSH0 PUSH2 0x7E3 DUP3 PUSH2 0x7BA JUMP JUMPDEST SWAP1 POP SWAP2 SWAP1 POP JUMP JUMPDEST PUSH2 0x7F3 DUP2 PUSH2 0x7D9 JUMP JUMPDEST DUP3 MSTORE POP POP JUMP JUMPDEST PUSH2 0x802 DUP2 PUSH2 0x751 JUMP JUMPDEST DUP3 MSTORE POP POP JUMP JUMPDEST PUSH0 PUSH1 0x40 DUP3 ADD SWAP1 POP PUSH2 0x81B PUSH0 DUP4 ADD DUP6 PUSH2 0x7EA JUMP JUMPDEST PUSH2 0x828 PUSH1 0x20 DUP4 ADD DUP5 PUSH2 0x7F9 JUMP JUMPDEST SWAP4 SWAP3 POP POP POP JUMP JUMPDEST PUSH0 DUP1 REVERT JUMPDEST PUSH2 0x83C DUP2 PUSH2 0x751 JUMP JUMPDEST DUP2 EQ PUSH2 0x846 JUMPI PUSH0 DUP1 REVERT JUMPDEST POP JUMP JUMPDEST PUSH0 DUP2 CALLDATALOAD SWAP1 POP PUSH2 0x857 DUP2 PUSH2 0x833 JUMP JUMPDEST SWAP3 SWAP2 POP POP JUMP JUMPDEST PUSH0 PUSH2 0x867 DUP3 PUSH2 0x7BA JUMP JUMPDEST SWAP1 POP SWAP2 SWAP1 POP JUMP JUMPDEST PUSH2 0x877 DUP2 PUSH2 0x85D JUMP JUMPDEST DUP2 EQ PUSH2 0x881 JUMPI PUSH0 DUP1 REVERT JUMPDEST POP JUMP JUMPDEST PUSH0 DUP2 CALLDATALOAD SWAP1 POP PUSH2 0x892 DUP2 PUSH2 0x86E JUMP JUMPDEST SWAP3 SWAP2 POP POP JUMP JUMPDEST PUSH0 DUP1 PUSH1 0x40 DUP4 DUP6 SUB SLT ISZERO PUSH2 0x8AE JUMPI PUSH2 0x8AD PUSH2 0x82F JUMP JUMPDEST JUMPDEST PUSH0 PUSH2 0x8BB DUP6 DUP3 DUP7 ADD PUSH2 0x849 JUMP JUMPDEST SWAP3 POP POP PUSH1 0x20 PUSH2 0x8CC DUP6 DUP3 DUP7 ADD PUSH2 0x884 JUMP JUMPDEST SWAP2 POP POP SWAP3 POP SWAP3 SWAP1 POP JUMP JUMPDEST PUSH0 PUSH1 0x20 DUP3 ADD SWAP1 POP PUSH2 0x8E9 PUSH0 DUP4 ADD DUP5 PUSH2 0x7EA JUMP JUMPDEST SWAP3 SWAP2 POP POP JUMP JUMPDEST PUSH0 PUSH2 0x8F9 DUP3 PUSH2 0x7D9 JUMP JUMPDEST SWAP1 POP SWAP2 SWAP1 POP JUMP JUMPDEST PUSH2 0x909 DUP2 PUSH2 0x8EF JUMP JUMPDEST DUP2 EQ PUSH2 0x913 JUMPI PUSH0 DUP1 REVERT JUMPDEST POP JUMP JUMPDEST PUSH0 DUP2 CALLDATALOAD SWAP1 POP PUSH2 0x924 DUP2 PUSH2 0x900 JUMP JUMPDEST SWAP3 SWAP2 POP POP JUMP JUMPDEST PUSH2 0x933 DUP2 PUSH2 0x7D9 JUMP JUMPDEST DUP2 EQ PUSH2 0x93D JUMPI PUSH0 DUP1 REVERT JUMPDEST POP JUMP JUMPDEST PUSH0 DUP2 CALLDATALOAD SWAP1 POP PUSH2 0x94E DUP2 PUSH2 0x92A JUMP JUMPDEST SWAP3 SWAP2 POP POP JUMP JUMPDEST PUSH0 DUP1 PUSH0 PUSH1 0x60 DUP5 DUP7 SUB SLT ISZERO PUSH2 0x96B JUMPI PUSH2 0x96A PUSH2 0x82F JUMP JUMPDEST JUMPDEST PUSH0 PUSH2 0x978 DUP7 DUP3 DUP8 ADD PUSH2 0x916 JUMP JUMPDEST SWAP4 POP POP PUSH1 0x20 PUSH2 0x989 DUP7 DUP3 DUP8 ADD PUSH2 0x940 JUMP JUMPDEST SWAP3 POP POP PUSH1 0x40 PUSH2 0x99A DUP7 DUP3 DUP8 ADD PUSH2 0x849 JUMP JUMPDEST SWAP2 POP POP SWAP3 POP SWAP3 POP SWAP3 JUMP JUMPDEST PUSH0 PUSH1 0x20 DUP3 ADD SWAP1 POP PUSH2 0x9B7 PUSH0 DUP4 ADD DUP5 PUSH2 0x7F9 JUMP JUMPDEST SWAP3 SWAP2 POP POP JUMP JUMPDEST PUSH0 DUP3 DUP3 MSTORE PUSH1 0x20 DUP3 ADD SWAP1 POP SWAP3 SWAP2 POP POP JUMP JUMPDEST PUSH32 0x4F6E6C79206F776E65722063616E2077697468647261772066756E6473000000 PUSH0 DUP3 ADD MSTORE POP JUMP JUMPDEST PUSH0 PUSH2 0xA01 PUSH1 0x1D DUP4 PUSH2 0x9BD JUMP JUMPDEST SWAP2 POP PUSH2 0xA0C DUP3 PUSH2 0x9CD JUMP JUMPDEST PUSH1 0x20 DUP3 ADD SWAP1 POP SWAP2 SWAP1 POP JUMP JUMPDEST PUSH0 PUSH1 0x20 DUP3 ADD SWAP1 POP DUP2 DUP2 SUB PUSH0 DUP4 ADD MSTORE PUSH2 0xA2E DUP2 PUSH2 0x9F5 JUMP JUMPDEST SWAP1 POP SWAP2 SWAP1 POP JUMP JUMPDEST PUSH32 0x496E73756666696369656E742066756E64730000000000000000000000000000 PUSH0 DUP3 ADD MSTORE POP JUMP JUMPDEST PUSH0 PUSH2 0xA69 PUSH1 0x12 DUP4 PUSH2 0x9BD JUMP JUMPDEST SWAP2 POP PUSH2 0xA74 DUP3 PUSH2 0xA35 JUMP JUMPDEST PUSH1 0x20 DUP3 ADD SWAP1 POP SWAP2 SWAP1 POP JUMP JUMPDEST PUSH0 PUSH1 0x20 DUP3 ADD SWAP1 POP DUP2 DUP2 SUB PUSH0 DUP4 ADD MSTORE PUSH2 0xA96 DUP2 PUSH2 0xA5D JUMP JUMPDEST SWAP1 POP SWAP2 SWAP1 POP JUMP JUMPDEST PUSH0 PUSH2 0xAA7 DUP3 PUSH2 0x751 JUMP JUMPDEST SWAP2 POP PUSH2 0xAB2 DUP4 PUSH2 0x751 JUMP JUMPDEST SWAP3 POP DUP3 DUP3 SUB SWAP1 POP DUP2 DUP2 GT ISZERO PUSH2 0xACA JUMPI PUSH2 0xAC9 PUSH2 0x75A JUMP JUMPDEST JUMPDEST SWAP3 SWAP2 POP POP JUMP JUMPDEST PUSH0 DUP2 SWAP1 POP SWAP2 SWAP1 POP JUMP JUMPDEST PUSH0 PUSH2 0xAF3 PUSH2 0xAEE PUSH2 0xAE9 DUP5 PUSH2 0x7BA JUMP JUMPDEST PUSH2 0xAD0 JUMP JUMPDEST PUSH2 0x7BA JUMP JUMPDEST SWAP1 POP SWAP2 SWAP1 POP JUMP JUMPDEST PUSH0 PUSH2 0xB04 DUP3 PUSH2 0xAD9 JUMP JUMPDEST SWAP1 POP SWAP2 SWAP1 POP JUMP JUMPDEST PUSH0 PUSH2 0xB15 DUP3 PUSH2 0xAFA JUMP JUMPDEST SWAP1 POP SWAP2 SWAP1 POP JUMP JUMPDEST PUSH2 0xB25 DUP2 PUSH2 0xB0B JUMP JUMPDEST DUP3 MSTORE POP POP JUMP JUMPDEST PUSH0 PUSH1 0x60 DUP3 ADD SWAP1 POP PUSH2 0xB3E PUSH0 DUP4 ADD DUP7 PUSH2 0x7EA JUMP JUMPDEST PUSH2 0xB4B PUSH1 0x20 DUP4 ADD DUP6 PUSH2 0xB1C JUMP JUMPDEST PUSH2 0xB58 PUSH1 0x40 DUP4 ADD DUP5 PUSH2 0x7F9 JUMP JUMPDEST SWAP5 SWAP4 POP POP POP POP JUMP JUMPDEST PUSH0 DUP2 MLOAD SWAP1 POP PUSH2 0xB6E DUP2 PUSH2 0x833 JUMP JUMPDEST SWAP3 SWAP2 POP POP JUMP JUMPDEST PUSH0 PUSH1 0x20 DUP3 DUP5 SUB SLT ISZERO PUSH2 0xB89 JUMPI PUSH2 0xB88 PUSH2 0x82F JUMP JUMPDEST JUMPDEST PUSH0 PUSH2 0xB96 DUP5 DUP3 DUP6 ADD PUSH2 0xB60 JUMP JUMPDEST SWAP2 POP POP SWAP3 SWAP2 POP POP JUMP JUMPDEST PUSH32 0x42616C616E6365206973206C6F77000000000000000000000000000000000000 PUSH0 DUP3 ADD MSTORE POP JUMP JUMPDEST PUSH0 PUSH2 0xBD3 PUSH1 0xE DUP4 PUSH2 0x9BD JUMP JUMPDEST SWAP2 POP PUSH2 0xBDE DUP3 PUSH2 0xB9F JUMP JUMPDEST PUSH1 0x20 DUP3 ADD SWAP1 POP SWAP2 SWAP1 POP JUMP JUMPDEST PUSH0 PUSH1 0x20 DUP3 ADD SWAP1 POP DUP2 DUP2 SUB PUSH0 DUP4 ADD MSTORE PUSH2 0xC00 DUP2 PUSH2 0xBC7 JUMP JUMPDEST SWAP1 POP SWAP2 SWAP1 POP JUMP JUMPDEST PUSH0 PUSH1 0x60 DUP3 ADD SWAP1 POP PUSH2 0xC1A PUSH0 DUP4 ADD DUP7 PUSH2 0x7EA JUMP JUMPDEST PUSH2 0xC27 PUSH1 0x20 DUP4 ADD DUP6 PUSH2 0x7EA JUMP JUMPDEST PUSH2 0xC34 PUSH1 0x40 DUP4 ADD DUP5 PUSH2 0x7F9 JUMP JUMPDEST SWAP5 SWAP4 POP POP POP POP JUMP JUMPDEST PUSH0 DUP2 ISZERO ISZERO SWAP1 POP SWAP2 SWAP1 POP JUMP JUMPDEST PUSH2 0xC50 DUP2 PUSH2 0xC3C JUMP JUMPDEST DUP2 EQ PUSH2 0xC5A JUMPI PUSH0 DUP1 REVERT JUMPDEST POP JUMP JUMPDEST PUSH0 DUP2 MLOAD SWAP1 POP PUSH2 0xC6B DUP2 PUSH2 0xC47 JUMP JUMPDEST SWAP3 SWAP2 POP POP JUMP JUMPDEST PUSH0 PUSH1 0x20 DUP3 DUP5 SUB SLT ISZERO PUSH2 0xC86 JUMPI PUSH2 0xC85 PUSH2 0x82F JUMP JUMPDEST JUMPDEST PUSH0 PUSH2 0xC93 DUP5 DUP3 DUP6 ADD PUSH2 0xC5D JUMP JUMPDEST SWAP2 POP POP SWAP3 SWAP2 POP POP JUMP JUMPDEST PUSH0 DUP2 MLOAD SWAP1 POP SWAP2 SWAP1 POP JUMP JUMPDEST PUSH0 DUP2 SWAP1 POP SWAP3 SWAP2 POP POP JUMP JUMPDEST DUP3 DUP2 DUP4 MCOPY PUSH0 DUP4 DUP4 ADD MSTORE POP POP POP JUMP JUMPDEST PUSH0 PUSH2 0xCC8 DUP3 PUSH2 0xC9C JUMP JUMPDEST PUSH2 0xCD2 DUP2 DUP6 PUSH2 0xCA6 JUMP JUMPDEST SWAP4 POP PUSH2 0xCE2 DUP2 DUP6 PUSH1 0x20 DUP7 ADD PUSH2 0xCB0 JUMP JUMPDEST DUP1 DUP5 ADD SWAP2 POP POP SWAP3 SWAP2 POP POP JUMP JUMPDEST PUSH0 PUSH2 0xCF9 DUP3 DUP5 PUSH2 0xCBE JUMP JUMPDEST SWAP2 POP DUP2 SWAP1 POP SWAP3 SWAP2 POP POP JUMP INVALID LOG2 PUSH5 0x6970667358 0x22 SLT KECCAK256 0x4D CREATE SSTORE STATICCALL 0xE7 0x1F ADDRESS CODECOPY SDIV SHL 0xCC 0xBE SDIV LOG3 0xAB 0xEF GASPRICE 0x22 0xBD DUP14 PUSH17 0xF10A241010D2A4A3E4871E64736F6C6343 STOP ADDMOD BYTE STOP CALLER "
				},
				"gasEstimates": {
					"creation": {
						"codeDepositCost": "677200",
						"executionCost": "24971",
						"totalCost": "702171"
					},
					"external": {
						"balance()": "2469",
						"owner()": "2505",
						"transferERC20(address,address,uint256)": "infinite",
						"withdraw(uint256,address)": "infinite"
					}
				},
				"methodIdentifiers": {
					"balance()": "b69ef8a8",
					"owner()": "8da5cb5b",
					"transferERC20(address,address,uint256)": "9db5dbe4",
					"withdraw(uint256,address)": "00f714ce"
				}
			},
			"storageLayout": {
				"storage": [
					{
						"astId": 666,
						"contract": "contracts/transfer.sol:FeeCollector",
						"label": "owner",
						"offset": 0,
						"slot": "0",
						"type": "t_address"
					},
					{
						"astId": 668,
						"contract": "contracts/transfer.sol:FeeCollector",
						"label": "balance",
						"offset": 0,
						"slot": "1",
						"type": "t_uint256"
					}
				],
				"types": {
					"t_address": {
						"encoding": "inplace",
						"label": "address",
						"numberOfBytes": "20"
					},
					"t_uint256": {
						"encoding": "inplace",
						"label": "uint256",
						"numberOfBytes": "32"
					}
				}
			},
			"userdoc": {
				"kind": "user",
				"methods": {},
				"version": 1
			}
		}
	}
}