{
	"contracts/contract.sol": {
		"Contract": {
			"abi": [
				{
					"inputs": [],
					"stateMutability": "nonpayable",
					"type": "constructor"
				},
				{
					"inputs": [
						{
							"internalType": "uint256",
							"name": "",
							"type": "uint256"
						}
					],
					"name": "DrIDs",
					"outputs": [
						{
							"internalType": "address",
							"name": "",
							"type": "address"
						}
					],
					"stateMutability": "view",
					"type": "function"
				},
				{
					"inputs": [
						{
							"internalType": "address",
							"name": "dr_id",
							"type": "address"
						},
						{
							"internalType": "string",
							"name": "_drInfo_hash",
							"type": "string"
						}
					],
					"name": "addDrInfo",
					"outputs": [],
					"stateMutability": "nonpayable",
					"type": "function"
				},
				{
					"inputs": [],
					"name": "getAllDrs",
					"outputs": [
						{
							"internalType": "address[]",
							"name": "",
							"type": "address[]"
						}
					],
					"stateMutability": "view",
					"type": "function"
				},
				{
					"inputs": [
						{
							"internalType": "address",
							"name": "_id",
							"type": "address"
						}
					],
					"name": "getDr",
					"outputs": [
						{
							"internalType": "string",
							"name": "",
							"type": "string"
						}
					],
					"stateMutability": "view",
					"type": "function"
				},
				{
					"inputs": [],
					"name": "isAdmin",
					"outputs": [
						{
							"internalType": "bool",
							"name": "",
							"type": "bool"
						}
					],
					"stateMutability": "view",
					"type": "function"
				},
				{
					"inputs": [
						{
							"internalType": "address",
							"name": "id",
							"type": "address"
						}
					],
					"name": "isDr",
					"outputs": [
						{
							"internalType": "bool",
							"name": "",
							"type": "bool"
						}
					],
					"stateMutability": "view",
					"type": "function"
				}
			],
			"devdoc": {
				"kind": "dev",
				"methods": {},
				"version": 1
			},
			"evm": {
				"assembly": "    /* \"contracts/contract.sol\":85:1074  contract Contract {... */\n  mstore(0x40, 0x80)\n    /* \"contracts/contract.sol\":335:383  constructor() {... */\n  callvalue\n  dup1\n  iszero\n  tag_1\n  jumpi\n  0x00\n  dup1\n  revert\ntag_1:\n  pop\n    /* \"contracts/contract.sol\":356:377  admin.add(msg.sender) */\n  tag_4\n    /* \"contracts/contract.sol\":366:376  msg.sender */\n  caller\n    /* \"contracts/contract.sol\":356:361  admin */\n  0x00\n    /* \"contracts/contract.sol\":356:365  admin.add */\n  shl(0x20, tag_5)\n  swap1\n    /* \"contracts/contract.sol\":356:377  admin.add(msg.sender) */\n  swap2\n  swap1\n  0x20\n  shr\n  jump\t// in\ntag_4:\n    /* \"contracts/contract.sol\":85:1074  contract Contract {... */\n  jump(tag_6)\n    /* \"contracts/Roles.sol\":159:337  function add(Role storage role, address account) internal {... */\ntag_5:\n    /* \"contracts/Roles.sol\":237:255  has(role, account) */\n  tag_8\n    /* \"contracts/Roles.sol\":241:245  role */\n  dup3\n    /* \"contracts/Roles.sol\":247:254  account */\n  dup3\n    /* \"contracts/Roles.sol\":237:240  has */\n  shl(0x20, tag_9)\n    /* \"contracts/Roles.sol\":237:255  has(role, account) */\n  0x20\n  shr\n  jump\t// in\ntag_8:\n    /* \"contracts/Roles.sol\":236:255  !has(role, account) */\n  iszero\n    /* \"contracts/Roles.sol\":228:291  require(!has(role, account), \"Roles: account already has role\") */\n  tag_10\n  jumpi\n  mload(0x40)\n  0x08c379a000000000000000000000000000000000000000000000000000000000\n  dup2\n  mstore\n  0x04\n  add\n  tag_11\n  swap1\n  tag_12\n  jump\t// in\ntag_11:\n  mload(0x40)\n  dup1\n  swap2\n  sub\n  swap1\n  revert\ntag_10:\n    /* \"contracts/Roles.sol\":325:329  true */\n  0x01\n    /* \"contracts/Roles.sol\":302:306  role */\n  dup3\n    /* \"contracts/Roles.sol\":302:313  role.bearer */\n  0x00\n  add\n    /* \"contracts/Roles.sol\":302:322  role.bearer[account] */\n  0x00\n    /* \"contracts/Roles.sol\":314:321  account */\n  dup4\n    /* \"contracts/Roles.sol\":302:322  role.bearer[account] */\n  0xffffffffffffffffffffffffffffffffffffffff\n  and\n  0xffffffffffffffffffffffffffffffffffffffff\n  and\n  dup2\n  mstore\n  0x20\n  add\n  swap1\n  dup2\n  mstore\n  0x20\n  add\n  0x00\n  keccak256\n  0x00\n    /* \"contracts/Roles.sol\":302:329  role.bearer[account] = true */\n  0x0100\n  exp\n  dup2\n  sload\n  dup2\n  0xff\n  mul\n  not\n  and\n  swap1\n  dup4\n  iszero\n  iszero\n  mul\n  or\n  swap1\n  sstore\n  pop\n    /* \"contracts/Roles.sol\":159:337  function add(Role storage role, address account) internal {... */\n  pop\n  pop\n  jump\t// out\n    /* \"contracts/Roles.sol\":536:739  function has(Role storage role, address account) internal view returns (bool) {... */\ntag_9:\n    /* \"contracts/Roles.sol\":608:612  bool */\n  0x00\n    /* \"contracts/Roles.sol\":652:653  0 */\n  dup1\n    /* \"contracts/Roles.sol\":633:654  account != address(0) */\n  0xffffffffffffffffffffffffffffffffffffffff\n  and\n    /* \"contracts/Roles.sol\":633:640  account */\n  dup3\n    /* \"contracts/Roles.sol\":633:654  account != address(0) */\n  0xffffffffffffffffffffffffffffffffffffffff\n  and\n  sub\n    /* \"contracts/Roles.sol\":625:693  require(account != address(0), \"Roles: account is the zero address\") */\n  tag_14\n  jumpi\n  mload(0x40)\n  0x08c379a000000000000000000000000000000000000000000000000000000000\n  dup2\n  mstore\n  0x04\n  add\n  tag_15\n  swap1\n  tag_16\n  jump\t// in\ntag_15:\n  mload(0x40)\n  dup1\n  swap2\n  sub\n  swap1\n  revert\ntag_14:\n    /* \"contracts/Roles.sol\":711:715  role */\n  dup3\n    /* \"contracts/Roles.sol\":711:722  role.bearer */\n  0x00\n  add\n    /* \"contracts/Roles.sol\":711:731  role.bearer[account] */\n  0x00\n    /* \"contracts/Roles.sol\":723:730  account */\n  dup4\n    /* \"contracts/Roles.sol\":711:731  role.bearer[account] */\n  0xffffffffffffffffffffffffffffffffffffffff\n  and\n  0xffffffffffffffffffffffffffffffffffffffff\n  and\n  dup2\n  mstore\n  0x20\n  add\n  swap1\n  dup2\n  mstore\n  0x20\n  add\n  0x00\n  keccak256\n  0x00\n  swap1\n  sload\n  swap1\n  0x0100\n  exp\n  swap1\n  div\n  0xff\n  and\n    /* \"contracts/Roles.sol\":704:731  return role.bearer[account] */\n  swap1\n  pop\n    /* \"contracts/Roles.sol\":536:739  function has(Role storage role, address account) internal view returns (bool) {... */\n  swap3\n  swap2\n  pop\n  pop\n  jump\t// out\n    /* \"#utility.yul\":7:176   */\ntag_17:\n    /* \"#utility.yul\":91:102   */\n  0x00\n    /* \"#utility.yul\":125:131   */\n  dup3\n    /* \"#utility.yul\":120:123   */\n  dup3\n    /* \"#utility.yul\":113:132   */\n  mstore\n    /* \"#utility.yul\":165:169   */\n  0x20\n    /* \"#utility.yul\":160:163   */\n  dup3\n    /* \"#utility.yul\":156:170   */\n  add\n    /* \"#utility.yul\":141:170   */\n  swap1\n  pop\n    /* \"#utility.yul\":7:176   */\n  swap3\n  swap2\n  pop\n  pop\n  jump\t// out\n    /* \"#utility.yul\":182:363   */\ntag_18:\n    /* \"#utility.yul\":322:355   */\n  0x526f6c65733a206163636f756e7420616c72656164792068617320726f6c6500\n    /* \"#utility.yul\":318:319   */\n  0x00\n    /* \"#utility.yul\":310:316   */\n  dup3\n    /* \"#utility.yul\":306:320   */\n  add\n    /* \"#utility.yul\":299:356   */\n  mstore\n    /* \"#utility.yul\":182:363   */\n  pop\n  jump\t// out\n    /* \"#utility.yul\":369:735   */\ntag_19:\n    /* \"#utility.yul\":511:514   */\n  0x00\n    /* \"#utility.yul\":532:599   */\n  tag_26\n    /* \"#utility.yul\":596:598   */\n  0x1f\n    /* \"#utility.yul\":591:594   */\n  dup4\n    /* \"#utility.yul\":532:599   */\n  tag_17\n  jump\t// in\ntag_26:\n    /* \"#utility.yul\":525:599   */\n  swap2\n  pop\n    /* \"#utility.yul\":608:701   */\n  tag_27\n    /* \"#utility.yul\":697:700   */\n  dup3\n    /* \"#utility.yul\":608:701   */\n  tag_18\n  jump\t// in\ntag_27:\n    /* \"#utility.yul\":726:728   */\n  0x20\n    /* \"#utility.yul\":721:724   */\n  dup3\n    /* \"#utility.yul\":717:729   */\n  add\n    /* \"#utility.yul\":710:729   */\n  swap1\n  pop\n    /* \"#utility.yul\":369:735   */\n  swap2\n  swap1\n  pop\n  jump\t// out\n    /* \"#utility.yul\":741:1160   */\ntag_12:\n    /* \"#utility.yul\":907:911   */\n  0x00\n    /* \"#utility.yul\":945:947   */\n  0x20\n    /* \"#utility.yul\":934:943   */\n  dup3\n    /* \"#utility.yul\":930:948   */\n  add\n    /* \"#utility.yul\":922:948   */\n  swap1\n  pop\n    /* \"#utility.yul\":994:1003   */\n  dup2\n    /* \"#utility.yul\":988:992   */\n  dup2\n    /* \"#utility.yul\":984:1004   */\n  sub\n    /* \"#utility.yul\":980:981   */\n  0x00\n    /* \"#utility.yul\":969:978   */\n  dup4\n    /* \"#utility.yul\":965:982   */\n  add\n    /* \"#utility.yul\":958:1005   */\n  mstore\n    /* \"#utility.yul\":1022:1153   */\n  tag_29\n    /* \"#utility.yul\":1148:1152   */\n  dup2\n    /* \"#utility.yul\":1022:1153   */\n  tag_19\n  jump\t// in\ntag_29:\n    /* \"#utility.yul\":1014:1153   */\n  swap1\n  pop\n    /* \"#utility.yul\":741:1160   */\n  swap2\n  swap1\n  pop\n  jump\t// out\n    /* \"#utility.yul\":1166:1387   */\ntag_20:\n    /* \"#utility.yul\":1306:1340   */\n  0x526f6c65733a206163636f756e7420697320746865207a65726f206164647265\n    /* \"#utility.yul\":1302:1303   */\n  0x00\n    /* \"#utility.yul\":1294:1300   */\n  dup3\n    /* \"#utility.yul\":1290:1304   */\n  add\n    /* \"#utility.yul\":1283:1341   */\n  mstore\n    /* \"#utility.yul\":1375:1379   */\n  0x7373000000000000000000000000000000000000000000000000000000000000\n    /* \"#utility.yul\":1370:1372   */\n  0x20\n    /* \"#utility.yul\":1362:1368   */\n  dup3\n    /* \"#utility.yul\":1358:1373   */\n  add\n    /* \"#utility.yul\":1351:1380   */\n  mstore\n    /* \"#utility.yul\":1166:1387   */\n  pop\n  jump\t// out\n    /* \"#utility.yul\":1393:1759   */\ntag_21:\n    /* \"#utility.yul\":1535:1538   */\n  0x00\n    /* \"#utility.yul\":1556:1623   */\n  tag_32\n    /* \"#utility.yul\":1620:1622   */\n  0x22\n    /* \"#utility.yul\":1615:1618   */\n  dup4\n    /* \"#utility.yul\":1556:1623   */\n  tag_17\n  jump\t// in\ntag_32:\n    /* \"#utility.yul\":1549:1623   */\n  swap2\n  pop\n    /* \"#utility.yul\":1632:1725   */\n  tag_33\n    /* \"#utility.yul\":1721:1724   */\n  dup3\n    /* \"#utility.yul\":1632:1725   */\n  tag_20\n  jump\t// in\ntag_33:\n    /* \"#utility.yul\":1750:1752   */\n  0x40\n    /* \"#utility.yul\":1745:1748   */\n  dup3\n    /* \"#utility.yul\":1741:1753   */\n  add\n    /* \"#utility.yul\":1734:1753   */\n  swap1\n  pop\n    /* \"#utility.yul\":1393:1759   */\n  swap2\n  swap1\n  pop\n  jump\t// out\n    /* \"#utility.yul\":1765:2184   */\ntag_16:\n    /* \"#utility.yul\":1931:1935   */\n  0x00\n    /* \"#utility.yul\":1969:1971   */\n  0x20\n    /* \"#utility.yul\":1958:1967   */\n  dup3\n    /* \"#utility.yul\":1954:1972   */\n  add\n    /* \"#utility.yul\":1946:1972   */\n  swap1\n  pop\n    /* \"#utility.yul\":2018:2027   */\n  dup2\n    /* \"#utility.yul\":2012:2016   */\n  dup2\n    /* \"#utility.yul\":2008:2028   */\n  sub\n    /* \"#utility.yul\":2004:2005   */\n  0x00\n    /* \"#utility.yul\":1993:2002   */\n  dup4\n    /* \"#utility.yul\":1989:2006   */\n  add\n    /* \"#utility.yul\":1982:2029   */\n  mstore\n    /* \"#utility.yul\":2046:2177   */\n  tag_35\n    /* \"#utility.yul\":2172:2176   */\n  dup2\n    /* \"#utility.yul\":2046:2177   */\n  tag_21\n  jump\t// in\ntag_35:\n    /* \"#utility.yul\":2038:2177   */\n  swap1\n  pop\n    /* \"#utility.yul\":1765:2184   */\n  swap2\n  swap1\n  pop\n  jump\t// out\n    /* \"contracts/contract.sol\":85:1074  contract Contract {... */\ntag_6:\n  dataSize(sub_0)\n  dup1\n  dataOffset(sub_0)\n  0x00\n  codecopy\n  0x00\n  return\nstop\n\nsub_0: assembly {\n        /* \"contracts/contract.sol\":85:1074  contract Contract {... */\n      mstore(0x40, 0x80)\n      callvalue\n      dup1\n      iszero\n      tag_1\n      jumpi\n      0x00\n      dup1\n      revert\n    tag_1:\n      pop\n      jumpi(tag_2, lt(calldatasize, 0x04))\n      shr(0xe0, calldataload(0x00))\n      dup1\n      0x17335a95\n      eq\n      tag_3\n      jumpi\n      dup1\n      0x1da3e2dc\n      eq\n      tag_4\n      jumpi\n      dup1\n      0xb6db75a0\n      eq\n      tag_5\n      jumpi\n      dup1\n      0xbb13227c\n      eq\n      tag_6\n      jumpi\n      dup1\n      0xbe956873\n      eq\n      tag_7\n      jumpi\n      dup1\n      0xd4fd45c4\n      eq\n      tag_8\n      jumpi\n    tag_2:\n      0x00\n      dup1\n      revert\n        /* \"contracts/contract.sol\":486:772  function addDrInfo(address dr_id, string memory _drInfo_hash) public {... */\n    tag_3:\n      tag_9\n      0x04\n      dup1\n      calldatasize\n      sub\n      dup2\n      add\n      swap1\n      tag_10\n      swap2\n      swap1\n      tag_11\n      jump\t// in\n    tag_10:\n      tag_12\n      jump\t// in\n    tag_9:\n      stop\n        /* \"contracts/contract.sol\":778:863  function getAllDrs() public view returns (address[] memory) {... */\n    tag_4:\n      tag_13\n      tag_14\n      jump\t// in\n    tag_13:\n      mload(0x40)\n      tag_15\n      swap2\n      swap1\n      tag_16\n      jump\t// in\n    tag_15:\n      mload(0x40)\n      dup1\n      swap2\n      sub\n      swap1\n      return\n        /* \"contracts/contract.sol\":391:478  function isAdmin() public view returns (bool) {... */\n    tag_5:\n      tag_17\n      tag_18\n      jump\t// in\n    tag_17:\n      mload(0x40)\n      tag_19\n      swap2\n      swap1\n      tag_20\n      jump\t// in\n    tag_19:\n      mload(0x40)\n      dup1\n      swap2\n      sub\n      swap1\n      return\n        /* \"contracts/contract.sol\":306:328  address[] public DrIDs */\n    tag_6:\n      tag_21\n      0x04\n      dup1\n      calldatasize\n      sub\n      dup2\n      add\n      swap1\n      tag_22\n      swap2\n      swap1\n      tag_23\n      jump\t// in\n    tag_22:\n      tag_24\n      jump\t// in\n    tag_21:\n      mload(0x40)\n      tag_25\n      swap2\n      swap1\n      tag_26\n      jump\t// in\n    tag_25:\n      mload(0x40)\n      dup1\n      swap2\n      sub\n      swap1\n      return\n        /* \"contracts/contract.sol\":982:1069  function isDr(address id) public view returns (bool) {... */\n    tag_7:\n      tag_27\n      0x04\n      dup1\n      calldatasize\n      sub\n      dup2\n      add\n      swap1\n      tag_28\n      swap2\n      swap1\n      tag_29\n      jump\t// in\n    tag_28:\n      tag_30\n      jump\t// in\n    tag_27:\n      mload(0x40)\n      tag_31\n      swap2\n      swap1\n      tag_20\n      jump\t// in\n    tag_31:\n      mload(0x40)\n      dup1\n      swap2\n      sub\n      swap1\n      return\n        /* \"contracts/contract.sol\":869:974  function getDr(address _id) public view returns (string memory) {... */\n    tag_8:\n      tag_32\n      0x04\n      dup1\n      calldatasize\n      sub\n      dup2\n      add\n      swap1\n      tag_33\n      swap2\n      swap1\n      tag_29\n      jump\t// in\n    tag_33:\n      tag_34\n      jump\t// in\n    tag_32:\n      mload(0x40)\n      tag_35\n      swap2\n      swap1\n      tag_36\n      jump\t// in\n    tag_35:\n      mload(0x40)\n      dup1\n      swap2\n      sub\n      swap1\n      return\n        /* \"contracts/contract.sol\":486:772  function addDrInfo(address dr_id, string memory _drInfo_hash) public {... */\n    tag_12:\n        /* \"contracts/contract.sol\":570:591  admin.has(msg.sender) */\n      tag_38\n        /* \"contracts/contract.sol\":580:590  msg.sender */\n      caller\n        /* \"contracts/contract.sol\":570:575  admin */\n      0x00\n        /* \"contracts/contract.sol\":570:579  admin.has */\n      tag_39\n      swap1\n        /* \"contracts/contract.sol\":570:591  admin.has(msg.sender) */\n      swap2\n      swap1\n      0xffffffff\n      and\n      jump\t// in\n    tag_38:\n        /* \"contracts/contract.sol\":562:610  require(admin.has(msg.sender), \"Only For Admin\") */\n      tag_40\n      jumpi\n      mload(0x40)\n      0x08c379a000000000000000000000000000000000000000000000000000000000\n      dup2\n      mstore\n      0x04\n      add\n      tag_41\n      swap1\n      tag_42\n      jump\t// in\n    tag_41:\n      mload(0x40)\n      dup1\n      swap2\n      sub\n      swap1\n      revert\n    tag_40:\n        /* \"contracts/contract.sol\":619:640  Doctor storage drInfo */\n      0x00\n        /* \"contracts/contract.sol\":643:650  Doctors */\n      0x02\n        /* \"contracts/contract.sol\":643:657  Doctors[dr_id] */\n      0x00\n        /* \"contracts/contract.sol\":651:656  dr_id */\n      dup5\n        /* \"contracts/contract.sol\":643:657  Doctors[dr_id] */\n      0xffffffffffffffffffffffffffffffffffffffff\n      and\n      0xffffffffffffffffffffffffffffffffffffffff\n      and\n      dup2\n      mstore\n      0x20\n      add\n      swap1\n      dup2\n      mstore\n      0x20\n      add\n      0x00\n      keccak256\n        /* \"contracts/contract.sol\":619:657  Doctor storage drInfo = Doctors[dr_id] */\n      swap1\n      pop\n        /* \"contracts/contract.sol\":676:681  dr_id */\n      dup3\n        /* \"contracts/contract.sol\":664:670  drInfo */\n      dup2\n        /* \"contracts/contract.sol\":664:673  drInfo.id */\n      0x00\n      add\n      0x00\n        /* \"contracts/contract.sol\":664:681  drInfo.id = dr_id */\n      0x0100\n      exp\n      dup2\n      sload\n      dup2\n      0xffffffffffffffffffffffffffffffffffffffff\n      mul\n      not\n      and\n      swap1\n      dup4\n      0xffffffffffffffffffffffffffffffffffffffff\n      and\n      mul\n      or\n      swap1\n      sstore\n      pop\n        /* \"contracts/contract.sol\":704:716  _drInfo_hash */\n      dup2\n        /* \"contracts/contract.sol\":688:694  drInfo */\n      dup2\n        /* \"contracts/contract.sol\":688:701  drInfo.drHash */\n      0x01\n      add\n        /* \"contracts/contract.sol\":688:716  drInfo.drHash = _drInfo_hash */\n      swap1\n      dup2\n      tag_43\n      swap2\n      swap1\n      tag_44\n      jump\t// in\n    tag_43:\n      pop\n        /* \"contracts/contract.sol\":723:728  DrIDs */\n      0x03\n        /* \"contracts/contract.sol\":734:739  dr_id */\n      dup4\n        /* \"contracts/contract.sol\":723:740  DrIDs.push(dr_id) */\n      swap1\n      dup1\n      0x01\n      dup2\n      sload\n      add\n      dup1\n      dup3\n      sstore\n      dup1\n      swap2\n      pop\n      pop\n      0x01\n      swap1\n      sub\n      swap1\n      0x00\n      mstore\n      keccak256(0x00, 0x20)\n      add\n      0x00\n      swap1\n      swap2\n      swap1\n      swap2\n      swap1\n      swap2\n      0x0100\n      exp\n      dup2\n      sload\n      dup2\n      0xffffffffffffffffffffffffffffffffffffffff\n      mul\n      not\n      and\n      swap1\n      dup4\n      0xffffffffffffffffffffffffffffffffffffffff\n      and\n      mul\n      or\n      swap1\n      sstore\n      pop\n        /* \"contracts/contract.sol\":749:766  doctor.add(dr_id) */\n      tag_46\n        /* \"contracts/contract.sol\":760:765  dr_id */\n      dup4\n        /* \"contracts/contract.sol\":749:755  doctor */\n      0x01\n        /* \"contracts/contract.sol\":749:759  doctor.add */\n      tag_47\n      swap1\n        /* \"contracts/contract.sol\":749:766  doctor.add(dr_id) */\n      swap2\n      swap1\n      0xffffffff\n      and\n      jump\t// in\n    tag_46:\n        /* \"contracts/contract.sol\":555:772  {... */\n      pop\n        /* \"contracts/contract.sol\":486:772  function addDrInfo(address dr_id, string memory _drInfo_hash) public {... */\n      pop\n      pop\n      jump\t// out\n        /* \"contracts/contract.sol\":778:863  function getAllDrs() public view returns (address[] memory) {... */\n    tag_14:\n        /* \"contracts/contract.sol\":820:836  address[] memory */\n      0x60\n        /* \"contracts/contract.sol\":852:857  DrIDs */\n      0x03\n        /* \"contracts/contract.sol\":845:857  return DrIDs */\n      dup1\n      sload\n      dup1\n      0x20\n      mul\n      0x20\n      add\n      mload(0x40)\n      swap1\n      dup2\n      add\n      0x40\n      mstore\n      dup1\n      swap3\n      swap2\n      swap1\n      dup2\n      dup2\n      mstore\n      0x20\n      add\n      dup3\n      dup1\n      sload\n      dup1\n      iszero\n      tag_49\n      jumpi\n      0x20\n      mul\n      dup3\n      add\n      swap2\n      swap1\n      0x00\n      mstore\n      keccak256(0x00, 0x20)\n      swap1\n    tag_50:\n      dup2\n      0x00\n      swap1\n      sload\n      swap1\n      0x0100\n      exp\n      swap1\n      div\n      0xffffffffffffffffffffffffffffffffffffffff\n      and\n      0xffffffffffffffffffffffffffffffffffffffff\n      and\n      dup2\n      mstore\n      0x20\n      add\n      swap1\n      0x01\n      add\n      swap1\n      dup1\n      dup4\n      gt\n      tag_50\n      jumpi\n    tag_49:\n      pop\n      pop\n      pop\n      pop\n      pop\n      swap1\n      pop\n        /* \"contracts/contract.sol\":778:863  function getAllDrs() public view returns (address[] memory) {... */\n      swap1\n      jump\t// out\n        /* \"contracts/contract.sol\":391:478  function isAdmin() public view returns (bool) {... */\n    tag_18:\n        /* \"contracts/contract.sol\":431:435  bool */\n      0x00\n        /* \"contracts/contract.sol\":451:472  admin.has(msg.sender) */\n      tag_52\n        /* \"contracts/contract.sol\":461:471  msg.sender */\n      caller\n        /* \"contracts/contract.sol\":451:456  admin */\n      0x00\n        /* \"contracts/contract.sol\":451:460  admin.has */\n      tag_39\n      swap1\n        /* \"contracts/contract.sol\":451:472  admin.has(msg.sender) */\n      swap2\n      swap1\n      0xffffffff\n      and\n      jump\t// in\n    tag_52:\n        /* \"contracts/contract.sol\":444:472  return admin.has(msg.sender) */\n      swap1\n      pop\n        /* \"contracts/contract.sol\":391:478  function isAdmin() public view returns (bool) {... */\n      swap1\n      jump\t// out\n        /* \"contracts/contract.sol\":306:328  address[] public DrIDs */\n    tag_24:\n      0x03\n      dup2\n      dup2\n      sload\n      dup2\n      lt\n      tag_53\n      jumpi\n      0x00\n      dup1\n      revert\n    tag_53:\n      swap1\n      0x00\n      mstore\n      keccak256(0x00, 0x20)\n      add\n      0x00\n      swap2\n      pop\n      sload\n      swap1\n      0x0100\n      exp\n      swap1\n      div\n      0xffffffffffffffffffffffffffffffffffffffff\n      and\n      dup2\n      jump\t// out\n        /* \"contracts/contract.sol\":982:1069  function isDr(address id) public view returns (bool) {... */\n    tag_30:\n        /* \"contracts/contract.sol\":1029:1033  bool */\n      0x00\n        /* \"contracts/contract.sol\":1049:1063  doctor.has(id) */\n      tag_56\n        /* \"contracts/contract.sol\":1060:1062  id */\n      dup3\n        /* \"contracts/contract.sol\":1049:1055  doctor */\n      0x01\n        /* \"contracts/contract.sol\":1049:1059  doctor.has */\n      tag_39\n      swap1\n        /* \"contracts/contract.sol\":1049:1063  doctor.has(id) */\n      swap2\n      swap1\n      0xffffffff\n      and\n      jump\t// in\n    tag_56:\n        /* \"contracts/contract.sol\":1042:1063  return doctor.has(id) */\n      swap1\n      pop\n        /* \"contracts/contract.sol\":982:1069  function isDr(address id) public view returns (bool) {... */\n      swap2\n      swap1\n      pop\n      jump\t// out\n        /* \"contracts/contract.sol\":869:974  function getDr(address _id) public view returns (string memory) {... */\n    tag_34:\n        /* \"contracts/contract.sol\":918:931  string memory */\n      0x60\n        /* \"contracts/contract.sol\":948:955  Doctors */\n      0x02\n        /* \"contracts/contract.sol\":948:960  Doctors[_id] */\n      0x00\n        /* \"contracts/contract.sol\":956:959  _id */\n      dup4\n        /* \"contracts/contract.sol\":948:960  Doctors[_id] */\n      0xffffffffffffffffffffffffffffffffffffffff\n      and\n      0xffffffffffffffffffffffffffffffffffffffff\n      and\n      dup2\n      mstore\n      0x20\n      add\n      swap1\n      dup2\n      mstore\n      0x20\n      add\n      0x00\n      keccak256\n        /* \"contracts/contract.sol\":948:967  Doctors[_id].drHash */\n      0x01\n      add\n        /* \"contracts/contract.sol\":940:968  return (Doctors[_id].drHash) */\n      dup1\n      sload\n      tag_58\n      swap1\n      tag_59\n      jump\t// in\n    tag_58:\n      dup1\n      0x1f\n      add\n      0x20\n      dup1\n      swap2\n      div\n      mul\n      0x20\n      add\n      mload(0x40)\n      swap1\n      dup2\n      add\n      0x40\n      mstore\n      dup1\n      swap3\n      swap2\n      swap1\n      dup2\n      dup2\n      mstore\n      0x20\n      add\n      dup3\n      dup1\n      sload\n      tag_60\n      swap1\n      tag_59\n      jump\t// in\n    tag_60:\n      dup1\n      iszero\n      tag_61\n      jumpi\n      dup1\n      0x1f\n      lt\n      tag_62\n      jumpi\n      0x0100\n      dup1\n      dup4\n      sload\n      div\n      mul\n      dup4\n      mstore\n      swap2\n      0x20\n      add\n      swap2\n      jump(tag_61)\n    tag_62:\n      dup3\n      add\n      swap2\n      swap1\n      0x00\n      mstore\n      keccak256(0x00, 0x20)\n      swap1\n    tag_63:\n      dup2\n      sload\n      dup2\n      mstore\n      swap1\n      0x01\n      add\n      swap1\n      0x20\n      add\n      dup1\n      dup4\n      gt\n      tag_63\n      jumpi\n      dup3\n      swap1\n      sub\n      0x1f\n      and\n      dup3\n      add\n      swap2\n    tag_61:\n      pop\n      pop\n      pop\n      pop\n      pop\n      swap1\n      pop\n        /* \"contracts/contract.sol\":869:974  function getDr(address _id) public view returns (string memory) {... */\n      swap2\n      swap1\n      pop\n      jump\t// out\n        /* \"contracts/Roles.sol\":536:739  function has(Role storage role, address account) internal view returns (bool) {... */\n    tag_39:\n        /* \"contracts/Roles.sol\":608:612  bool */\n      0x00\n        /* \"contracts/Roles.sol\":652:653  0 */\n      dup1\n        /* \"contracts/Roles.sol\":633:654  account != address(0) */\n      0xffffffffffffffffffffffffffffffffffffffff\n      and\n        /* \"contracts/Roles.sol\":633:640  account */\n      dup3\n        /* \"contracts/Roles.sol\":633:654  account != address(0) */\n      0xffffffffffffffffffffffffffffffffffffffff\n      and\n      sub\n        /* \"contracts/Roles.sol\":625:693  require(account != address(0), \"Roles: account is the zero address\") */\n      tag_65\n      jumpi\n      mload(0x40)\n      0x08c379a000000000000000000000000000000000000000000000000000000000\n      dup2\n      mstore\n      0x04\n      add\n      tag_66\n      swap1\n      tag_67\n      jump\t// in\n    tag_66:\n      mload(0x40)\n      dup1\n      swap2\n      sub\n      swap1\n      revert\n    tag_65:\n        /* \"contracts/Roles.sol\":711:715  role */\n      dup3\n        /* \"contracts/Roles.sol\":711:722  role.bearer */\n      0x00\n      add\n        /* \"contracts/Roles.sol\":711:731  role.bearer[account] */\n      0x00\n        /* \"contracts/Roles.sol\":723:730  account */\n      dup4\n        /* \"contracts/Roles.sol\":711:731  role.bearer[account] */\n      0xffffffffffffffffffffffffffffffffffffffff\n      and\n      0xffffffffffffffffffffffffffffffffffffffff\n      and\n      dup2\n      mstore\n      0x20\n      add\n      swap1\n      dup2\n      mstore\n      0x20\n      add\n      0x00\n      keccak256\n      0x00\n      swap1\n      sload\n      swap1\n      0x0100\n      exp\n      swap1\n      div\n      0xff\n      and\n        /* \"contracts/Roles.sol\":704:731  return role.bearer[account] */\n      swap1\n      pop\n        /* \"contracts/Roles.sol\":536:739  function has(Role storage role, address account) internal view returns (bool) {... */\n      swap3\n      swap2\n      pop\n      pop\n      jump\t// out\n        /* \"contracts/Roles.sol\":159:337  function add(Role storage role, address account) internal {... */\n    tag_47:\n        /* \"contracts/Roles.sol\":237:255  has(role, account) */\n      tag_69\n        /* \"contracts/Roles.sol\":241:245  role */\n      dup3\n        /* \"contracts/Roles.sol\":247:254  account */\n      dup3\n        /* \"contracts/Roles.sol\":237:240  has */\n      tag_39\n        /* \"contracts/Roles.sol\":237:255  has(role, account) */\n      jump\t// in\n    tag_69:\n        /* \"contracts/Roles.sol\":236:255  !has(role, account) */\n      iszero\n        /* \"contracts/Roles.sol\":228:291  require(!has(role, account), \"Roles: account already has role\") */\n      tag_70\n      jumpi\n      mload(0x40)\n      0x08c379a000000000000000000000000000000000000000000000000000000000\n      dup2\n      mstore\n      0x04\n      add\n      tag_71\n      swap1\n      tag_72\n      jump\t// in\n    tag_71:\n      mload(0x40)\n      dup1\n      swap2\n      sub\n      swap1\n      revert\n    tag_70:\n        /* \"contracts/Roles.sol\":325:329  true */\n      0x01\n        /* \"contracts/Roles.sol\":302:306  role */\n      dup3\n        /* \"contracts/Roles.sol\":302:313  role.bearer */\n      0x00\n      add\n        /* \"contracts/Roles.sol\":302:322  role.bearer[account] */\n      0x00\n        /* \"contracts/Roles.sol\":314:321  account */\n      dup4\n        /* \"contracts/Roles.sol\":302:322  role.bearer[account] */\n      0xffffffffffffffffffffffffffffffffffffffff\n      and\n      0xffffffffffffffffffffffffffffffffffffffff\n      and\n      dup2\n      mstore\n      0x20\n      add\n      swap1\n      dup2\n      mstore\n      0x20\n      add\n      0x00\n      keccak256\n      0x00\n        /* \"contracts/Roles.sol\":302:329  role.bearer[account] = true */\n      0x0100\n      exp\n      dup2\n      sload\n      dup2\n      0xff\n      mul\n      not\n      and\n      swap1\n      dup4\n      iszero\n      iszero\n      mul\n      or\n      swap1\n      sstore\n      pop\n        /* \"contracts/Roles.sol\":159:337  function add(Role storage role, address account) internal {... */\n      pop\n      pop\n      jump\t// out\n        /* \"#utility.yul\":7:82   */\n    tag_73:\n        /* \"#utility.yul\":40:46   */\n      0x00\n        /* \"#utility.yul\":73:75   */\n      0x40\n        /* \"#utility.yul\":67:76   */\n      mload\n        /* \"#utility.yul\":57:76   */\n      swap1\n      pop\n        /* \"#utility.yul\":7:82   */\n      swap1\n      jump\t// out\n        /* \"#utility.yul\":88:205   */\n    tag_74:\n        /* \"#utility.yul\":197:198   */\n      0x00\n        /* \"#utility.yul\":194:195   */\n      dup1\n        /* \"#utility.yul\":187:199   */\n      revert\n        /* \"#utility.yul\":211:328   */\n    tag_75:\n        /* \"#utility.yul\":320:321   */\n      0x00\n        /* \"#utility.yul\":317:318   */\n      dup1\n        /* \"#utility.yul\":310:322   */\n      revert\n        /* \"#utility.yul\":334:460   */\n    tag_76:\n        /* \"#utility.yul\":371:378   */\n      0x00\n        /* \"#utility.yul\":411:453   */\n      0xffffffffffffffffffffffffffffffffffffffff\n        /* \"#utility.yul\":404:409   */\n      dup3\n        /* \"#utility.yul\":400:454   */\n      and\n        /* \"#utility.yul\":389:454   */\n      swap1\n      pop\n        /* \"#utility.yul\":334:460   */\n      swap2\n      swap1\n      pop\n      jump\t// out\n        /* \"#utility.yul\":466:562   */\n    tag_77:\n        /* \"#utility.yul\":503:510   */\n      0x00\n        /* \"#utility.yul\":532:556   */\n      tag_135\n        /* \"#utility.yul\":550:555   */\n      dup3\n        /* \"#utility.yul\":532:556   */\n      tag_76\n      jump\t// in\n    tag_135:\n        /* \"#utility.yul\":521:556   */\n      swap1\n      pop\n        /* \"#utility.yul\":466:562   */\n      swap2\n      swap1\n      pop\n      jump\t// out\n        /* \"#utility.yul\":568:690   */\n    tag_78:\n        /* \"#utility.yul\":641:665   */\n      tag_137\n        /* \"#utility.yul\":659:664   */\n      dup2\n        /* \"#utility.yul\":641:665   */\n      tag_77\n      jump\t// in\n    tag_137:\n        /* \"#utility.yul\":634:639   */\n      dup2\n        /* \"#utility.yul\":631:666   */\n      eq\n        /* \"#utility.yul\":621:684   */\n      tag_138\n      jumpi\n        /* \"#utility.yul\":680:681   */\n      0x00\n        /* \"#utility.yul\":677:678   */\n      dup1\n        /* \"#utility.yul\":670:682   */\n      revert\n        /* \"#utility.yul\":621:684   */\n    tag_138:\n        /* \"#utility.yul\":568:690   */\n      pop\n      jump\t// out\n        /* \"#utility.yul\":696:835   */\n    tag_79:\n        /* \"#utility.yul\":742:747   */\n      0x00\n        /* \"#utility.yul\":780:786   */\n      dup2\n        /* \"#utility.yul\":767:787   */\n      calldataload\n        /* \"#utility.yul\":758:787   */\n      swap1\n      pop\n        /* \"#utility.yul\":796:829   */\n      tag_140\n        /* \"#utility.yul\":823:828   */\n      dup2\n        /* \"#utility.yul\":796:829   */\n      tag_78\n      jump\t// in\n    tag_140:\n        /* \"#utility.yul\":696:835   */\n      swap3\n      swap2\n      pop\n      pop\n      jump\t// out\n        /* \"#utility.yul\":841:958   */\n    tag_80:\n        /* \"#utility.yul\":950:951   */\n      0x00\n        /* \"#utility.yul\":947:948   */\n      dup1\n        /* \"#utility.yul\":940:952   */\n      revert\n        /* \"#utility.yul\":964:1081   */\n    tag_81:\n        /* \"#utility.yul\":1073:1074   */\n      0x00\n        /* \"#utility.yul\":1070:1071   */\n      dup1\n        /* \"#utility.yul\":1063:1075   */\n      revert\n        /* \"#utility.yul\":1087:1189   */\n    tag_82:\n        /* \"#utility.yul\":1128:1134   */\n      0x00\n        /* \"#utility.yul\":1179:1181   */\n      0x1f\n        /* \"#utility.yul\":1175:1182   */\n      not\n        /* \"#utility.yul\":1170:1172   */\n      0x1f\n        /* \"#utility.yul\":1163:1168   */\n      dup4\n        /* \"#utility.yul\":1159:1173   */\n      add\n        /* \"#utility.yul\":1155:1183   */\n      and\n        /* \"#utility.yul\":1145:1183   */\n      swap1\n      pop\n        /* \"#utility.yul\":1087:1189   */\n      swap2\n      swap1\n      pop\n      jump\t// out\n        /* \"#utility.yul\":1195:1375   */\n    tag_83:\n        /* \"#utility.yul\":1243:1320   */\n      0x4e487b7100000000000000000000000000000000000000000000000000000000\n        /* \"#utility.yul\":1240:1241   */\n      0x00\n        /* \"#utility.yul\":1233:1321   */\n      mstore\n        /* \"#utility.yul\":1340:1344   */\n      0x41\n        /* \"#utility.yul\":1337:1338   */\n      0x04\n        /* \"#utility.yul\":1330:1345   */\n      mstore\n        /* \"#utility.yul\":1364:1368   */\n      0x24\n        /* \"#utility.yul\":1361:1362   */\n      0x00\n        /* \"#utility.yul\":1354:1369   */\n      revert\n        /* \"#utility.yul\":1381:1662   */\n    tag_84:\n        /* \"#utility.yul\":1464:1491   */\n      tag_146\n        /* \"#utility.yul\":1486:1490   */\n      dup3\n        /* \"#utility.yul\":1464:1491   */\n      tag_82\n      jump\t// in\n    tag_146:\n        /* \"#utility.yul\":1456:1462   */\n      dup2\n        /* \"#utility.yul\":1452:1492   */\n      add\n        /* \"#utility.yul\":1594:1600   */\n      dup2\n        /* \"#utility.yul\":1582:1592   */\n      dup2\n        /* \"#utility.yul\":1579:1601   */\n      lt\n        /* \"#utility.yul\":1558:1576   */\n      0xffffffffffffffff\n        /* \"#utility.yul\":1546:1556   */\n      dup3\n        /* \"#utility.yul\":1543:1577   */\n      gt\n        /* \"#utility.yul\":1540:1602   */\n      or\n        /* \"#utility.yul\":1537:1625   */\n      iszero\n      tag_147\n      jumpi\n        /* \"#utility.yul\":1605:1623   */\n      tag_148\n      tag_83\n      jump\t// in\n    tag_148:\n        /* \"#utility.yul\":1537:1625   */\n    tag_147:\n        /* \"#utility.yul\":1645:1655   */\n      dup1\n        /* \"#utility.yul\":1641:1643   */\n      0x40\n        /* \"#utility.yul\":1634:1656   */\n      mstore\n        /* \"#utility.yul\":1424:1662   */\n      pop\n        /* \"#utility.yul\":1381:1662   */\n      pop\n      pop\n      jump\t// out\n        /* \"#utility.yul\":1668:1797   */\n    tag_85:\n        /* \"#utility.yul\":1702:1708   */\n      0x00\n        /* \"#utility.yul\":1729:1749   */\n      tag_150\n      tag_73\n      jump\t// in\n    tag_150:\n        /* \"#utility.yul\":1719:1749   */\n      swap1\n      pop\n        /* \"#utility.yul\":1758:1791   */\n      tag_151\n        /* \"#utility.yul\":1786:1790   */\n      dup3\n        /* \"#utility.yul\":1778:1784   */\n      dup3\n        /* \"#utility.yul\":1758:1791   */\n      tag_84\n      jump\t// in\n    tag_151:\n        /* \"#utility.yul\":1668:1797   */\n      swap2\n      swap1\n      pop\n      jump\t// out\n        /* \"#utility.yul\":1803:2111   */\n    tag_86:\n        /* \"#utility.yul\":1865:1869   */\n      0x00\n        /* \"#utility.yul\":1955:1973   */\n      0xffffffffffffffff\n        /* \"#utility.yul\":1947:1953   */\n      dup3\n        /* \"#utility.yul\":1944:1974   */\n      gt\n        /* \"#utility.yul\":1941:1997   */\n      iszero\n      tag_153\n      jumpi\n        /* \"#utility.yul\":1977:1995   */\n      tag_154\n      tag_83\n      jump\t// in\n    tag_154:\n        /* \"#utility.yul\":1941:1997   */\n    tag_153:\n        /* \"#utility.yul\":2015:2044   */\n      tag_155\n        /* \"#utility.yul\":2037:2043   */\n      dup3\n        /* \"#utility.yul\":2015:2044   */\n      tag_82\n      jump\t// in\n    tag_155:\n        /* \"#utility.yul\":2007:2044   */\n      swap1\n      pop\n        /* \"#utility.yul\":2099:2103   */\n      0x20\n        /* \"#utility.yul\":2093:2097   */\n      dup2\n        /* \"#utility.yul\":2089:2104   */\n      add\n        /* \"#utility.yul\":2081:2104   */\n      swap1\n      pop\n        /* \"#utility.yul\":1803:2111   */\n      swap2\n      swap1\n      pop\n      jump\t// out\n        /* \"#utility.yul\":2117:2265   */\n    tag_87:\n        /* \"#utility.yul\":2215:2221   */\n      dup3\n        /* \"#utility.yul\":2210:2213   */\n      dup2\n        /* \"#utility.yul\":2205:2208   */\n      dup4\n        /* \"#utility.yul\":2192:2222   */\n      calldatacopy\n        /* \"#utility.yul\":2256:2257   */\n      0x00\n        /* \"#utility.yul\":2247:2253   */\n      dup4\n        /* \"#utility.yul\":2242:2245   */\n      dup4\n        /* \"#utility.yul\":2238:2254   */\n      add\n        /* \"#utility.yul\":2231:2258   */\n      mstore\n        /* \"#utility.yul\":2117:2265   */\n      pop\n      pop\n      pop\n      jump\t// out\n        /* \"#utility.yul\":2271:2696   */\n    tag_88:\n        /* \"#utility.yul\":2349:2354   */\n      0x00\n        /* \"#utility.yul\":2374:2440   */\n      tag_158\n        /* \"#utility.yul\":2390:2439   */\n      tag_159\n        /* \"#utility.yul\":2432:2438   */\n      dup5\n        /* \"#utility.yul\":2390:2439   */\n      tag_86\n      jump\t// in\n    tag_159:\n        /* \"#utility.yul\":2374:2440   */\n      tag_85\n      jump\t// in\n    tag_158:\n        /* \"#utility.yul\":2365:2440   */\n      swap1\n      pop\n        /* \"#utility.yul\":2463:2469   */\n      dup3\n        /* \"#utility.yul\":2456:2461   */\n      dup2\n        /* \"#utility.yul\":2449:2470   */\n      mstore\n        /* \"#utility.yul\":2501:2505   */\n      0x20\n        /* \"#utility.yul\":2494:2499   */\n      dup2\n        /* \"#utility.yul\":2490:2506   */\n      add\n        /* \"#utility.yul\":2539:2542   */\n      dup5\n        /* \"#utility.yul\":2530:2536   */\n      dup5\n        /* \"#utility.yul\":2525:2528   */\n      dup5\n        /* \"#utility.yul\":2521:2537   */\n      add\n        /* \"#utility.yul\":2518:2543   */\n      gt\n        /* \"#utility.yul\":2515:2627   */\n      iszero\n      tag_160\n      jumpi\n        /* \"#utility.yul\":2546:2625   */\n      tag_161\n      tag_81\n      jump\t// in\n    tag_161:\n        /* \"#utility.yul\":2515:2627   */\n    tag_160:\n        /* \"#utility.yul\":2636:2690   */\n      tag_162\n        /* \"#utility.yul\":2683:2689   */\n      dup5\n        /* \"#utility.yul\":2678:2681   */\n      dup3\n        /* \"#utility.yul\":2673:2676   */\n      dup6\n        /* \"#utility.yul\":2636:2690   */\n      tag_87\n      jump\t// in\n    tag_162:\n        /* \"#utility.yul\":2355:2696   */\n      pop\n        /* \"#utility.yul\":2271:2696   */\n      swap4\n      swap3\n      pop\n      pop\n      pop\n      jump\t// out\n        /* \"#utility.yul\":2716:3056   */\n    tag_89:\n        /* \"#utility.yul\":2772:2777   */\n      0x00\n        /* \"#utility.yul\":2821:2824   */\n      dup3\n        /* \"#utility.yul\":2814:2818   */\n      0x1f\n        /* \"#utility.yul\":2806:2812   */\n      dup4\n        /* \"#utility.yul\":2802:2819   */\n      add\n        /* \"#utility.yul\":2798:2825   */\n      slt\n        /* \"#utility.yul\":2788:2910   */\n      tag_164\n      jumpi\n        /* \"#utility.yul\":2829:2908   */\n      tag_165\n      tag_80\n      jump\t// in\n    tag_165:\n        /* \"#utility.yul\":2788:2910   */\n    tag_164:\n        /* \"#utility.yul\":2946:2952   */\n      dup2\n        /* \"#utility.yul\":2933:2953   */\n      calldataload\n        /* \"#utility.yul\":2971:3050   */\n      tag_166\n        /* \"#utility.yul\":3046:3049   */\n      dup5\n        /* \"#utility.yul\":3038:3044   */\n      dup3\n        /* \"#utility.yul\":3031:3035   */\n      0x20\n        /* \"#utility.yul\":3023:3029   */\n      dup7\n        /* \"#utility.yul\":3019:3036   */\n      add\n        /* \"#utility.yul\":2971:3050   */\n      tag_88\n      jump\t// in\n    tag_166:\n        /* \"#utility.yul\":2962:3050   */\n      swap2\n      pop\n        /* \"#utility.yul\":2778:3056   */\n      pop\n        /* \"#utility.yul\":2716:3056   */\n      swap3\n      swap2\n      pop\n      pop\n      jump\t// out\n        /* \"#utility.yul\":3062:3716   */\n    tag_11:\n        /* \"#utility.yul\":3140:3146   */\n      0x00\n        /* \"#utility.yul\":3148:3154   */\n      dup1\n        /* \"#utility.yul\":3197:3199   */\n      0x40\n        /* \"#utility.yul\":3185:3194   */\n      dup4\n        /* \"#utility.yul\":3176:3183   */\n      dup6\n        /* \"#utility.yul\":3172:3195   */\n      sub\n        /* \"#utility.yul\":3168:3200   */\n      slt\n        /* \"#utility.yul\":3165:3284   */\n      iszero\n      tag_168\n      jumpi\n        /* \"#utility.yul\":3203:3282   */\n      tag_169\n      tag_74\n      jump\t// in\n    tag_169:\n        /* \"#utility.yul\":3165:3284   */\n    tag_168:\n        /* \"#utility.yul\":3323:3324   */\n      0x00\n        /* \"#utility.yul\":3348:3401   */\n      tag_170\n        /* \"#utility.yul\":3393:3400   */\n      dup6\n        /* \"#utility.yul\":3384:3390   */\n      dup3\n        /* \"#utility.yul\":3373:3382   */\n      dup7\n        /* \"#utility.yul\":3369:3391   */\n      add\n        /* \"#utility.yul\":3348:3401   */\n      tag_79\n      jump\t// in\n    tag_170:\n        /* \"#utility.yul\":3338:3401   */\n      swap3\n      pop\n        /* \"#utility.yul\":3294:3411   */\n      pop\n        /* \"#utility.yul\":3478:3480   */\n      0x20\n        /* \"#utility.yul\":3467:3476   */\n      dup4\n        /* \"#utility.yul\":3463:3481   */\n      add\n        /* \"#utility.yul\":3450:3482   */\n      calldataload\n        /* \"#utility.yul\":3509:3527   */\n      0xffffffffffffffff\n        /* \"#utility.yul\":3501:3507   */\n      dup2\n        /* \"#utility.yul\":3498:3528   */\n      gt\n        /* \"#utility.yul\":3495:3612   */\n      iszero\n      tag_171\n      jumpi\n        /* \"#utility.yul\":3531:3610   */\n      tag_172\n      tag_75\n      jump\t// in\n    tag_172:\n        /* \"#utility.yul\":3495:3612   */\n    tag_171:\n        /* \"#utility.yul\":3636:3699   */\n      tag_173\n        /* \"#utility.yul\":3691:3698   */\n      dup6\n        /* \"#utility.yul\":3682:3688   */\n      dup3\n        /* \"#utility.yul\":3671:3680   */\n      dup7\n        /* \"#utility.yul\":3667:3689   */\n      add\n        /* \"#utility.yul\":3636:3699   */\n      tag_89\n      jump\t// in\n    tag_173:\n        /* \"#utility.yul\":3626:3699   */\n      swap2\n      pop\n        /* \"#utility.yul\":3421:3709   */\n      pop\n        /* \"#utility.yul\":3062:3716   */\n      swap3\n      pop\n      swap3\n      swap1\n      pop\n      jump\t// out\n        /* \"#utility.yul\":3722:3836   */\n    tag_90:\n        /* \"#utility.yul\":3789:3795   */\n      0x00\n        /* \"#utility.yul\":3823:3828   */\n      dup2\n        /* \"#utility.yul\":3817:3829   */\n      mload\n        /* \"#utility.yul\":3807:3829   */\n      swap1\n      pop\n        /* \"#utility.yul\":3722:3836   */\n      swap2\n      swap1\n      pop\n      jump\t// out\n        /* \"#utility.yul\":3842:4026   */\n    tag_91:\n        /* \"#utility.yul\":3941:3952   */\n      0x00\n        /* \"#utility.yul\":3975:3981   */\n      dup3\n        /* \"#utility.yul\":3970:3973   */\n      dup3\n        /* \"#utility.yul\":3963:3982   */\n      mstore\n        /* \"#utility.yul\":4015:4019   */\n      0x20\n        /* \"#utility.yul\":4010:4013   */\n      dup3\n        /* \"#utility.yul\":4006:4020   */\n      add\n        /* \"#utility.yul\":3991:4020   */\n      swap1\n      pop\n        /* \"#utility.yul\":3842:4026   */\n      swap3\n      swap2\n      pop\n      pop\n      jump\t// out\n        /* \"#utility.yul\":4032:4164   */\n    tag_92:\n        /* \"#utility.yul\":4099:4103   */\n      0x00\n        /* \"#utility.yul\":4122:4125   */\n      dup2\n        /* \"#utility.yul\":4114:4125   */\n      swap1\n      pop\n        /* \"#utility.yul\":4152:4156   */\n      0x20\n        /* \"#utility.yul\":4147:4150   */\n      dup3\n        /* \"#utility.yul\":4143:4157   */\n      add\n        /* \"#utility.yul\":4135:4157   */\n      swap1\n      pop\n        /* \"#utility.yul\":4032:4164   */\n      swap2\n      swap1\n      pop\n      jump\t// out\n        /* \"#utility.yul\":4170:4278   */\n    tag_93:\n        /* \"#utility.yul\":4247:4271   */\n      tag_178\n        /* \"#utility.yul\":4265:4270   */\n      dup2\n        /* \"#utility.yul\":4247:4271   */\n      tag_77\n      jump\t// in\n    tag_178:\n        /* \"#utility.yul\":4242:4245   */\n      dup3\n        /* \"#utility.yul\":4235:4272   */\n      mstore\n        /* \"#utility.yul\":4170:4278   */\n      pop\n      pop\n      jump\t// out\n        /* \"#utility.yul\":4284:4463   */\n    tag_94:\n        /* \"#utility.yul\":4353:4363   */\n      0x00\n        /* \"#utility.yul\":4374:4420   */\n      tag_180\n        /* \"#utility.yul\":4416:4419   */\n      dup4\n        /* \"#utility.yul\":4408:4414   */\n      dup4\n        /* \"#utility.yul\":4374:4420   */\n      tag_93\n      jump\t// in\n    tag_180:\n        /* \"#utility.yul\":4452:4456   */\n      0x20\n        /* \"#utility.yul\":4447:4450   */\n      dup4\n        /* \"#utility.yul\":4443:4457   */\n      add\n        /* \"#utility.yul\":4429:4457   */\n      swap1\n      pop\n        /* \"#utility.yul\":4284:4463   */\n      swap3\n      swap2\n      pop\n      pop\n      jump\t// out\n        /* \"#utility.yul\":4469:4582   */\n    tag_95:\n        /* \"#utility.yul\":4539:4543   */\n      0x00\n        /* \"#utility.yul\":4571:4575   */\n      0x20\n        /* \"#utility.yul\":4566:4569   */\n      dup3\n        /* \"#utility.yul\":4562:4576   */\n      add\n        /* \"#utility.yul\":4554:4576   */\n      swap1\n      pop\n        /* \"#utility.yul\":4469:4582   */\n      swap2\n      swap1\n      pop\n      jump\t// out\n        /* \"#utility.yul\":4618:5350   */\n    tag_96:\n        /* \"#utility.yul\":4737:4740   */\n      0x00\n        /* \"#utility.yul\":4766:4820   */\n      tag_183\n        /* \"#utility.yul\":4814:4819   */\n      dup3\n        /* \"#utility.yul\":4766:4820   */\n      tag_90\n      jump\t// in\n    tag_183:\n        /* \"#utility.yul\":4836:4922   */\n      tag_184\n        /* \"#utility.yul\":4915:4921   */\n      dup2\n        /* \"#utility.yul\":4910:4913   */\n      dup6\n        /* \"#utility.yul\":4836:4922   */\n      tag_91\n      jump\t// in\n    tag_184:\n        /* \"#utility.yul\":4829:4922   */\n      swap4\n      pop\n        /* \"#utility.yul\":4946:5002   */\n      tag_185\n        /* \"#utility.yul\":4996:5001   */\n      dup4\n        /* \"#utility.yul\":4946:5002   */\n      tag_92\n      jump\t// in\n    tag_185:\n        /* \"#utility.yul\":5025:5032   */\n      dup1\n        /* \"#utility.yul\":5056:5057   */\n      0x00\n        /* \"#utility.yul\":5041:5325   */\n    tag_186:\n        /* \"#utility.yul\":5066:5072   */\n      dup4\n        /* \"#utility.yul\":5063:5064   */\n      dup2\n        /* \"#utility.yul\":5060:5073   */\n      lt\n        /* \"#utility.yul\":5041:5325   */\n      iszero\n      tag_188\n      jumpi\n        /* \"#utility.yul\":5142:5148   */\n      dup2\n        /* \"#utility.yul\":5136:5149   */\n      mload\n        /* \"#utility.yul\":5169:5232   */\n      tag_189\n        /* \"#utility.yul\":5228:5231   */\n      dup9\n        /* \"#utility.yul\":5213:5226   */\n      dup3\n        /* \"#utility.yul\":5169:5232   */\n      tag_94\n      jump\t// in\n    tag_189:\n        /* \"#utility.yul\":5162:5232   */\n      swap8\n      pop\n        /* \"#utility.yul\":5255:5315   */\n      tag_190\n        /* \"#utility.yul\":5308:5314   */\n      dup4\n        /* \"#utility.yul\":5255:5315   */\n      tag_95\n      jump\t// in\n    tag_190:\n        /* \"#utility.yul\":5245:5315   */\n      swap3\n      pop\n        /* \"#utility.yul\":5101:5325   */\n      pop\n        /* \"#utility.yul\":5088:5089   */\n      0x01\n        /* \"#utility.yul\":5085:5086   */\n      dup2\n        /* \"#utility.yul\":5081:5090   */\n      add\n        /* \"#utility.yul\":5076:5090   */\n      swap1\n      pop\n        /* \"#utility.yul\":5041:5325   */\n      jump(tag_186)\n    tag_188:\n        /* \"#utility.yul\":5045:5059   */\n      pop\n        /* \"#utility.yul\":5341:5344   */\n      dup6\n        /* \"#utility.yul\":5334:5344   */\n      swap4\n      pop\n        /* \"#utility.yul\":4742:5350   */\n      pop\n      pop\n      pop\n        /* \"#utility.yul\":4618:5350   */\n      swap3\n      swap2\n      pop\n      pop\n      jump\t// out\n        /* \"#utility.yul\":5356:5729   */\n    tag_16:\n        /* \"#utility.yul\":5499:5503   */\n      0x00\n        /* \"#utility.yul\":5537:5539   */\n      0x20\n        /* \"#utility.yul\":5526:5535   */\n      dup3\n        /* \"#utility.yul\":5522:5540   */\n      add\n        /* \"#utility.yul\":5514:5540   */\n      swap1\n      pop\n        /* \"#utility.yul\":5586:5595   */\n      dup2\n        /* \"#utility.yul\":5580:5584   */\n      dup2\n        /* \"#utility.yul\":5576:5596   */\n      sub\n        /* \"#utility.yul\":5572:5573   */\n      0x00\n        /* \"#utility.yul\":5561:5570   */\n      dup4\n        /* \"#utility.yul\":5557:5574   */\n      add\n        /* \"#utility.yul\":5550:5597   */\n      mstore\n        /* \"#utility.yul\":5614:5722   */\n      tag_192\n        /* \"#utility.yul\":5717:5721   */\n      dup2\n        /* \"#utility.yul\":5708:5714   */\n      dup5\n        /* \"#utility.yul\":5614:5722   */\n      tag_96\n      jump\t// in\n    tag_192:\n        /* \"#utility.yul\":5606:5722   */\n      swap1\n      pop\n        /* \"#utility.yul\":5356:5729   */\n      swap3\n      swap2\n      pop\n      pop\n      jump\t// out\n        /* \"#utility.yul\":5735:5825   */\n    tag_97:\n        /* \"#utility.yul\":5769:5776   */\n      0x00\n        /* \"#utility.yul\":5812:5817   */\n      dup2\n        /* \"#utility.yul\":5805:5818   */\n      iszero\n        /* \"#utility.yul\":5798:5819   */\n      iszero\n        /* \"#utility.yul\":5787:5819   */\n      swap1\n      pop\n        /* \"#utility.yul\":5735:5825   */\n      swap2\n      swap1\n      pop\n      jump\t// out\n        /* \"#utility.yul\":5831:5940   */\n    tag_98:\n        /* \"#utility.yul\":5912:5933   */\n      tag_195\n        /* \"#utility.yul\":5927:5932   */\n      dup2\n        /* \"#utility.yul\":5912:5933   */\n      tag_97\n      jump\t// in\n    tag_195:\n        /* \"#utility.yul\":5907:5910   */\n      dup3\n        /* \"#utility.yul\":5900:5934   */\n      mstore\n        /* \"#utility.yul\":5831:5940   */\n      pop\n      pop\n      jump\t// out\n        /* \"#utility.yul\":5946:6156   */\n    tag_20:\n        /* \"#utility.yul\":6033:6037   */\n      0x00\n        /* \"#utility.yul\":6071:6073   */\n      0x20\n        /* \"#utility.yul\":6060:6069   */\n      dup3\n        /* \"#utility.yul\":6056:6074   */\n      add\n        /* \"#utility.yul\":6048:6074   */\n      swap1\n      pop\n        /* \"#utility.yul\":6084:6149   */\n      tag_197\n        /* \"#utility.yul\":6146:6147   */\n      0x00\n        /* \"#utility.yul\":6135:6144   */\n      dup4\n        /* \"#utility.yul\":6131:6148   */\n      add\n        /* \"#utility.yul\":6122:6128   */\n      dup5\n        /* \"#utility.yul\":6084:6149   */\n      tag_98\n      jump\t// in\n    tag_197:\n        /* \"#utility.yul\":5946:6156   */\n      swap3\n      swap2\n      pop\n      pop\n      jump\t// out\n        /* \"#utility.yul\":6162:6239   */\n    tag_99:\n        /* \"#utility.yul\":6199:6206   */\n      0x00\n        /* \"#utility.yul\":6228:6233   */\n      dup2\n        /* \"#utility.yul\":6217:6233   */\n      swap1\n      pop\n        /* \"#utility.yul\":6162:6239   */\n      swap2\n      swap1\n      pop\n      jump\t// out\n        /* \"#utility.yul\":6245:6367   */\n    tag_100:\n        /* \"#utility.yul\":6318:6342   */\n      tag_200\n        /* \"#utility.yul\":6336:6341   */\n      dup2\n        /* \"#utility.yul\":6318:6342   */\n      tag_99\n      jump\t// in\n    tag_200:\n        /* \"#utility.yul\":6311:6316   */\n      dup2\n        /* \"#utility.yul\":6308:6343   */\n      eq\n        /* \"#utility.yul\":6298:6361   */\n      tag_201\n      jumpi\n        /* \"#utility.yul\":6357:6358   */\n      0x00\n        /* \"#utility.yul\":6354:6355   */\n      dup1\n        /* \"#utility.yul\":6347:6359   */\n      revert\n        /* \"#utility.yul\":6298:6361   */\n    tag_201:\n        /* \"#utility.yul\":6245:6367   */\n      pop\n      jump\t// out\n        /* \"#utility.yul\":6373:6512   */\n    tag_101:\n        /* \"#utility.yul\":6419:6424   */\n      0x00\n        /* \"#utility.yul\":6457:6463   */\n      dup2\n        /* \"#utility.yul\":6444:6464   */\n      calldataload\n        /* \"#utility.yul\":6435:6464   */\n      swap1\n      pop\n        /* \"#utility.yul\":6473:6506   */\n      tag_203\n        /* \"#utility.yul\":6500:6505   */\n      dup2\n        /* \"#utility.yul\":6473:6506   */\n      tag_100\n      jump\t// in\n    tag_203:\n        /* \"#utility.yul\":6373:6512   */\n      swap3\n      swap2\n      pop\n      pop\n      jump\t// out\n        /* \"#utility.yul\":6518:6847   */\n    tag_23:\n        /* \"#utility.yul\":6577:6583   */\n      0x00\n        /* \"#utility.yul\":6626:6628   */\n      0x20\n        /* \"#utility.yul\":6614:6623   */\n      dup3\n        /* \"#utility.yul\":6605:6612   */\n      dup5\n        /* \"#utility.yul\":6601:6624   */\n      sub\n        /* \"#utility.yul\":6597:6629   */\n      slt\n        /* \"#utility.yul\":6594:6713   */\n      iszero\n      tag_205\n      jumpi\n        /* \"#utility.yul\":6632:6711   */\n      tag_206\n      tag_74\n      jump\t// in\n    tag_206:\n        /* \"#utility.yul\":6594:6713   */\n    tag_205:\n        /* \"#utility.yul\":6752:6753   */\n      0x00\n        /* \"#utility.yul\":6777:6830   */\n      tag_207\n        /* \"#utility.yul\":6822:6829   */\n      dup5\n        /* \"#utility.yul\":6813:6819   */\n      dup3\n        /* \"#utility.yul\":6802:6811   */\n      dup6\n        /* \"#utility.yul\":6798:6820   */\n      add\n        /* \"#utility.yul\":6777:6830   */\n      tag_101\n      jump\t// in\n    tag_207:\n        /* \"#utility.yul\":6767:6830   */\n      swap2\n      pop\n        /* \"#utility.yul\":6723:6840   */\n      pop\n        /* \"#utility.yul\":6518:6847   */\n      swap3\n      swap2\n      pop\n      pop\n      jump\t// out\n        /* \"#utility.yul\":6853:6971   */\n    tag_102:\n        /* \"#utility.yul\":6940:6964   */\n      tag_209\n        /* \"#utility.yul\":6958:6963   */\n      dup2\n        /* \"#utility.yul\":6940:6964   */\n      tag_77\n      jump\t// in\n    tag_209:\n        /* \"#utility.yul\":6935:6938   */\n      dup3\n        /* \"#utility.yul\":6928:6965   */\n      mstore\n        /* \"#utility.yul\":6853:6971   */\n      pop\n      pop\n      jump\t// out\n        /* \"#utility.yul\":6977:7199   */\n    tag_26:\n        /* \"#utility.yul\":7070:7074   */\n      0x00\n        /* \"#utility.yul\":7108:7110   */\n      0x20\n        /* \"#utility.yul\":7097:7106   */\n      dup3\n        /* \"#utility.yul\":7093:7111   */\n      add\n        /* \"#utility.yul\":7085:7111   */\n      swap1\n      pop\n        /* \"#utility.yul\":7121:7192   */\n      tag_211\n        /* \"#utility.yul\":7189:7190   */\n      0x00\n        /* \"#utility.yul\":7178:7187   */\n      dup4\n        /* \"#utility.yul\":7174:7191   */\n      add\n        /* \"#utility.yul\":7165:7171   */\n      dup5\n        /* \"#utility.yul\":7121:7192   */\n      tag_102\n      jump\t// in\n    tag_211:\n        /* \"#utility.yul\":6977:7199   */\n      swap3\n      swap2\n      pop\n      pop\n      jump\t// out\n        /* \"#utility.yul\":7205:7534   */\n    tag_29:\n        /* \"#utility.yul\":7264:7270   */\n      0x00\n        /* \"#utility.yul\":7313:7315   */\n      0x20\n        /* \"#utility.yul\":7301:7310   */\n      dup3\n        /* \"#utility.yul\":7292:7299   */\n      dup5\n        /* \"#utility.yul\":7288:7311   */\n      sub\n        /* \"#utility.yul\":7284:7316   */\n      slt\n        /* \"#utility.yul\":7281:7400   */\n      iszero\n      tag_213\n      jumpi\n        /* \"#utility.yul\":7319:7398   */\n      tag_214\n      tag_74\n      jump\t// in\n    tag_214:\n        /* \"#utility.yul\":7281:7400   */\n    tag_213:\n        /* \"#utility.yul\":7439:7440   */\n      0x00\n        /* \"#utility.yul\":7464:7517   */\n      tag_215\n        /* \"#utility.yul\":7509:7516   */\n      dup5\n        /* \"#utility.yul\":7500:7506   */\n      dup3\n        /* \"#utility.yul\":7489:7498   */\n      dup6\n        /* \"#utility.yul\":7485:7507   */\n      add\n        /* \"#utility.yul\":7464:7517   */\n      tag_79\n      jump\t// in\n    tag_215:\n        /* \"#utility.yul\":7454:7517   */\n      swap2\n      pop\n        /* \"#utility.yul\":7410:7527   */\n      pop\n        /* \"#utility.yul\":7205:7534   */\n      swap3\n      swap2\n      pop\n      pop\n      jump\t// out\n        /* \"#utility.yul\":7540:7639   */\n    tag_103:\n        /* \"#utility.yul\":7592:7598   */\n      0x00\n        /* \"#utility.yul\":7626:7631   */\n      dup2\n        /* \"#utility.yul\":7620:7632   */\n      mload\n        /* \"#utility.yul\":7610:7632   */\n      swap1\n      pop\n        /* \"#utility.yul\":7540:7639   */\n      swap2\n      swap1\n      pop\n      jump\t// out\n        /* \"#utility.yul\":7645:7814   */\n    tag_104:\n        /* \"#utility.yul\":7729:7740   */\n      0x00\n        /* \"#utility.yul\":7763:7769   */\n      dup3\n        /* \"#utility.yul\":7758:7761   */\n      dup3\n        /* \"#utility.yul\":7751:7770   */\n      mstore\n        /* \"#utility.yul\":7803:7807   */\n      0x20\n        /* \"#utility.yul\":7798:7801   */\n      dup3\n        /* \"#utility.yul\":7794:7808   */\n      add\n        /* \"#utility.yul\":7779:7808   */\n      swap1\n      pop\n        /* \"#utility.yul\":7645:7814   */\n      swap3\n      swap2\n      pop\n      pop\n      jump\t// out\n        /* \"#utility.yul\":7820:7959   */\n    tag_105:\n        /* \"#utility.yul\":7909:7915   */\n      dup3\n        /* \"#utility.yul\":7904:7907   */\n      dup2\n        /* \"#utility.yul\":7899:7902   */\n      dup4\n        /* \"#utility.yul\":7893:7916   */\n      mcopy\n        /* \"#utility.yul\":7950:7951   */\n      0x00\n        /* \"#utility.yul\":7941:7947   */\n      dup4\n        /* \"#utility.yul\":7936:7939   */\n      dup4\n        /* \"#utility.yul\":7932:7948   */\n      add\n        /* \"#utility.yul\":7925:7952   */\n      mstore\n        /* \"#utility.yul\":7820:7959   */\n      pop\n      pop\n      pop\n      jump\t// out\n        /* \"#utility.yul\":7965:8342   */\n    tag_106:\n        /* \"#utility.yul\":8053:8056   */\n      0x00\n        /* \"#utility.yul\":8081:8120   */\n      tag_220\n        /* \"#utility.yul\":8114:8119   */\n      dup3\n        /* \"#utility.yul\":8081:8120   */\n      tag_103\n      jump\t// in\n    tag_220:\n        /* \"#utility.yul\":8136:8207   */\n      tag_221\n        /* \"#utility.yul\":8200:8206   */\n      dup2\n        /* \"#utility.yul\":8195:8198   */\n      dup6\n        /* \"#utility.yul\":8136:8207   */\n      tag_104\n      jump\t// in\n    tag_221:\n        /* \"#utility.yul\":8129:8207   */\n      swap4\n      pop\n        /* \"#utility.yul\":8216:8281   */\n      tag_222\n        /* \"#utility.yul\":8274:8280   */\n      dup2\n        /* \"#utility.yul\":8269:8272   */\n      dup6\n        /* \"#utility.yul\":8262:8266   */\n      0x20\n        /* \"#utility.yul\":8255:8260   */\n      dup7\n        /* \"#utility.yul\":8251:8267   */\n      add\n        /* \"#utility.yul\":8216:8281   */\n      tag_105\n      jump\t// in\n    tag_222:\n        /* \"#utility.yul\":8306:8335   */\n      tag_223\n        /* \"#utility.yul\":8328:8334   */\n      dup2\n        /* \"#utility.yul\":8306:8335   */\n      tag_82\n      jump\t// in\n    tag_223:\n        /* \"#utility.yul\":8301:8304   */\n      dup5\n        /* \"#utility.yul\":8297:8336   */\n      add\n        /* \"#utility.yul\":8290:8336   */\n      swap2\n      pop\n        /* \"#utility.yul\":8057:8342   */\n      pop\n        /* \"#utility.yul\":7965:8342   */\n      swap3\n      swap2\n      pop\n      pop\n      jump\t// out\n        /* \"#utility.yul\":8348:8661   */\n    tag_36:\n        /* \"#utility.yul\":8461:8465   */\n      0x00\n        /* \"#utility.yul\":8499:8501   */\n      0x20\n        /* \"#utility.yul\":8488:8497   */\n      dup3\n        /* \"#utility.yul\":8484:8502   */\n      add\n        /* \"#utility.yul\":8476:8502   */\n      swap1\n      pop\n        /* \"#utility.yul\":8548:8557   */\n      dup2\n        /* \"#utility.yul\":8542:8546   */\n      dup2\n        /* \"#utility.yul\":8538:8558   */\n      sub\n        /* \"#utility.yul\":8534:8535   */\n      0x00\n        /* \"#utility.yul\":8523:8532   */\n      dup4\n        /* \"#utility.yul\":8519:8536   */\n      add\n        /* \"#utility.yul\":8512:8559   */\n      mstore\n        /* \"#utility.yul\":8576:8654   */\n      tag_225\n        /* \"#utility.yul\":8649:8653   */\n      dup2\n        /* \"#utility.yul\":8640:8646   */\n      dup5\n        /* \"#utility.yul\":8576:8654   */\n      tag_106\n      jump\t// in\n    tag_225:\n        /* \"#utility.yul\":8568:8654   */\n      swap1\n      pop\n        /* \"#utility.yul\":8348:8661   */\n      swap3\n      swap2\n      pop\n      pop\n      jump\t// out\n        /* \"#utility.yul\":8667:8831   */\n    tag_107:\n        /* \"#utility.yul\":8807:8823   */\n      0x4f6e6c7920466f722041646d696e000000000000000000000000000000000000\n        /* \"#utility.yul\":8803:8804   */\n      0x00\n        /* \"#utility.yul\":8795:8801   */\n      dup3\n        /* \"#utility.yul\":8791:8805   */\n      add\n        /* \"#utility.yul\":8784:8824   */\n      mstore\n        /* \"#utility.yul\":8667:8831   */\n      pop\n      jump\t// out\n        /* \"#utility.yul\":8837:9203   */\n    tag_108:\n        /* \"#utility.yul\":8979:8982   */\n      0x00\n        /* \"#utility.yul\":9000:9067   */\n      tag_228\n        /* \"#utility.yul\":9064:9066   */\n      0x0e\n        /* \"#utility.yul\":9059:9062   */\n      dup4\n        /* \"#utility.yul\":9000:9067   */\n      tag_104\n      jump\t// in\n    tag_228:\n        /* \"#utility.yul\":8993:9067   */\n      swap2\n      pop\n        /* \"#utility.yul\":9076:9169   */\n      tag_229\n        /* \"#utility.yul\":9165:9168   */\n      dup3\n        /* \"#utility.yul\":9076:9169   */\n      tag_107\n      jump\t// in\n    tag_229:\n        /* \"#utility.yul\":9194:9196   */\n      0x20\n        /* \"#utility.yul\":9189:9192   */\n      dup3\n        /* \"#utility.yul\":9185:9197   */\n      add\n        /* \"#utility.yul\":9178:9197   */\n      swap1\n      pop\n        /* \"#utility.yul\":8837:9203   */\n      swap2\n      swap1\n      pop\n      jump\t// out\n        /* \"#utility.yul\":9209:9628   */\n    tag_42:\n        /* \"#utility.yul\":9375:9379   */\n      0x00\n        /* \"#utility.yul\":9413:9415   */\n      0x20\n        /* \"#utility.yul\":9402:9411   */\n      dup3\n        /* \"#utility.yul\":9398:9416   */\n      add\n        /* \"#utility.yul\":9390:9416   */\n      swap1\n      pop\n        /* \"#utility.yul\":9462:9471   */\n      dup2\n        /* \"#utility.yul\":9456:9460   */\n      dup2\n        /* \"#utility.yul\":9452:9472   */\n      sub\n        /* \"#utility.yul\":9448:9449   */\n      0x00\n        /* \"#utility.yul\":9437:9446   */\n      dup4\n        /* \"#utility.yul\":9433:9450   */\n      add\n        /* \"#utility.yul\":9426:9473   */\n      mstore\n        /* \"#utility.yul\":9490:9621   */\n      tag_231\n        /* \"#utility.yul\":9616:9620   */\n      dup2\n        /* \"#utility.yul\":9490:9621   */\n      tag_108\n      jump\t// in\n    tag_231:\n        /* \"#utility.yul\":9482:9621   */\n      swap1\n      pop\n        /* \"#utility.yul\":9209:9628   */\n      swap2\n      swap1\n      pop\n      jump\t// out\n        /* \"#utility.yul\":9634:9814   */\n    tag_109:\n        /* \"#utility.yul\":9682:9759   */\n      0x4e487b7100000000000000000000000000000000000000000000000000000000\n        /* \"#utility.yul\":9679:9680   */\n      0x00\n        /* \"#utility.yul\":9672:9760   */\n      mstore\n        /* \"#utility.yul\":9779:9783   */\n      0x22\n        /* \"#utility.yul\":9776:9777   */\n      0x04\n        /* \"#utility.yul\":9769:9784   */\n      mstore\n        /* \"#utility.yul\":9803:9807   */\n      0x24\n        /* \"#utility.yul\":9800:9801   */\n      0x00\n        /* \"#utility.yul\":9793:9808   */\n      revert\n        /* \"#utility.yul\":9820:10140   */\n    tag_59:\n        /* \"#utility.yul\":9864:9870   */\n      0x00\n        /* \"#utility.yul\":9901:9902   */\n      0x02\n        /* \"#utility.yul\":9895:9899   */\n      dup3\n        /* \"#utility.yul\":9891:9903   */\n      div\n        /* \"#utility.yul\":9881:9903   */\n      swap1\n      pop\n        /* \"#utility.yul\":9948:9949   */\n      0x01\n        /* \"#utility.yul\":9942:9946   */\n      dup3\n        /* \"#utility.yul\":9938:9950   */\n      and\n        /* \"#utility.yul\":9969:9987   */\n      dup1\n        /* \"#utility.yul\":9959:10040   */\n      tag_234\n      jumpi\n        /* \"#utility.yul\":10025:10029   */\n      0x7f\n        /* \"#utility.yul\":10017:10023   */\n      dup3\n        /* \"#utility.yul\":10013:10030   */\n      and\n        /* \"#utility.yul\":10003:10030   */\n      swap2\n      pop\n        /* \"#utility.yul\":9959:10040   */\n    tag_234:\n        /* \"#utility.yul\":10087:10089   */\n      0x20\n        /* \"#utility.yul\":10079:10085   */\n      dup3\n        /* \"#utility.yul\":10076:10090   */\n      lt\n        /* \"#utility.yul\":10056:10074   */\n      dup2\n        /* \"#utility.yul\":10053:10091   */\n      sub\n        /* \"#utility.yul\":10050:10134   */\n      tag_235\n      jumpi\n        /* \"#utility.yul\":10106:10124   */\n      tag_236\n      tag_109\n      jump\t// in\n    tag_236:\n        /* \"#utility.yul\":10050:10134   */\n    tag_235:\n        /* \"#utility.yul\":9871:10140   */\n      pop\n        /* \"#utility.yul\":9820:10140   */\n      swap2\n      swap1\n      pop\n      jump\t// out\n        /* \"#utility.yul\":10146:10287   */\n    tag_110:\n        /* \"#utility.yul\":10195:10199   */\n      0x00\n        /* \"#utility.yul\":10218:10221   */\n      dup2\n        /* \"#utility.yul\":10210:10221   */\n      swap1\n      pop\n        /* \"#utility.yul\":10241:10244   */\n      dup2\n        /* \"#utility.yul\":10238:10239   */\n      0x00\n        /* \"#utility.yul\":10231:10245   */\n      mstore\n        /* \"#utility.yul\":10275:10279   */\n      0x20\n        /* \"#utility.yul\":10272:10273   */\n      0x00\n        /* \"#utility.yul\":10262:10280   */\n      keccak256\n        /* \"#utility.yul\":10254:10280   */\n      swap1\n      pop\n        /* \"#utility.yul\":10146:10287   */\n      swap2\n      swap1\n      pop\n      jump\t// out\n        /* \"#utility.yul\":10293:10386   */\n    tag_111:\n        /* \"#utility.yul\":10330:10336   */\n      0x00\n        /* \"#utility.yul\":10377:10379   */\n      0x20\n        /* \"#utility.yul\":10372:10374   */\n      0x1f\n        /* \"#utility.yul\":10365:10370   */\n      dup4\n        /* \"#utility.yul\":10361:10375   */\n      add\n        /* \"#utility.yul\":10357:10380   */\n      div\n        /* \"#utility.yul\":10347:10380   */\n      swap1\n      pop\n        /* \"#utility.yul\":10293:10386   */\n      swap2\n      swap1\n      pop\n      jump\t// out\n        /* \"#utility.yul\":10392:10499   */\n    tag_112:\n        /* \"#utility.yul\":10436:10444   */\n      0x00\n        /* \"#utility.yul\":10486:10491   */\n      dup3\n        /* \"#utility.yul\":10480:10484   */\n      dup3\n        /* \"#utility.yul\":10476:10492   */\n      shl\n        /* \"#utility.yul\":10455:10492   */\n      swap1\n      pop\n        /* \"#utility.yul\":10392:10499   */\n      swap3\n      swap2\n      pop\n      pop\n      jump\t// out\n        /* \"#utility.yul\":10505:10898   */\n    tag_113:\n        /* \"#utility.yul\":10574:10580   */\n      0x00\n        /* \"#utility.yul\":10624:10625   */\n      0x08\n        /* \"#utility.yul\":10612:10622   */\n      dup4\n        /* \"#utility.yul\":10608:10626   */\n      mul\n        /* \"#utility.yul\":10647:10744   */\n      tag_241\n        /* \"#utility.yul\":10677:10743   */\n      0xffffffffffffffffffffffffffffffffffffffffffffffffffffffffffffffff\n        /* \"#utility.yul\":10666:10675   */\n      dup3\n        /* \"#utility.yul\":10647:10744   */\n      tag_112\n      jump\t// in\n    tag_241:\n        /* \"#utility.yul\":10765:10804   */\n      tag_242\n        /* \"#utility.yul\":10795:10803   */\n      dup7\n        /* \"#utility.yul\":10784:10793   */\n      dup4\n        /* \"#utility.yul\":10765:10804   */\n      tag_112\n      jump\t// in\n    tag_242:\n        /* \"#utility.yul\":10753:10804   */\n      swap6\n      pop\n        /* \"#utility.yul\":10837:10841   */\n      dup1\n        /* \"#utility.yul\":10833:10842   */\n      not\n        /* \"#utility.yul\":10826:10831   */\n      dup5\n        /* \"#utility.yul\":10822:10843   */\n      and\n        /* \"#utility.yul\":10813:10843   */\n      swap4\n      pop\n        /* \"#utility.yul\":10886:10890   */\n      dup1\n        /* \"#utility.yul\":10876:10884   */\n      dup7\n        /* \"#utility.yul\":10872:10891   */\n      and\n        /* \"#utility.yul\":10865:10870   */\n      dup5\n        /* \"#utility.yul\":10862:10892   */\n      or\n        /* \"#utility.yul\":10852:10892   */\n      swap3\n      pop\n        /* \"#utility.yul\":10581:10898   */\n      pop\n      pop\n        /* \"#utility.yul\":10505:10898   */\n      swap4\n      swap3\n      pop\n      pop\n      pop\n      jump\t// out\n        /* \"#utility.yul\":10904:10964   */\n    tag_114:\n        /* \"#utility.yul\":10932:10935   */\n      0x00\n        /* \"#utility.yul\":10953:10958   */\n      dup2\n        /* \"#utility.yul\":10946:10958   */\n      swap1\n      pop\n        /* \"#utility.yul\":10904:10964   */\n      swap2\n      swap1\n      pop\n      jump\t// out\n        /* \"#utility.yul\":10970:11112   */\n    tag_115:\n        /* \"#utility.yul\":11020:11029   */\n      0x00\n        /* \"#utility.yul\":11053:11106   */\n      tag_245\n        /* \"#utility.yul\":11071:11105   */\n      tag_246\n        /* \"#utility.yul\":11080:11104   */\n      tag_247\n        /* \"#utility.yul\":11098:11103   */\n      dup5\n        /* \"#utility.yul\":11080:11104   */\n      tag_99\n      jump\t// in\n    tag_247:\n        /* \"#utility.yul\":11071:11105   */\n      tag_114\n      jump\t// in\n    tag_246:\n        /* \"#utility.yul\":11053:11106   */\n      tag_99\n      jump\t// in\n    tag_245:\n        /* \"#utility.yul\":11040:11106   */\n      swap1\n      pop\n        /* \"#utility.yul\":10970:11112   */\n      swap2\n      swap1\n      pop\n      jump\t// out\n        /* \"#utility.yul\":11118:11193   */\n    tag_116:\n        /* \"#utility.yul\":11161:11164   */\n      0x00\n        /* \"#utility.yul\":11182:11187   */\n      dup2\n        /* \"#utility.yul\":11175:11187   */\n      swap1\n      pop\n        /* \"#utility.yul\":11118:11193   */\n      swap2\n      swap1\n      pop\n      jump\t// out\n        /* \"#utility.yul\":11199:11468   */\n    tag_117:\n        /* \"#utility.yul\":11309:11348   */\n      tag_250\n        /* \"#utility.yul\":11340:11347   */\n      dup4\n        /* \"#utility.yul\":11309:11348   */\n      tag_115\n      jump\t// in\n    tag_250:\n        /* \"#utility.yul\":11370:11461   */\n      tag_251\n        /* \"#utility.yul\":11419:11460   */\n      tag_252\n        /* \"#utility.yul\":11443:11459   */\n      dup3\n        /* \"#utility.yul\":11419:11460   */\n      tag_116\n      jump\t// in\n    tag_252:\n        /* \"#utility.yul\":11411:11417   */\n      dup5\n        /* \"#utility.yul\":11404:11408   */\n      dup5\n        /* \"#utility.yul\":11398:11409   */\n      sload\n        /* \"#utility.yul\":11370:11461   */\n      tag_113\n      jump\t// in\n    tag_251:\n        /* \"#utility.yul\":11364:11368   */\n      dup3\n        /* \"#utility.yul\":11357:11462   */\n      sstore\n        /* \"#utility.yul\":11275:11468   */\n      pop\n        /* \"#utility.yul\":11199:11468   */\n      pop\n      pop\n      pop\n      jump\t// out\n        /* \"#utility.yul\":11474:11547   */\n    tag_118:\n        /* \"#utility.yul\":11519:11522   */\n      0x00\n        /* \"#utility.yul\":11474:11547   */\n      swap1\n      jump\t// out\n        /* \"#utility.yul\":11553:11742   */\n    tag_119:\n        /* \"#utility.yul\":11630:11662   */\n      tag_255\n      tag_118\n      jump\t// in\n    tag_255:\n        /* \"#utility.yul\":11671:11736   */\n      tag_256\n        /* \"#utility.yul\":11729:11735   */\n      dup2\n        /* \"#utility.yul\":11721:11727   */\n      dup5\n        /* \"#utility.yul\":11715:11719   */\n      dup5\n        /* \"#utility.yul\":11671:11736   */\n      tag_117\n      jump\t// in\n    tag_256:\n        /* \"#utility.yul\":11606:11742   */\n      pop\n        /* \"#utility.yul\":11553:11742   */\n      pop\n      pop\n      jump\t// out\n        /* \"#utility.yul\":11748:11934   */\n    tag_120:\n        /* \"#utility.yul\":11808:11928   */\n    tag_258:\n        /* \"#utility.yul\":11825:11828   */\n      dup2\n        /* \"#utility.yul\":11818:11823   */\n      dup2\n        /* \"#utility.yul\":11815:11829   */\n      lt\n        /* \"#utility.yul\":11808:11928   */\n      iszero\n      tag_260\n      jumpi\n        /* \"#utility.yul\":11879:11918   */\n      tag_261\n        /* \"#utility.yul\":11916:11917   */\n      0x00\n        /* \"#utility.yul\":11909:11914   */\n      dup3\n        /* \"#utility.yul\":11879:11918   */\n      tag_119\n      jump\t// in\n    tag_261:\n        /* \"#utility.yul\":11852:11853   */\n      0x01\n        /* \"#utility.yul\":11845:11850   */\n      dup2\n        /* \"#utility.yul\":11841:11854   */\n      add\n        /* \"#utility.yul\":11832:11854   */\n      swap1\n      pop\n        /* \"#utility.yul\":11808:11928   */\n      jump(tag_258)\n    tag_260:\n        /* \"#utility.yul\":11748:11934   */\n      pop\n      pop\n      jump\t// out\n        /* \"#utility.yul\":11940:12483   */\n    tag_121:\n        /* \"#utility.yul\":12041:12043   */\n      0x1f\n        /* \"#utility.yul\":12036:12039   */\n      dup3\n        /* \"#utility.yul\":12033:12044   */\n      gt\n        /* \"#utility.yul\":12030:12476   */\n      iszero\n      tag_263\n      jumpi\n        /* \"#utility.yul\":12075:12113   */\n      tag_264\n        /* \"#utility.yul\":12107:12112   */\n      dup2\n        /* \"#utility.yul\":12075:12113   */\n      tag_110\n      jump\t// in\n    tag_264:\n        /* \"#utility.yul\":12159:12188   */\n      tag_265\n        /* \"#utility.yul\":12177:12187   */\n      dup5\n        /* \"#utility.yul\":12159:12188   */\n      tag_111\n      jump\t// in\n    tag_265:\n        /* \"#utility.yul\":12149:12157   */\n      dup2\n        /* \"#utility.yul\":12145:12189   */\n      add\n        /* \"#utility.yul\":12342:12344   */\n      0x20\n        /* \"#utility.yul\":12330:12340   */\n      dup6\n        /* \"#utility.yul\":12327:12345   */\n      lt\n        /* \"#utility.yul\":12324:12373   */\n      iszero\n      tag_266\n      jumpi\n        /* \"#utility.yul\":12363:12371   */\n      dup2\n        /* \"#utility.yul\":12348:12371   */\n      swap1\n      pop\n        /* \"#utility.yul\":12324:12373   */\n    tag_266:\n        /* \"#utility.yul\":12386:12466   */\n      tag_267\n        /* \"#utility.yul\":12442:12464   */\n      tag_268\n        /* \"#utility.yul\":12460:12463   */\n      dup6\n        /* \"#utility.yul\":12442:12464   */\n      tag_111\n      jump\t// in\n    tag_268:\n        /* \"#utility.yul\":12432:12440   */\n      dup4\n        /* \"#utility.yul\":12428:12465   */\n      add\n        /* \"#utility.yul\":12415:12426   */\n      dup3\n        /* \"#utility.yul\":12386:12466   */\n      tag_120\n      jump\t// in\n    tag_267:\n        /* \"#utility.yul\":12045:12476   */\n      pop\n      pop\n        /* \"#utility.yul\":12030:12476   */\n    tag_263:\n        /* \"#utility.yul\":11940:12483   */\n      pop\n      pop\n      pop\n      jump\t// out\n        /* \"#utility.yul\":12489:12606   */\n    tag_122:\n        /* \"#utility.yul\":12543:12551   */\n      0x00\n        /* \"#utility.yul\":12593:12598   */\n      dup3\n        /* \"#utility.yul\":12587:12591   */\n      dup3\n        /* \"#utility.yul\":12583:12599   */\n      shr\n        /* \"#utility.yul\":12562:12599   */\n      swap1\n      pop\n        /* \"#utility.yul\":12489:12606   */\n      swap3\n      swap2\n      pop\n      pop\n      jump\t// out\n        /* \"#utility.yul\":12612:12781   */\n    tag_123:\n        /* \"#utility.yul\":12656:12662   */\n      0x00\n        /* \"#utility.yul\":12689:12740   */\n      tag_271\n        /* \"#utility.yul\":12737:12738   */\n      0x00\n        /* \"#utility.yul\":12733:12739   */\n      not\n        /* \"#utility.yul\":12725:12730   */\n      dup5\n        /* \"#utility.yul\":12722:12723   */\n      0x08\n        /* \"#utility.yul\":12718:12731   */\n      mul\n        /* \"#utility.yul\":12689:12740   */\n      tag_122\n      jump\t// in\n    tag_271:\n        /* \"#utility.yul\":12685:12741   */\n      not\n        /* \"#utility.yul\":12770:12774   */\n      dup1\n        /* \"#utility.yul\":12764:12768   */\n      dup4\n        /* \"#utility.yul\":12760:12775   */\n      and\n        /* \"#utility.yul\":12750:12775   */\n      swap2\n      pop\n        /* \"#utility.yul\":12663:12781   */\n      pop\n        /* \"#utility.yul\":12612:12781   */\n      swap3\n      swap2\n      pop\n      pop\n      jump\t// out\n        /* \"#utility.yul\":12786:13081   */\n    tag_124:\n        /* \"#utility.yul\":12862:12866   */\n      0x00\n        /* \"#utility.yul\":13008:13037   */\n      tag_273\n        /* \"#utility.yul\":13033:13036   */\n      dup4\n        /* \"#utility.yul\":13027:13031   */\n      dup4\n        /* \"#utility.yul\":13008:13037   */\n      tag_123\n      jump\t// in\n    tag_273:\n        /* \"#utility.yul\":13000:13037   */\n      swap2\n      pop\n        /* \"#utility.yul\":13070:13073   */\n      dup3\n        /* \"#utility.yul\":13067:13068   */\n      0x02\n        /* \"#utility.yul\":13063:13074   */\n      mul\n        /* \"#utility.yul\":13057:13061   */\n      dup3\n        /* \"#utility.yul\":13054:13075   */\n      or\n        /* \"#utility.yul\":13046:13075   */\n      swap1\n      pop\n        /* \"#utility.yul\":12786:13081   */\n      swap3\n      swap2\n      pop\n      pop\n      jump\t// out\n        /* \"#utility.yul\":13086:14481   */\n    tag_44:\n        /* \"#utility.yul\":13203:13240   */\n      tag_275\n        /* \"#utility.yul\":13236:13239   */\n      dup3\n        /* \"#utility.yul\":13203:13240   */\n      tag_103\n      jump\t// in\n    tag_275:\n        /* \"#utility.yul\":13305:13323   */\n      0xffffffffffffffff\n        /* \"#utility.yul\":13297:13303   */\n      dup2\n        /* \"#utility.yul\":13294:13324   */\n      gt\n        /* \"#utility.yul\":13291:13347   */\n      iszero\n      tag_276\n      jumpi\n        /* \"#utility.yul\":13327:13345   */\n      tag_277\n      tag_83\n      jump\t// in\n    tag_277:\n        /* \"#utility.yul\":13291:13347   */\n    tag_276:\n        /* \"#utility.yul\":13371:13409   */\n      tag_278\n        /* \"#utility.yul\":13403:13407   */\n      dup3\n        /* \"#utility.yul\":13397:13408   */\n      sload\n        /* \"#utility.yul\":13371:13409   */\n      tag_59\n      jump\t// in\n    tag_278:\n        /* \"#utility.yul\":13456:13523   */\n      tag_279\n        /* \"#utility.yul\":13516:13522   */\n      dup3\n        /* \"#utility.yul\":13508:13514   */\n      dup3\n        /* \"#utility.yul\":13502:13506   */\n      dup6\n        /* \"#utility.yul\":13456:13523   */\n      tag_121\n      jump\t// in\n    tag_279:\n        /* \"#utility.yul\":13550:13551   */\n      0x00\n        /* \"#utility.yul\":13574:13578   */\n      0x20\n        /* \"#utility.yul\":13561:13578   */\n      swap1\n      pop\n        /* \"#utility.yul\":13606:13608   */\n      0x1f\n        /* \"#utility.yul\":13598:13604   */\n      dup4\n        /* \"#utility.yul\":13595:13609   */\n      gt\n        /* \"#utility.yul\":13623:13624   */\n      0x01\n        /* \"#utility.yul\":13618:14236   */\n      dup2\n      eq\n      tag_281\n      jumpi\n        /* \"#utility.yul\":14280:14281   */\n      0x00\n        /* \"#utility.yul\":14297:14303   */\n      dup5\n        /* \"#utility.yul\":14294:14371   */\n      iszero\n      tag_282\n      jumpi\n        /* \"#utility.yul\":14346:14355   */\n      dup3\n        /* \"#utility.yul\":14341:14344   */\n      dup8\n        /* \"#utility.yul\":14337:14356   */\n      add\n        /* \"#utility.yul\":14331:14357   */\n      mload\n        /* \"#utility.yul\":14322:14357   */\n      swap1\n      pop\n        /* \"#utility.yul\":14294:14371   */\n    tag_282:\n        /* \"#utility.yul\":14397:14464   */\n      tag_283\n        /* \"#utility.yul\":14457:14463   */\n      dup6\n        /* \"#utility.yul\":14450:14455   */\n      dup3\n        /* \"#utility.yul\":14397:14464   */\n      tag_124\n      jump\t// in\n    tag_283:\n        /* \"#utility.yul\":14391:14395   */\n      dup7\n        /* \"#utility.yul\":14384:14465   */\n      sstore\n        /* \"#utility.yul\":14253:14475   */\n      pop\n        /* \"#utility.yul\":13588:14475   */\n      jump(tag_280)\n        /* \"#utility.yul\":13618:14236   */\n    tag_281:\n        /* \"#utility.yul\":13670:13674   */\n      0x1f\n        /* \"#utility.yul\":13666:13675   */\n      not\n        /* \"#utility.yul\":13658:13664   */\n      dup5\n        /* \"#utility.yul\":13654:13676   */\n      and\n        /* \"#utility.yul\":13704:13741   */\n      tag_284\n        /* \"#utility.yul\":13736:13740   */\n      dup7\n        /* \"#utility.yul\":13704:13741   */\n      tag_110\n      jump\t// in\n    tag_284:\n        /* \"#utility.yul\":13763:13764   */\n      0x00\n        /* \"#utility.yul\":13777:13985   */\n    tag_285:\n        /* \"#utility.yul\":13791:13798   */\n      dup3\n        /* \"#utility.yul\":13788:13789   */\n      dup2\n        /* \"#utility.yul\":13785:13799   */\n      lt\n        /* \"#utility.yul\":13777:13985   */\n      iszero\n      tag_287\n      jumpi\n        /* \"#utility.yul\":13870:13879   */\n      dup5\n        /* \"#utility.yul\":13865:13868   */\n      dup10\n        /* \"#utility.yul\":13861:13880   */\n      add\n        /* \"#utility.yul\":13855:13881   */\n      mload\n        /* \"#utility.yul\":13847:13853   */\n      dup3\n        /* \"#utility.yul\":13840:13882   */\n      sstore\n        /* \"#utility.yul\":13921:13922   */\n      0x01\n        /* \"#utility.yul\":13913:13919   */\n      dup3\n        /* \"#utility.yul\":13909:13923   */\n      add\n        /* \"#utility.yul\":13899:13923   */\n      swap2\n      pop\n        /* \"#utility.yul\":13968:13970   */\n      0x20\n        /* \"#utility.yul\":13957:13966   */\n      dup6\n        /* \"#utility.yul\":13953:13971   */\n      add\n        /* \"#utility.yul\":13940:13971   */\n      swap5\n      pop\n        /* \"#utility.yul\":13814:13818   */\n      0x20\n        /* \"#utility.yul\":13811:13812   */\n      dup2\n        /* \"#utility.yul\":13807:13819   */\n      add\n        /* \"#utility.yul\":13802:13819   */\n      swap1\n      pop\n        /* \"#utility.yul\":13777:13985   */\n      jump(tag_285)\n    tag_287:\n        /* \"#utility.yul\":14013:14019   */\n      dup7\n        /* \"#utility.yul\":14004:14011   */\n      dup4\n        /* \"#utility.yul\":14001:14020   */\n      lt\n        /* \"#utility.yul\":13998:14177   */\n      iszero\n      tag_288\n      jumpi\n        /* \"#utility.yul\":14071:14080   */\n      dup5\n        /* \"#utility.yul\":14066:14069   */\n      dup10\n        /* \"#utility.yul\":14062:14081   */\n      add\n        /* \"#utility.yul\":14056:14082   */\n      mload\n        /* \"#utility.yul\":14114:14162   */\n      tag_289\n        /* \"#utility.yul\":14156:14160   */\n      0x1f\n        /* \"#utility.yul\":14148:14154   */\n      dup10\n        /* \"#utility.yul\":14144:14161   */\n      and\n        /* \"#utility.yul\":14133:14142   */\n      dup3\n        /* \"#utility.yul\":14114:14162   */\n      tag_123\n      jump\t// in\n    tag_289:\n        /* \"#utility.yul\":14106:14112   */\n      dup4\n        /* \"#utility.yul\":14099:14163   */\n      sstore\n        /* \"#utility.yul\":14021:14177   */\n      pop\n        /* \"#utility.yul\":13998:14177   */\n    tag_288:\n        /* \"#utility.yul\":14223:14224   */\n      0x01\n        /* \"#utility.yul\":14219:14220   */\n      0x02\n        /* \"#utility.yul\":14211:14217   */\n      dup9\n        /* \"#utility.yul\":14207:14221   */\n      mul\n        /* \"#utility.yul\":14203:14225   */\n      add\n        /* \"#utility.yul\":14197:14201   */\n      dup9\n        /* \"#utility.yul\":14190:14226   */\n      sstore\n        /* \"#utility.yul\":13625:14236   */\n      pop\n      pop\n      pop\n        /* \"#utility.yul\":13588:14475   */\n    tag_280:\n      pop\n        /* \"#utility.yul\":13178:14481   */\n      pop\n      pop\n      pop\n        /* \"#utility.yul\":13086:14481   */\n      pop\n      pop\n      jump\t// out\n        /* \"#utility.yul\":14487:14708   */\n    tag_125:\n        /* \"#utility.yul\":14627:14661   */\n      0x526f6c65733a206163636f756e7420697320746865207a65726f206164647265\n        /* \"#utility.yul\":14623:14624   */\n      0x00\n        /* \"#utility.yul\":14615:14621   */\n      dup3\n        /* \"#utility.yul\":14611:14625   */\n      add\n        /* \"#utility.yul\":14604:14662   */\n      mstore\n        /* \"#utility.yul\":14696:14700   */\n      0x7373000000000000000000000000000000000000000000000000000000000000\n        /* \"#utility.yul\":14691:14693   */\n      0x20\n        /* \"#utility.yul\":14683:14689   */\n      dup3\n        /* \"#utility.yul\":14679:14694   */\n      add\n        /* \"#utility.yul\":14672:14701   */\n      mstore\n        /* \"#utility.yul\":14487:14708   */\n      pop\n      jump\t// out\n        /* \"#utility.yul\":14714:15080   */\n    tag_126:\n        /* \"#utility.yul\":14856:14859   */\n      0x00\n        /* \"#utility.yul\":14877:14944   */\n      tag_292\n        /* \"#utility.yul\":14941:14943   */\n      0x22\n        /* \"#utility.yul\":14936:14939   */\n      dup4\n        /* \"#utility.yul\":14877:14944   */\n      tag_104\n      jump\t// in\n    tag_292:\n        /* \"#utility.yul\":14870:14944   */\n      swap2\n      pop\n        /* \"#utility.yul\":14953:15046   */\n      tag_293\n        /* \"#utility.yul\":15042:15045   */\n      dup3\n        /* \"#utility.yul\":14953:15046   */\n      tag_125\n      jump\t// in\n    tag_293:\n        /* \"#utility.yul\":15071:15073   */\n      0x40\n        /* \"#utility.yul\":15066:15069   */\n      dup3\n        /* \"#utility.yul\":15062:15074   */\n      add\n        /* \"#utility.yul\":15055:15074   */\n      swap1\n      pop\n        /* \"#utility.yul\":14714:15080   */\n      swap2\n      swap1\n      pop\n      jump\t// out\n        /* \"#utility.yul\":15086:15505   */\n    tag_67:\n        /* \"#utility.yul\":15252:15256   */\n      0x00\n        /* \"#utility.yul\":15290:15292   */\n      0x20\n        /* \"#utility.yul\":15279:15288   */\n      dup3\n        /* \"#utility.yul\":15275:15293   */\n      add\n        /* \"#utility.yul\":15267:15293   */\n      swap1\n      pop\n        /* \"#utility.yul\":15339:15348   */\n      dup2\n        /* \"#utility.yul\":15333:15337   */\n      dup2\n        /* \"#utility.yul\":15329:15349   */\n      sub\n        /* \"#utility.yul\":15325:15326   */\n      0x00\n        /* \"#utility.yul\":15314:15323   */\n      dup4\n        /* \"#utility.yul\":15310:15327   */\n      add\n        /* \"#utility.yul\":15303:15350   */\n      mstore\n        /* \"#utility.yul\":15367:15498   */\n      tag_295\n        /* \"#utility.yul\":15493:15497   */\n      dup2\n        /* \"#utility.yul\":15367:15498   */\n      tag_126\n      jump\t// in\n    tag_295:\n        /* \"#utility.yul\":15359:15498   */\n      swap1\n      pop\n        /* \"#utility.yul\":15086:15505   */\n      swap2\n      swap1\n      pop\n      jump\t// out\n        /* \"#utility.yul\":15511:15692   */\n    tag_127:\n        /* \"#utility.yul\":15651:15684   */\n      0x526f6c65733a206163636f756e7420616c72656164792068617320726f6c6500\n        /* \"#utility.yul\":15647:15648   */\n      0x00\n        /* \"#utility.yul\":15639:15645   */\n      dup3\n        /* \"#utility.yul\":15635:15649   */\n      add\n        /* \"#utility.yul\":15628:15685   */\n      mstore\n        /* \"#utility.yul\":15511:15692   */\n      pop\n      jump\t// out\n        /* \"#utility.yul\":15698:16064   */\n    tag_128:\n        /* \"#utility.yul\":15840:15843   */\n      0x00\n        /* \"#utility.yul\":15861:15928   */\n      tag_298\n        /* \"#utility.yul\":15925:15927   */\n      0x1f\n        /* \"#utility.yul\":15920:15923   */\n      dup4\n        /* \"#utility.yul\":15861:15928   */\n      tag_104\n      jump\t// in\n    tag_298:\n        /* \"#utility.yul\":15854:15928   */\n      swap2\n      pop\n        /* \"#utility.yul\":15937:16030   */\n      tag_299\n        /* \"#utility.yul\":16026:16029   */\n      dup3\n        /* \"#utility.yul\":15937:16030   */\n      tag_127\n      jump\t// in\n    tag_299:\n        /* \"#utility.yul\":16055:16057   */\n      0x20\n        /* \"#utility.yul\":16050:16053   */\n      dup3\n        /* \"#utility.yul\":16046:16058   */\n      add\n        /* \"#utility.yul\":16039:16058   */\n      swap1\n      pop\n        /* \"#utility.yul\":15698:16064   */\n      swap2\n      swap1\n      pop\n      jump\t// out\n        /* \"#utility.yul\":16070:16489   */\n    tag_72:\n        /* \"#utility.yul\":16236:16240   */\n      0x00\n        /* \"#utility.yul\":16274:16276   */\n      0x20\n        /* \"#utility.yul\":16263:16272   */\n      dup3\n        /* \"#utility.yul\":16259:16277   */\n      add\n        /* \"#utility.yul\":16251:16277   */\n      swap1\n      pop\n        /* \"#utility.yul\":16323:16332   */\n      dup2\n        /* \"#utility.yul\":16317:16321   */\n      dup2\n        /* \"#utility.yul\":16313:16333   */\n      sub\n        /* \"#utility.yul\":16309:16310   */\n      0x00\n        /* \"#utility.yul\":16298:16307   */\n      dup4\n        /* \"#utility.yul\":16294:16311   */\n      add\n        /* \"#utility.yul\":16287:16334   */\n      mstore\n        /* \"#utility.yul\":16351:16482   */\n      tag_301\n        /* \"#utility.yul\":16477:16481   */\n      dup2\n        /* \"#utility.yul\":16351:16482   */\n      tag_128\n      jump\t// in\n    tag_301:\n        /* \"#utility.yul\":16343:16482   */\n      swap1\n      pop\n        /* \"#utility.yul\":16070:16489   */\n      swap2\n      swap1\n      pop\n      jump\t// out\n\n    auxdata: 0xa26469706673582212207b9fc4868add9372985bdfea2b61a882c1c5ebe45e5f28aa7267a4ad33e9a25a64736f6c634300081a0033\n}\n",
				"bytecode": {
					"linkReferences": {},
					"object": "608060405234801561000f575f80fd5b50610023335f61002860201b90919060201c565b61029a565b61003882826100d260201b60201c565b15610078576040517f08c379a000000000000000000000000000000000000000000000000000000000815260040161006f906101ee565b60405180910390fd5b6001825f015f8373ffffffffffffffffffffffffffffffffffffffff1673ffffffffffffffffffffffffffffffffffffffff1681526020019081526020015f205f6101000a81548160ff0219169083151502179055505050565b5f8073ffffffffffffffffffffffffffffffffffffffff168273ffffffffffffffffffffffffffffffffffffffff1603610141576040517f08c379a00000000000000000000000000000000000000000000000000000000081526004016101389061027c565b60405180910390fd5b825f015f8373ffffffffffffffffffffffffffffffffffffffff1673ffffffffffffffffffffffffffffffffffffffff1681526020019081526020015f205f9054906101000a900460ff16905092915050565b5f82825260208201905092915050565b7f526f6c65733a206163636f756e7420616c72656164792068617320726f6c65005f82015250565b5f6101d8601f83610194565b91506101e3826101a4565b602082019050919050565b5f6020820190508181035f830152610205816101cc565b9050919050565b7f526f6c65733a206163636f756e7420697320746865207a65726f2061646472655f8201527f7373000000000000000000000000000000000000000000000000000000000000602082015250565b5f610266602283610194565b91506102718261020c565b604082019050919050565b5f6020820190508181035f8301526102938161025a565b9050919050565b610e74806102a75f395ff3fe608060405234801561000f575f80fd5b5060043610610060575f3560e01c806317335a95146100645780631da3e2dc14610080578063b6db75a01461009e578063bb13227c146100bc578063be956873146100ec578063d4fd45c41461011c575b5f80fd5b61007e60048036038101906100799190610782565b61014c565b005b6100886102aa565b6040516100959190610893565b60405180910390f35b6100a6610335565b6040516100b391906108cd565b60405180910390f35b6100d660048036038101906100d19190610919565b61034e565b6040516100e39190610953565b60405180910390f35b6101066004803603810190610101919061096c565b610389565b60405161011391906108cd565b60405180910390f35b6101366004803603810190610131919061096c565b6103a5565b60405161014391906109f7565b60405180910390f35b61015f335f61047590919063ffffffff16565b61019e576040517f08c379a000000000000000000000000000000000000000000000000000000000815260040161019590610a61565b60405180910390fd5b5f60025f8473ffffffffffffffffffffffffffffffffffffffff1673ffffffffffffffffffffffffffffffffffffffff1681526020019081526020015f20905082815f015f6101000a81548173ffffffffffffffffffffffffffffffffffffffff021916908373ffffffffffffffffffffffffffffffffffffffff160217905550818160010190816102309190610c79565b50600383908060018154018082558091505060019003905f5260205f20015f9091909190916101000a81548173ffffffffffffffffffffffffffffffffffffffff021916908373ffffffffffffffffffffffffffffffffffffffff1602179055506102a583600161053790919063ffffffff16565b505050565b6060600380548060200260200160405190810160405280929190818152602001828054801561032b57602002820191905f5260205f20905b815f9054906101000a900473ffffffffffffffffffffffffffffffffffffffff1673ffffffffffffffffffffffffffffffffffffffff16815260200190600101908083116102e2575b5050505050905090565b5f610349335f61047590919063ffffffff16565b905090565b6003818154811061035d575f80fd5b905f5260205f20015f915054906101000a900473ffffffffffffffffffffffffffffffffffffffff1681565b5f61039e82600161047590919063ffffffff16565b9050919050565b606060025f8373ffffffffffffffffffffffffffffffffffffffff1673ffffffffffffffffffffffffffffffffffffffff1681526020019081526020015f2060010180546103f290610aac565b80601f016020809104026020016040519081016040528092919081815260200182805461041e90610aac565b80156104695780601f1061044057610100808354040283529160200191610469565b820191905f5260205f20905b81548152906001019060200180831161044c57829003601f168201915b50505050509050919050565b5f8073ffffffffffffffffffffffffffffffffffffffff168273ffffffffffffffffffffffffffffffffffffffff16036104e4576040517f08c379a00000000000000000000000000000000000000000000000000000000081526004016104db90610db8565b60405180910390fd5b825f015f8373ffffffffffffffffffffffffffffffffffffffff1673ffffffffffffffffffffffffffffffffffffffff1681526020019081526020015f205f9054906101000a900460ff16905092915050565b6105418282610475565b15610581576040517f08c379a000000000000000000000000000000000000000000000000000000000815260040161057890610e20565b60405180910390fd5b6001825f015f8373ffffffffffffffffffffffffffffffffffffffff1673ffffffffffffffffffffffffffffffffffffffff1681526020019081526020015f205f6101000a81548160ff0219169083151502179055505050565b5f604051905090565b5f80fd5b5f80fd5b5f73ffffffffffffffffffffffffffffffffffffffff82169050919050565b5f610615826105ec565b9050919050565b6106258161060b565b811461062f575f80fd5b50565b5f813590506106408161061c565b92915050565b5f80fd5b5f80fd5b5f601f19601f8301169050919050565b7f4e487b71000000000000000000000000000000000000000000000000000000005f52604160045260245ffd5b6106948261064e565b810181811067ffffffffffffffff821117156106b3576106b261065e565b5b80604052505050565b5f6106c56105db565b90506106d1828261068b565b919050565b5f67ffffffffffffffff8211156106f0576106ef61065e565b5b6106f98261064e565b9050602081019050919050565b828183375f83830152505050565b5f610726610721846106d6565b6106bc565b9050828152602081018484840111156107425761074161064a565b5b61074d848285610706565b509392505050565b5f82601f83011261076957610768610646565b5b8135610779848260208601610714565b91505092915050565b5f8060408385031215610798576107976105e4565b5b5f6107a585828601610632565b925050602083013567ffffffffffffffff8111156107c6576107c56105e8565b5b6107d285828601610755565b9150509250929050565b5f81519050919050565b5f82825260208201905092915050565b5f819050602082019050919050565b61080e8161060b565b82525050565b5f61081f8383610805565b60208301905092915050565b5f602082019050919050565b5f610841826107dc565b61084b81856107e6565b9350610856836107f6565b805f5b8381101561088657815161086d8882610814565b97506108788361082b565b925050600181019050610859565b5085935050505092915050565b5f6020820190508181035f8301526108ab8184610837565b905092915050565b5f8115159050919050565b6108c7816108b3565b82525050565b5f6020820190506108e05f8301846108be565b92915050565b5f819050919050565b6108f8816108e6565b8114610902575f80fd5b50565b5f81359050610913816108ef565b92915050565b5f6020828403121561092e5761092d6105e4565b5b5f61093b84828501610905565b91505092915050565b61094d8161060b565b82525050565b5f6020820190506109665f830184610944565b92915050565b5f60208284031215610981576109806105e4565b5b5f61098e84828501610632565b91505092915050565b5f81519050919050565b5f82825260208201905092915050565b8281835e5f83830152505050565b5f6109c982610997565b6109d381856109a1565b93506109e38185602086016109b1565b6109ec8161064e565b840191505092915050565b5f6020820190508181035f830152610a0f81846109bf565b905092915050565b7f4f6e6c7920466f722041646d696e0000000000000000000000000000000000005f82015250565b5f610a4b600e836109a1565b9150610a5682610a17565b602082019050919050565b5f6020820190508181035f830152610a7881610a3f565b9050919050565b7f4e487b71000000000000000000000000000000000000000000000000000000005f52602260045260245ffd5b5f6002820490506001821680610ac357607f821691505b602082108103610ad657610ad5610a7f565b5b50919050565b5f819050815f5260205f209050919050565b5f6020601f8301049050919050565b5f82821b905092915050565b5f60088302610b387fffffffffffffffffffffffffffffffffffffffffffffffffffffffffffffffff82610afd565b610b428683610afd565b95508019841693508086168417925050509392505050565b5f819050919050565b5f610b7d610b78610b73846108e6565b610b5a565b6108e6565b9050919050565b5f819050919050565b610b9683610b63565b610baa610ba282610b84565b848454610b09565b825550505050565b5f90565b610bbe610bb2565b610bc9818484610b8d565b505050565b5b81811015610bec57610be15f82610bb6565b600181019050610bcf565b5050565b601f821115610c3157610c0281610adc565b610c0b84610aee565b81016020851015610c1a578190505b610c2e610c2685610aee565b830182610bce565b50505b505050565b5f82821c905092915050565b5f610c515f1984600802610c36565b1980831691505092915050565b5f610c698383610c42565b9150826002028217905092915050565b610c8282610997565b67ffffffffffffffff811115610c9b57610c9a61065e565b5b610ca58254610aac565b610cb0828285610bf0565b5f60209050601f831160018114610ce1575f8415610ccf578287015190505b610cd98582610c5e565b865550610d40565b601f198416610cef86610adc565b5f5b82811015610d1657848901518255600182019150602085019450602081019050610cf1565b86831015610d335784890151610d2f601f891682610c42565b8355505b6001600288020188555050505b505050505050565b7f526f6c65733a206163636f756e7420697320746865207a65726f2061646472655f8201527f7373000000000000000000000000000000000000000000000000000000000000602082015250565b5f610da26022836109a1565b9150610dad82610d48565b604082019050919050565b5f6020820190508181035f830152610dcf81610d96565b9050919050565b7f526f6c65733a206163636f756e7420616c72656164792068617320726f6c65005f82015250565b5f610e0a601f836109a1565b9150610e1582610dd6565b602082019050919050565b5f6020820190508181035f830152610e3781610dfe565b905091905056fea26469706673582212207b9fc4868add9372985bdfea2b61a882c1c5ebe45e5f28aa7267a4ad33e9a25a64736f6c634300081a0033",
					"opcodes": "PUSH1 0x80 PUSH1 0x40 MSTORE CALLVALUE DUP1 ISZERO PUSH2 0xF JUMPI PUSH0 DUP1 REVERT JUMPDEST POP PUSH2 0x23 CALLER PUSH0 PUSH2 0x28 PUSH1 0x20 SHL SWAP1 SWAP2 SWAP1 PUSH1 0x20 SHR JUMP JUMPDEST PUSH2 0x29A JUMP JUMPDEST PUSH2 0x38 DUP3 DUP3 PUSH2 0xD2 PUSH1 0x20 SHL PUSH1 0x20 SHR JUMP JUMPDEST ISZERO PUSH2 0x78 JUMPI PUSH1 0x40 MLOAD PUSH32 0x8C379A000000000000000000000000000000000000000000000000000000000 DUP2 MSTORE PUSH1 0x4 ADD PUSH2 0x6F SWAP1 PUSH2 0x1EE JUMP JUMPDEST PUSH1 0x40 MLOAD DUP1 SWAP2 SUB SWAP1 REVERT JUMPDEST PUSH1 0x1 DUP3 PUSH0 ADD PUSH0 DUP4 PUSH20 0xFFFFFFFFFFFFFFFFFFFFFFFFFFFFFFFFFFFFFFFF AND PUSH20 0xFFFFFFFFFFFFFFFFFFFFFFFFFFFFFFFFFFFFFFFF AND DUP2 MSTORE PUSH1 0x20 ADD SWAP1 DUP2 MSTORE PUSH1 0x20 ADD PUSH0 KECCAK256 PUSH0 PUSH2 0x100 EXP DUP2 SLOAD DUP2 PUSH1 0xFF MUL NOT AND SWAP1 DUP4 ISZERO ISZERO MUL OR SWAP1 SSTORE POP POP POP JUMP JUMPDEST PUSH0 DUP1 PUSH20 0xFFFFFFFFFFFFFFFFFFFFFFFFFFFFFFFFFFFFFFFF AND DUP3 PUSH20 0xFFFFFFFFFFFFFFFFFFFFFFFFFFFFFFFFFFFFFFFF AND SUB PUSH2 0x141 JUMPI PUSH1 0x40 MLOAD PUSH32 0x8C379A000000000000000000000000000000000000000000000000000000000 DUP2 MSTORE PUSH1 0x4 ADD PUSH2 0x138 SWAP1 PUSH2 0x27C JUMP JUMPDEST PUSH1 0x40 MLOAD DUP1 SWAP2 SUB SWAP1 REVERT JUMPDEST DUP3 PUSH0 ADD PUSH0 DUP4 PUSH20 0xFFFFFFFFFFFFFFFFFFFFFFFFFFFFFFFFFFFFFFFF AND PUSH20 0xFFFFFFFFFFFFFFFFFFFFFFFFFFFFFFFFFFFFFFFF AND DUP2 MSTORE PUSH1 0x20 ADD SWAP1 DUP2 MSTORE PUSH1 0x20 ADD PUSH0 KECCAK256 PUSH0 SWAP1 SLOAD SWAP1 PUSH2 0x100 EXP SWAP1 DIV PUSH1 0xFF AND SWAP1 POP SWAP3 SWAP2 POP POP JUMP JUMPDEST PUSH0 DUP3 DUP3 MSTORE PUSH1 0x20 DUP3 ADD SWAP1 POP SWAP3 SWAP2 POP POP JUMP JUMPDEST PUSH32 0x526F6C65733A206163636F756E7420616C72656164792068617320726F6C6500 PUSH0 DUP3 ADD MSTORE POP JUMP JUMPDEST PUSH0 PUSH2 0x1D8 PUSH1 0x1F DUP4 PUSH2 0x194 JUMP JUMPDEST SWAP2 POP PUSH2 0x1E3 DUP3 PUSH2 0x1A4 JUMP JUMPDEST PUSH1 0x20 DUP3 ADD SWAP1 POP SWAP2 SWAP1 POP JUMP JUMPDEST PUSH0 PUSH1 0x20 DUP3 ADD SWAP1 POP DUP2 DUP2 SUB PUSH0 DUP4 ADD MSTORE PUSH2 0x205 DUP2 PUSH2 0x1CC JUMP JUMPDEST SWAP1 POP SWAP2 SWAP1 POP JUMP JUMPDEST PUSH32 0x526F6C65733A206163636F756E7420697320746865207A65726F206164647265 PUSH0 DUP3 ADD MSTORE PUSH32 0x7373000000000000000000000000000000000000000000000000000000000000 PUSH1 0x20 DUP3 ADD MSTORE POP JUMP JUMPDEST PUSH0 PUSH2 0x266 PUSH1 0x22 DUP4 PUSH2 0x194 JUMP JUMPDEST SWAP2 POP PUSH2 0x271 DUP3 PUSH2 0x20C JUMP JUMPDEST PUSH1 0x40 DUP3 ADD SWAP1 POP SWAP2 SWAP1 POP JUMP JUMPDEST PUSH0 PUSH1 0x20 DUP3 ADD SWAP1 POP DUP2 DUP2 SUB PUSH0 DUP4 ADD MSTORE PUSH2 0x293 DUP2 PUSH2 0x25A JUMP JUMPDEST SWAP1 POP SWAP2 SWAP1 POP JUMP JUMPDEST PUSH2 0xE74 DUP1 PUSH2 0x2A7 PUSH0 CODECOPY PUSH0 RETURN INVALID PUSH1 0x80 PUSH1 0x40 MSTORE CALLVALUE DUP1 ISZERO PUSH2 0xF JUMPI PUSH0 DUP1 REVERT JUMPDEST POP PUSH1 0x4 CALLDATASIZE LT PUSH2 0x60 JUMPI PUSH0 CALLDATALOAD PUSH1 0xE0 SHR DUP1 PUSH4 0x17335A95 EQ PUSH2 0x64 JUMPI DUP1 PUSH4 0x1DA3E2DC EQ PUSH2 0x80 JUMPI DUP1 PUSH4 0xB6DB75A0 EQ PUSH2 0x9E JUMPI DUP1 PUSH4 0xBB13227C EQ PUSH2 0xBC JUMPI DUP1 PUSH4 0xBE956873 EQ PUSH2 0xEC JUMPI DUP1 PUSH4 0xD4FD45C4 EQ PUSH2 0x11C JUMPI JUMPDEST PUSH0 DUP1 REVERT JUMPDEST PUSH2 0x7E PUSH1 0x4 DUP1 CALLDATASIZE SUB DUP2 ADD SWAP1 PUSH2 0x79 SWAP2 SWAP1 PUSH2 0x782 JUMP JUMPDEST PUSH2 0x14C JUMP JUMPDEST STOP JUMPDEST PUSH2 0x88 PUSH2 0x2AA JUMP JUMPDEST PUSH1 0x40 MLOAD PUSH2 0x95 SWAP2 SWAP1 PUSH2 0x893 JUMP JUMPDEST PUSH1 0x40 MLOAD DUP1 SWAP2 SUB SWAP1 RETURN JUMPDEST PUSH2 0xA6 PUSH2 0x335 JUMP JUMPDEST PUSH1 0x40 MLOAD PUSH2 0xB3 SWAP2 SWAP1 PUSH2 0x8CD JUMP JUMPDEST PUSH1 0x40 MLOAD DUP1 SWAP2 SUB SWAP1 RETURN JUMPDEST PUSH2 0xD6 PUSH1 0x4 DUP1 CALLDATASIZE SUB DUP2 ADD SWAP1 PUSH2 0xD1 SWAP2 SWAP1 PUSH2 0x919 JUMP JUMPDEST PUSH2 0x34E JUMP JUMPDEST PUSH1 0x40 MLOAD PUSH2 0xE3 SWAP2 SWAP1 PUSH2 0x953 JUMP JUMPDEST PUSH1 0x40 MLOAD DUP1 SWAP2 SUB SWAP1 RETURN JUMPDEST PUSH2 0x106 PUSH1 0x4 DUP1 CALLDATASIZE SUB DUP2 ADD SWAP1 PUSH2 0x101 SWAP2 SWAP1 PUSH2 0x96C JUMP JUMPDEST PUSH2 0x389 JUMP JUMPDEST PUSH1 0x40 MLOAD PUSH2 0x113 SWAP2 SWAP1 PUSH2 0x8CD JUMP JUMPDEST PUSH1 0x40 MLOAD DUP1 SWAP2 SUB SWAP1 RETURN JUMPDEST PUSH2 0x136 PUSH1 0x4 DUP1 CALLDATASIZE SUB DUP2 ADD SWAP1 PUSH2 0x131 SWAP2 SWAP1 PUSH2 0x96C JUMP JUMPDEST PUSH2 0x3A5 JUMP JUMPDEST PUSH1 0x40 MLOAD PUSH2 0x143 SWAP2 SWAP1 PUSH2 0x9F7 JUMP JUMPDEST PUSH1 0x40 MLOAD DUP1 SWAP2 SUB SWAP1 RETURN JUMPDEST PUSH2 0x15F CALLER PUSH0 PUSH2 0x475 SWAP1 SWAP2 SWAP1 PUSH4 0xFFFFFFFF AND JUMP JUMPDEST PUSH2 0x19E JUMPI PUSH1 0x40 MLOAD PUSH32 0x8C379A000000000000000000000000000000000000000000000000000000000 DUP2 MSTORE PUSH1 0x4 ADD PUSH2 0x195 SWAP1 PUSH2 0xA61 JUMP JUMPDEST PUSH1 0x40 MLOAD DUP1 SWAP2 SUB SWAP1 REVERT JUMPDEST PUSH0 PUSH1 0x2 PUSH0 DUP5 PUSH20 0xFFFFFFFFFFFFFFFFFFFFFFFFFFFFFFFFFFFFFFFF AND PUSH20 0xFFFFFFFFFFFFFFFFFFFFFFFFFFFFFFFFFFFFFFFF AND DUP2 MSTORE PUSH1 0x20 ADD SWAP1 DUP2 MSTORE PUSH1 0x20 ADD PUSH0 KECCAK256 SWAP1 POP DUP3 DUP2 PUSH0 ADD PUSH0 PUSH2 0x100 EXP DUP2 SLOAD DUP2 PUSH20 0xFFFFFFFFFFFFFFFFFFFFFFFFFFFFFFFFFFFFFFFF MUL NOT AND SWAP1 DUP4 PUSH20 0xFFFFFFFFFFFFFFFFFFFFFFFFFFFFFFFFFFFFFFFF AND MUL OR SWAP1 SSTORE POP DUP2 DUP2 PUSH1 0x1 ADD SWAP1 DUP2 PUSH2 0x230 SWAP2 SWAP1 PUSH2 0xC79 JUMP JUMPDEST POP PUSH1 0x3 DUP4 SWAP1 DUP1 PUSH1 0x1 DUP2 SLOAD ADD DUP1 DUP3 SSTORE DUP1 SWAP2 POP POP PUSH1 0x1 SWAP1 SUB SWAP1 PUSH0 MSTORE PUSH1 0x20 PUSH0 KECCAK256 ADD PUSH0 SWAP1 SWAP2 SWAP1 SWAP2 SWAP1 SWAP2 PUSH2 0x100 EXP DUP2 SLOAD DUP2 PUSH20 0xFFFFFFFFFFFFFFFFFFFFFFFFFFFFFFFFFFFFFFFF MUL NOT AND SWAP1 DUP4 PUSH20 0xFFFFFFFFFFFFFFFFFFFFFFFFFFFFFFFFFFFFFFFF AND MUL OR SWAP1 SSTORE POP PUSH2 0x2A5 DUP4 PUSH1 0x1 PUSH2 0x537 SWAP1 SWAP2 SWAP1 PUSH4 0xFFFFFFFF AND JUMP JUMPDEST POP POP POP JUMP JUMPDEST PUSH1 0x60 PUSH1 0x3 DUP1 SLOAD DUP1 PUSH1 0x20 MUL PUSH1 0x20 ADD PUSH1 0x40 MLOAD SWAP1 DUP2 ADD PUSH1 0x40 MSTORE DUP1 SWAP3 SWAP2 SWAP1 DUP2 DUP2 MSTORE PUSH1 0x20 ADD DUP3 DUP1 SLOAD DUP1 ISZERO PUSH2 0x32B JUMPI PUSH1 0x20 MUL DUP3 ADD SWAP2 SWAP1 PUSH0 MSTORE PUSH1 0x20 PUSH0 KECCAK256 SWAP1 JUMPDEST DUP2 PUSH0 SWAP1 SLOAD SWAP1 PUSH2 0x100 EXP SWAP1 DIV PUSH20 0xFFFFFFFFFFFFFFFFFFFFFFFFFFFFFFFFFFFFFFFF AND PUSH20 0xFFFFFFFFFFFFFFFFFFFFFFFFFFFFFFFFFFFFFFFF AND DUP2 MSTORE PUSH1 0x20 ADD SWAP1 PUSH1 0x1 ADD SWAP1 DUP1 DUP4 GT PUSH2 0x2E2 JUMPI JUMPDEST POP POP POP POP POP SWAP1 POP SWAP1 JUMP JUMPDEST PUSH0 PUSH2 0x349 CALLER PUSH0 PUSH2 0x475 SWAP1 SWAP2 SWAP1 PUSH4 0xFFFFFFFF AND JUMP JUMPDEST SWAP1 POP SWAP1 JUMP JUMPDEST PUSH1 0x3 DUP2 DUP2 SLOAD DUP2 LT PUSH2 0x35D JUMPI PUSH0 DUP1 REVERT JUMPDEST SWAP1 PUSH0 MSTORE PUSH1 0x20 PUSH0 KECCAK256 ADD PUSH0 SWAP2 POP SLOAD SWAP1 PUSH2 0x100 EXP SWAP1 DIV PUSH20 0xFFFFFFFFFFFFFFFFFFFFFFFFFFFFFFFFFFFFFFFF AND DUP2 JUMP JUMPDEST PUSH0 PUSH2 0x39E DUP3 PUSH1 0x1 PUSH2 0x475 SWAP1 SWAP2 SWAP1 PUSH4 0xFFFFFFFF AND JUMP JUMPDEST SWAP1 POP SWAP2 SWAP1 POP JUMP JUMPDEST PUSH1 0x60 PUSH1 0x2 PUSH0 DUP4 PUSH20 0xFFFFFFFFFFFFFFFFFFFFFFFFFFFFFFFFFFFFFFFF AND PUSH20 0xFFFFFFFFFFFFFFFFFFFFFFFFFFFFFFFFFFFFFFFF AND DUP2 MSTORE PUSH1 0x20 ADD SWAP1 DUP2 MSTORE PUSH1 0x20 ADD PUSH0 KECCAK256 PUSH1 0x1 ADD DUP1 SLOAD PUSH2 0x3F2 SWAP1 PUSH2 0xAAC JUMP JUMPDEST DUP1 PUSH1 0x1F ADD PUSH1 0x20 DUP1 SWAP2 DIV MUL PUSH1 0x20 ADD PUSH1 0x40 MLOAD SWAP1 DUP2 ADD PUSH1 0x40 MSTORE DUP1 SWAP3 SWAP2 SWAP1 DUP2 DUP2 MSTORE PUSH1 0x20 ADD DUP3 DUP1 SLOAD PUSH2 0x41E SWAP1 PUSH2 0xAAC JUMP JUMPDEST DUP1 ISZERO PUSH2 0x469 JUMPI DUP1 PUSH1 0x1F LT PUSH2 0x440 JUMPI PUSH2 0x100 DUP1 DUP4 SLOAD DIV MUL DUP4 MSTORE SWAP2 PUSH1 0x20 ADD SWAP2 PUSH2 0x469 JUMP JUMPDEST DUP3 ADD SWAP2 SWAP1 PUSH0 MSTORE PUSH1 0x20 PUSH0 KECCAK256 SWAP1 JUMPDEST DUP2 SLOAD DUP2 MSTORE SWAP1 PUSH1 0x1 ADD SWAP1 PUSH1 0x20 ADD DUP1 DUP4 GT PUSH2 0x44C JUMPI DUP3 SWAP1 SUB PUSH1 0x1F AND DUP3 ADD SWAP2 JUMPDEST POP POP POP POP POP SWAP1 POP SWAP2 SWAP1 POP JUMP JUMPDEST PUSH0 DUP1 PUSH20 0xFFFFFFFFFFFFFFFFFFFFFFFFFFFFFFFFFFFFFFFF AND DUP3 PUSH20 0xFFFFFFFFFFFFFFFFFFFFFFFFFFFFFFFFFFFFFFFF AND SUB PUSH2 0x4E4 JUMPI PUSH1 0x40 MLOAD PUSH32 0x8C379A000000000000000000000000000000000000000000000000000000000 DUP2 MSTORE PUSH1 0x4 ADD PUSH2 0x4DB SWAP1 PUSH2 0xDB8 JUMP JUMPDEST PUSH1 0x40 MLOAD DUP1 SWAP2 SUB SWAP1 REVERT JUMPDEST DUP3 PUSH0 ADD PUSH0 DUP4 PUSH20 0xFFFFFFFFFFFFFFFFFFFFFFFFFFFFFFFFFFFFFFFF AND PUSH20 0xFFFFFFFFFFFFFFFFFFFFFFFFFFFFFFFFFFFFFFFF AND DUP2 MSTORE PUSH1 0x20 ADD SWAP1 DUP2 MSTORE PUSH1 0x20 ADD PUSH0 KECCAK256 PUSH0 SWAP1 SLOAD SWAP1 PUSH2 0x100 EXP SWAP1 DIV PUSH1 0xFF AND SWAP1 POP SWAP3 SWAP2 POP POP JUMP JUMPDEST PUSH2 0x541 DUP3 DUP3 PUSH2 0x475 JUMP JUMPDEST ISZERO PUSH2 0x581 JUMPI PUSH1 0x40 MLOAD PUSH32 0x8C379A000000000000000000000000000000000000000000000000000000000 DUP2 MSTORE PUSH1 0x4 ADD PUSH2 0x578 SWAP1 PUSH2 0xE20 JUMP JUMPDEST PUSH1 0x40 MLOAD DUP1 SWAP2 SUB SWAP1 REVERT JUMPDEST PUSH1 0x1 DUP3 PUSH0 ADD PUSH0 DUP4 PUSH20 0xFFFFFFFFFFFFFFFFFFFFFFFFFFFFFFFFFFFFFFFF AND PUSH20 0xFFFFFFFFFFFFFFFFFFFFFFFFFFFFFFFFFFFFFFFF AND DUP2 MSTORE PUSH1 0x20 ADD SWAP1 DUP2 MSTORE PUSH1 0x20 ADD PUSH0 KECCAK256 PUSH0 PUSH2 0x100 EXP DUP2 SLOAD DUP2 PUSH1 0xFF MUL NOT AND SWAP1 DUP4 ISZERO ISZERO MUL OR SWAP1 SSTORE POP POP POP JUMP JUMPDEST PUSH0 PUSH1 0x40 MLOAD SWAP1 POP SWAP1 JUMP JUMPDEST PUSH0 DUP1 REVERT JUMPDEST PUSH0 DUP1 REVERT JUMPDEST PUSH0 PUSH20 0xFFFFFFFFFFFFFFFFFFFFFFFFFFFFFFFFFFFFFFFF DUP3 AND SWAP1 POP SWAP2 SWAP1 POP JUMP JUMPDEST PUSH0 PUSH2 0x615 DUP3 PUSH2 0x5EC JUMP JUMPDEST SWAP1 POP SWAP2 SWAP1 POP JUMP JUMPDEST PUSH2 0x625 DUP2 PUSH2 0x60B JUMP JUMPDEST DUP2 EQ PUSH2 0x62F JUMPI PUSH0 DUP1 REVERT JUMPDEST POP JUMP JUMPDEST PUSH0 DUP2 CALLDATALOAD SWAP1 POP PUSH2 0x640 DUP2 PUSH2 0x61C JUMP JUMPDEST SWAP3 SWAP2 POP POP JUMP JUMPDEST PUSH0 DUP1 REVERT JUMPDEST PUSH0 DUP1 REVERT JUMPDEST PUSH0 PUSH1 0x1F NOT PUSH1 0x1F DUP4 ADD AND SWAP1 POP SWAP2 SWAP1 POP JUMP JUMPDEST PUSH32 0x4E487B7100000000000000000000000000000000000000000000000000000000 PUSH0 MSTORE PUSH1 0x41 PUSH1 0x4 MSTORE PUSH1 0x24 PUSH0 REVERT JUMPDEST PUSH2 0x694 DUP3 PUSH2 0x64E JUMP JUMPDEST DUP2 ADD DUP2 DUP2 LT PUSH8 0xFFFFFFFFFFFFFFFF DUP3 GT OR ISZERO PUSH2 0x6B3 JUMPI PUSH2 0x6B2 PUSH2 0x65E JUMP JUMPDEST JUMPDEST DUP1 PUSH1 0x40 MSTORE POP POP POP JUMP JUMPDEST PUSH0 PUSH2 0x6C5 PUSH2 0x5DB JUMP JUMPDEST SWAP1 POP PUSH2 0x6D1 DUP3 DUP3 PUSH2 0x68B JUMP JUMPDEST SWAP2 SWAP1 POP JUMP JUMPDEST PUSH0 PUSH8 0xFFFFFFFFFFFFFFFF DUP3 GT ISZERO PUSH2 0x6F0 JUMPI PUSH2 0x6EF PUSH2 0x65E JUMP JUMPDEST JUMPDEST PUSH2 0x6F9 DUP3 PUSH2 0x64E JUMP JUMPDEST SWAP1 POP PUSH1 0x20 DUP2 ADD SWAP1 POP SWAP2 SWAP1 POP JUMP JUMPDEST DUP3 DUP2 DUP4 CALLDATACOPY PUSH0 DUP4 DUP4 ADD MSTORE POP POP POP JUMP JUMPDEST PUSH0 PUSH2 0x726 PUSH2 0x721 DUP5 PUSH2 0x6D6 JUMP JUMPDEST PUSH2 0x6BC JUMP JUMPDEST SWAP1 POP DUP3 DUP2 MSTORE PUSH1 0x20 DUP2 ADD DUP5 DUP5 DUP5 ADD GT ISZERO PUSH2 0x742 JUMPI PUSH2 0x741 PUSH2 0x64A JUMP JUMPDEST JUMPDEST PUSH2 0x74D DUP5 DUP3 DUP6 PUSH2 0x706 JUMP JUMPDEST POP SWAP4 SWAP3 POP POP POP JUMP JUMPDEST PUSH0 DUP3 PUSH1 0x1F DUP4 ADD SLT PUSH2 0x769 JUMPI PUSH2 0x768 PUSH2 0x646 JUMP JUMPDEST JUMPDEST DUP2 CALLDATALOAD PUSH2 0x779 DUP5 DUP3 PUSH1 0x20 DUP7 ADD PUSH2 0x714 JUMP JUMPDEST SWAP2 POP POP SWAP3 SWAP2 POP POP JUMP JUMPDEST PUSH0 DUP1 PUSH1 0x40 DUP4 DUP6 SUB SLT ISZERO PUSH2 0x798 JUMPI PUSH2 0x797 PUSH2 0x5E4 JUMP JUMPDEST JUMPDEST PUSH0 PUSH2 0x7A5 DUP6 DUP3 DUP7 ADD PUSH2 0x632 JUMP JUMPDEST SWAP3 POP POP PUSH1 0x20 DUP4 ADD CALLDATALOAD PUSH8 0xFFFFFFFFFFFFFFFF DUP2 GT ISZERO PUSH2 0x7C6 JUMPI PUSH2 0x7C5 PUSH2 0x5E8 JUMP JUMPDEST JUMPDEST PUSH2 0x7D2 DUP6 DUP3 DUP7 ADD PUSH2 0x755 JUMP JUMPDEST SWAP2 POP POP SWAP3 POP SWAP3 SWAP1 POP JUMP JUMPDEST PUSH0 DUP2 MLOAD SWAP1 POP SWAP2 SWAP1 POP JUMP JUMPDEST PUSH0 DUP3 DUP3 MSTORE PUSH1 0x20 DUP3 ADD SWAP1 POP SWAP3 SWAP2 POP POP JUMP JUMPDEST PUSH0 DUP2 SWAP1 POP PUSH1 0x20 DUP3 ADD SWAP1 POP SWAP2 SWAP1 POP JUMP JUMPDEST PUSH2 0x80E DUP2 PUSH2 0x60B JUMP JUMPDEST DUP3 MSTORE POP POP JUMP JUMPDEST PUSH0 PUSH2 0x81F DUP4 DUP4 PUSH2 0x805 JUMP JUMPDEST PUSH1 0x20 DUP4 ADD SWAP1 POP SWAP3 SWAP2 POP POP JUMP JUMPDEST PUSH0 PUSH1 0x20 DUP3 ADD SWAP1 POP SWAP2 SWAP1 POP JUMP JUMPDEST PUSH0 PUSH2 0x841 DUP3 PUSH2 0x7DC JUMP JUMPDEST PUSH2 0x84B DUP2 DUP6 PUSH2 0x7E6 JUMP JUMPDEST SWAP4 POP PUSH2 0x856 DUP4 PUSH2 0x7F6 JUMP JUMPDEST DUP1 PUSH0 JUMPDEST DUP4 DUP2 LT ISZERO PUSH2 0x886 JUMPI DUP2 MLOAD PUSH2 0x86D DUP9 DUP3 PUSH2 0x814 JUMP JUMPDEST SWAP8 POP PUSH2 0x878 DUP4 PUSH2 0x82B JUMP JUMPDEST SWAP3 POP POP PUSH1 0x1 DUP2 ADD SWAP1 POP PUSH2 0x859 JUMP JUMPDEST POP DUP6 SWAP4 POP POP POP POP SWAP3 SWAP2 POP POP JUMP JUMPDEST PUSH0 PUSH1 0x20 DUP3 ADD SWAP1 POP DUP2 DUP2 SUB PUSH0 DUP4 ADD MSTORE PUSH2 0x8AB DUP2 DUP5 PUSH2 0x837 JUMP JUMPDEST SWAP1 POP SWAP3 SWAP2 POP POP JUMP JUMPDEST PUSH0 DUP2 ISZERO ISZERO SWAP1 POP SWAP2 SWAP1 POP JUMP JUMPDEST PUSH2 0x8C7 DUP2 PUSH2 0x8B3 JUMP JUMPDEST DUP3 MSTORE POP POP JUMP JUMPDEST PUSH0 PUSH1 0x20 DUP3 ADD SWAP1 POP PUSH2 0x8E0 PUSH0 DUP4 ADD DUP5 PUSH2 0x8BE JUMP JUMPDEST SWAP3 SWAP2 POP POP JUMP JUMPDEST PUSH0 DUP2 SWAP1 POP SWAP2 SWAP1 POP JUMP JUMPDEST PUSH2 0x8F8 DUP2 PUSH2 0x8E6 JUMP JUMPDEST DUP2 EQ PUSH2 0x902 JUMPI PUSH0 DUP1 REVERT JUMPDEST POP JUMP JUMPDEST PUSH0 DUP2 CALLDATALOAD SWAP1 POP PUSH2 0x913 DUP2 PUSH2 0x8EF JUMP JUMPDEST SWAP3 SWAP2 POP POP JUMP JUMPDEST PUSH0 PUSH1 0x20 DUP3 DUP5 SUB SLT ISZERO PUSH2 0x92E JUMPI PUSH2 0x92D PUSH2 0x5E4 JUMP JUMPDEST JUMPDEST PUSH0 PUSH2 0x93B DUP5 DUP3 DUP6 ADD PUSH2 0x905 JUMP JUMPDEST SWAP2 POP POP SWAP3 SWAP2 POP POP JUMP JUMPDEST PUSH2 0x94D DUP2 PUSH2 0x60B JUMP JUMPDEST DUP3 MSTORE POP POP JUMP JUMPDEST PUSH0 PUSH1 0x20 DUP3 ADD SWAP1 POP PUSH2 0x966 PUSH0 DUP4 ADD DUP5 PUSH2 0x944 JUMP JUMPDEST SWAP3 SWAP2 POP POP JUMP JUMPDEST PUSH0 PUSH1 0x20 DUP3 DUP5 SUB SLT ISZERO PUSH2 0x981 JUMPI PUSH2 0x980 PUSH2 0x5E4 JUMP JUMPDEST JUMPDEST PUSH0 PUSH2 0x98E DUP5 DUP3 DUP6 ADD PUSH2 0x632 JUMP JUMPDEST SWAP2 POP POP SWAP3 SWAP2 POP POP JUMP JUMPDEST PUSH0 DUP2 MLOAD SWAP1 POP SWAP2 SWAP1 POP JUMP JUMPDEST PUSH0 DUP3 DUP3 MSTORE PUSH1 0x20 DUP3 ADD SWAP1 POP SWAP3 SWAP2 POP POP JUMP JUMPDEST DUP3 DUP2 DUP4 MCOPY PUSH0 DUP4 DUP4 ADD MSTORE POP POP POP JUMP JUMPDEST PUSH0 PUSH2 0x9C9 DUP3 PUSH2 0x997 JUMP JUMPDEST PUSH2 0x9D3 DUP2 DUP6 PUSH2 0x9A1 JUMP JUMPDEST SWAP4 POP PUSH2 0x9E3 DUP2 DUP6 PUSH1 0x20 DUP7 ADD PUSH2 0x9B1 JUMP JUMPDEST PUSH2 0x9EC DUP2 PUSH2 0x64E JUMP JUMPDEST DUP5 ADD SWAP2 POP POP SWAP3 SWAP2 POP POP JUMP JUMPDEST PUSH0 PUSH1 0x20 DUP3 ADD SWAP1 POP DUP2 DUP2 SUB PUSH0 DUP4 ADD MSTORE PUSH2 0xA0F DUP2 DUP5 PUSH2 0x9BF JUMP JUMPDEST SWAP1 POP SWAP3 SWAP2 POP POP JUMP JUMPDEST PUSH32 0x4F6E6C7920466F722041646D696E000000000000000000000000000000000000 PUSH0 DUP3 ADD MSTORE POP JUMP JUMPDEST PUSH0 PUSH2 0xA4B PUSH1 0xE DUP4 PUSH2 0x9A1 JUMP JUMPDEST SWAP2 POP PUSH2 0xA56 DUP3 PUSH2 0xA17 JUMP JUMPDEST PUSH1 0x20 DUP3 ADD SWAP1 POP SWAP2 SWAP1 POP JUMP JUMPDEST PUSH0 PUSH1 0x20 DUP3 ADD SWAP1 POP DUP2 DUP2 SUB PUSH0 DUP4 ADD MSTORE PUSH2 0xA78 DUP2 PUSH2 0xA3F JUMP JUMPDEST SWAP1 POP SWAP2 SWAP1 POP JUMP JUMPDEST PUSH32 0x4E487B7100000000000000000000000000000000000000000000000000000000 PUSH0 MSTORE PUSH1 0x22 PUSH1 0x4 MSTORE PUSH1 0x24 PUSH0 REVERT JUMPDEST PUSH0 PUSH1 0x2 DUP3 DIV SWAP1 POP PUSH1 0x1 DUP3 AND DUP1 PUSH2 0xAC3 JUMPI PUSH1 0x7F DUP3 AND SWAP2 POP JUMPDEST PUSH1 0x20 DUP3 LT DUP2 SUB PUSH2 0xAD6 JUMPI PUSH2 0xAD5 PUSH2 0xA7F JUMP JUMPDEST JUMPDEST POP SWAP2 SWAP1 POP JUMP JUMPDEST PUSH0 DUP2 SWAP1 POP DUP2 PUSH0 MSTORE PUSH1 0x20 PUSH0 KECCAK256 SWAP1 POP SWAP2 SWAP1 POP JUMP JUMPDEST PUSH0 PUSH1 0x20 PUSH1 0x1F DUP4 ADD DIV SWAP1 POP SWAP2 SWAP1 POP JUMP JUMPDEST PUSH0 DUP3 DUP3 SHL SWAP1 POP SWAP3 SWAP2 POP POP JUMP JUMPDEST PUSH0 PUSH1 0x8 DUP4 MUL PUSH2 0xB38 PUSH32 0xFFFFFFFFFFFFFFFFFFFFFFFFFFFFFFFFFFFFFFFFFFFFFFFFFFFFFFFFFFFFFFFF DUP3 PUSH2 0xAFD JUMP JUMPDEST PUSH2 0xB42 DUP7 DUP4 PUSH2 0xAFD JUMP JUMPDEST SWAP6 POP DUP1 NOT DUP5 AND SWAP4 POP DUP1 DUP7 AND DUP5 OR SWAP3 POP POP POP SWAP4 SWAP3 POP POP POP JUMP JUMPDEST PUSH0 DUP2 SWAP1 POP SWAP2 SWAP1 POP JUMP JUMPDEST PUSH0 PUSH2 0xB7D PUSH2 0xB78 PUSH2 0xB73 DUP5 PUSH2 0x8E6 JUMP JUMPDEST PUSH2 0xB5A JUMP JUMPDEST PUSH2 0x8E6 JUMP JUMPDEST SWAP1 POP SWAP2 SWAP1 POP JUMP JUMPDEST PUSH0 DUP2 SWAP1 POP SWAP2 SWAP1 POP JUMP JUMPDEST PUSH2 0xB96 DUP4 PUSH2 0xB63 JUMP JUMPDEST PUSH2 0xBAA PUSH2 0xBA2 DUP3 PUSH2 0xB84 JUMP JUMPDEST DUP5 DUP5 SLOAD PUSH2 0xB09 JUMP JUMPDEST DUP3 SSTORE POP POP POP POP JUMP JUMPDEST PUSH0 SWAP1 JUMP JUMPDEST PUSH2 0xBBE PUSH2 0xBB2 JUMP JUMPDEST PUSH2 0xBC9 DUP2 DUP5 DUP5 PUSH2 0xB8D JUMP JUMPDEST POP POP POP JUMP JUMPDEST JUMPDEST DUP2 DUP2 LT ISZERO PUSH2 0xBEC JUMPI PUSH2 0xBE1 PUSH0 DUP3 PUSH2 0xBB6 JUMP JUMPDEST PUSH1 0x1 DUP2 ADD SWAP1 POP PUSH2 0xBCF JUMP JUMPDEST POP POP JUMP JUMPDEST PUSH1 0x1F DUP3 GT ISZERO PUSH2 0xC31 JUMPI PUSH2 0xC02 DUP2 PUSH2 0xADC JUMP JUMPDEST PUSH2 0xC0B DUP5 PUSH2 0xAEE JUMP JUMPDEST DUP2 ADD PUSH1 0x20 DUP6 LT ISZERO PUSH2 0xC1A JUMPI DUP2 SWAP1 POP JUMPDEST PUSH2 0xC2E PUSH2 0xC26 DUP6 PUSH2 0xAEE JUMP JUMPDEST DUP4 ADD DUP3 PUSH2 0xBCE JUMP JUMPDEST POP POP JUMPDEST POP POP POP JUMP JUMPDEST PUSH0 DUP3 DUP3 SHR SWAP1 POP SWAP3 SWAP2 POP POP JUMP JUMPDEST PUSH0 PUSH2 0xC51 PUSH0 NOT DUP5 PUSH1 0x8 MUL PUSH2 0xC36 JUMP JUMPDEST NOT DUP1 DUP4 AND SWAP2 POP POP SWAP3 SWAP2 POP POP JUMP JUMPDEST PUSH0 PUSH2 0xC69 DUP4 DUP4 PUSH2 0xC42 JUMP JUMPDEST SWAP2 POP DUP3 PUSH1 0x2 MUL DUP3 OR SWAP1 POP SWAP3 SWAP2 POP POP JUMP JUMPDEST PUSH2 0xC82 DUP3 PUSH2 0x997 JUMP JUMPDEST PUSH8 0xFFFFFFFFFFFFFFFF DUP2 GT ISZERO PUSH2 0xC9B JUMPI PUSH2 0xC9A PUSH2 0x65E JUMP JUMPDEST JUMPDEST PUSH2 0xCA5 DUP3 SLOAD PUSH2 0xAAC JUMP JUMPDEST PUSH2 0xCB0 DUP3 DUP3 DUP6 PUSH2 0xBF0 JUMP JUMPDEST PUSH0 PUSH1 0x20 SWAP1 POP PUSH1 0x1F DUP4 GT PUSH1 0x1 DUP2 EQ PUSH2 0xCE1 JUMPI PUSH0 DUP5 ISZERO PUSH2 0xCCF JUMPI DUP3 DUP8 ADD MLOAD SWAP1 POP JUMPDEST PUSH2 0xCD9 DUP6 DUP3 PUSH2 0xC5E JUMP JUMPDEST DUP7 SSTORE POP PUSH2 0xD40 JUMP JUMPDEST PUSH1 0x1F NOT DUP5 AND PUSH2 0xCEF DUP7 PUSH2 0xADC JUMP JUMPDEST PUSH0 JUMPDEST DUP3 DUP2 LT ISZERO PUSH2 0xD16 JUMPI DUP5 DUP10 ADD MLOAD DUP3 SSTORE PUSH1 0x1 DUP3 ADD SWAP2 POP PUSH1 0x20 DUP6 ADD SWAP5 POP PUSH1 0x20 DUP2 ADD SWAP1 POP PUSH2 0xCF1 JUMP JUMPDEST DUP7 DUP4 LT ISZERO PUSH2 0xD33 JUMPI DUP5 DUP10 ADD MLOAD PUSH2 0xD2F PUSH1 0x1F DUP10 AND DUP3 PUSH2 0xC42 JUMP JUMPDEST DUP4 SSTORE POP JUMPDEST PUSH1 0x1 PUSH1 0x2 DUP9 MUL ADD DUP9 SSTORE POP POP POP JUMPDEST POP POP POP POP POP POP JUMP JUMPDEST PUSH32 0x526F6C65733A206163636F756E7420697320746865207A65726F206164647265 PUSH0 DUP3 ADD MSTORE PUSH32 0x7373000000000000000000000000000000000000000000000000000000000000 PUSH1 0x20 DUP3 ADD MSTORE POP JUMP JUMPDEST PUSH0 PUSH2 0xDA2 PUSH1 0x22 DUP4 PUSH2 0x9A1 JUMP JUMPDEST SWAP2 POP PUSH2 0xDAD DUP3 PUSH2 0xD48 JUMP JUMPDEST PUSH1 0x40 DUP3 ADD SWAP1 POP SWAP2 SWAP1 POP JUMP JUMPDEST PUSH0 PUSH1 0x20 DUP3 ADD SWAP1 POP DUP2 DUP2 SUB PUSH0 DUP4 ADD MSTORE PUSH2 0xDCF DUP2 PUSH2 0xD96 JUMP JUMPDEST SWAP1 POP SWAP2 SWAP1 POP JUMP JUMPDEST PUSH32 0x526F6C65733A206163636F756E7420616C72656164792068617320726F6C6500 PUSH0 DUP3 ADD MSTORE POP JUMP JUMPDEST PUSH0 PUSH2 0xE0A PUSH1 0x1F DUP4 PUSH2 0x9A1 JUMP JUMPDEST SWAP2 POP PUSH2 0xE15 DUP3 PUSH2 0xDD6 JUMP JUMPDEST PUSH1 0x20 DUP3 ADD SWAP1 POP SWAP2 SWAP1 POP JUMP JUMPDEST PUSH0 PUSH1 0x20 DUP3 ADD SWAP1 POP DUP2 DUP2 SUB PUSH0 DUP4 ADD MSTORE PUSH2 0xE37 DUP2 PUSH2 0xDFE JUMP JUMPDEST SWAP1 POP SWAP2 SWAP1 POP JUMP INVALID LOG2 PUSH5 0x6970667358 0x22 SLT KECCAK256 PUSH28 0x9FC4868ADD9372985BDFEA2B61A882C1C5EBE45E5F28AA7267A4AD33 0xE9 LOG2 GAS PUSH5 0x736F6C6343 STOP ADDMOD BYTE STOP CALLER "
				},
				"gasEstimates": {
					"creation": {
						"codeDepositCost": "740000",
						"executionCost": "infinite",
						"totalCost": "infinite"
					},
					"external": {
						"DrIDs(uint256)": "4988",
						"addDrInfo(address,string)": "infinite",
						"getAllDrs()": "infinite",
						"getDr(address)": "infinite",
						"isAdmin()": "infinite",
						"isDr(address)": "infinite"
					}
				},
				"methodIdentifiers": {
					"DrIDs(uint256)": "bb13227c",
					"addDrInfo(address,string)": "17335a95",
					"getAllDrs()": "1da3e2dc",
					"getDr(address)": "d4fd45c4",
					"isAdmin()": "b6db75a0",
					"isDr(address)": "be956873"
				}
			},
			"storageLayout": {
				"storage": [
					{
						"astId": 94,
						"contract": "contracts/contract.sol:Contract",
						"label": "admin",
						"offset": 0,
						"slot": "0",
						"type": "t_struct(Role)6_storage"
					},
					{
						"astId": 97,
						"contract": "contracts/contract.sol:Contract",
						"label": "doctor",
						"offset": 0,
						"slot": "1",
						"type": "t_struct(Role)6_storage"
					},
					{
						"astId": 107,
						"contract": "contracts/contract.sol:Contract",
						"label": "Doctors",
						"offset": 0,
						"slot": "2",
						"type": "t_mapping(t_address,t_struct(Doctor)102_storage)"
					},
					{
						"astId": 110,
						"contract": "contracts/contract.sol:Contract",
						"label": "DrIDs",
						"offset": 0,
						"slot": "3",
						"type": "t_array(t_address)dyn_storage"
					}
				],
				"types": {
					"t_address": {
						"encoding": "inplace",
						"label": "address",
						"numberOfBytes": "20"
					},
					"t_array(t_address)dyn_storage": {
						"base": "t_address",
						"encoding": "dynamic_array",
						"label": "address[]",
						"numberOfBytes": "32"
					},
					"t_bool": {
						"encoding": "inplace",
						"label": "bool",
						"numberOfBytes": "1"
					},
					"t_mapping(t_address,t_bool)": {
						"encoding": "mapping",
						"key": "t_address",
						"label": "mapping(address => bool)",
						"numberOfBytes": "32",
						"value": "t_bool"
					},
					"t_mapping(t_address,t_struct(Doctor)102_storage)": {
						"encoding": "mapping",
						"key": "t_address",
						"label": "mapping(address => struct Contract.Doctor)",
						"numberOfBytes": "32",
						"value": "t_struct(Doctor)102_storage"
					},
					"t_string_storage": {
						"encoding": "bytes",
						"label": "string",
						"numberOfBytes": "32"
					},
					"t_struct(Doctor)102_storage": {
						"encoding": "inplace",
						"label": "struct Contract.Doctor",
						"members": [
							{
								"astId": 99,
								"contract": "contracts/contract.sol:Contract",
								"label": "id",
								"offset": 0,
								"slot": "0",
								"type": "t_address"
							},
							{
								"astId": 101,
								"contract": "contracts/contract.sol:Contract",
								"label": "drHash",
								"offset": 0,
								"slot": "1",
								"type": "t_string_storage"
							}
						],
						"numberOfBytes": "64"
					},
					"t_struct(Role)6_storage": {
						"encoding": "inplace",
						"label": "struct Roles.Role",
						"members": [
							{
								"astId": 5,
								"contract": "contracts/contract.sol:Contract",
								"label": "bearer",
								"offset": 0,
								"slot": "0",
								"type": "t_mapping(t_address,t_bool)"
							}
						],
						"numberOfBytes": "32"
					}
				}
			},
			"userdoc": {
				"kind": "user",
				"methods": {},
				"version": 1
			}
		}
	}
}