{
	"contracts/rrr.sol": {
		"MedicalPoB": {
			"abi": [
				{
					"inputs": [],
					"stateMutability": "nonpayable",
					"type": "constructor"
				},
				{
					"anonymous": false,
					"inputs": [
						{
							"indexed": false,
							"internalType": "uint256",
							"name": "complaintId",
							"type": "uint256"
						},
						{
							"indexed": true,
							"internalType": "address",
							"name": "patient",
							"type": "address"
						},
						{
							"indexed": false,
							"internalType": "uint256",
							"name": "burnAmount",
							"type": "uint256"
						},
						{
							"indexed": false,
							"internalType": "uint256",
							"name": "tokenAmount",
							"type": "uint256"
						}
					],
					"name": "ComplaintFiled",
					"type": "event"
				},
				{
					"anonymous": false,
					"inputs": [
						{
							"indexed": false,
							"internalType": "uint256",
							"name": "complaintId",
							"type": "uint256"
						},
						{
							"indexed": false,
							"internalType": "bool",
							"name": "isGuilty",
							"type": "bool"
						},
						{
							"indexed": false,
							"internalType": "uint256",
							"name": "compensation",
							"type": "uint256"
						}
					],
					"name": "ComplaintReviewed",
					"type": "event"
				},
				{
					"inputs": [],
					"name": "admin",
					"outputs": [
						{
							"internalType": "address",
							"name": "",
							"type": "address"
						}
					],
					"stateMutability": "view",
					"type": "function"
				},
				{
					"inputs": [],
					"name": "complaintCounter",
					"outputs": [
						{
							"internalType": "uint256",
							"name": "",
							"type": "uint256"
						}
					],
					"stateMutability": "view",
					"type": "function"
				},
				{
					"inputs": [
						{
							"internalType": "uint256",
							"name": "",
							"type": "uint256"
						}
					],
					"name": "complaints",
					"outputs": [
						{
							"internalType": "address",
							"name": "patient",
							"type": "address"
						},
						{
							"internalType": "uint256",
							"name": "burnAmount",
							"type": "uint256"
						},
						{
							"internalType": "uint256",
							"name": "tokenAmount",
							"type": "uint256"
						},
						{
							"internalType": "bool",
							"name": "reviewed",
							"type": "bool"
						},
						{
							"internalType": "bool",
							"name": "isGuilty",
							"type": "bool"
						}
					],
					"stateMutability": "view",
					"type": "function"
				},
				{
					"inputs": [],
					"name": "fileComplaint",
					"outputs": [],
					"stateMutability": "payable",
					"type": "function"
				},
				{
					"inputs": [],
					"name": "getBalance",
					"outputs": [
						{
							"internalType": "uint256",
							"name": "",
							"type": "uint256"
						}
					],
					"stateMutability": "view",
					"type": "function"
				},
				{
					"inputs": [
						{
							"internalType": "uint256",
							"name": "_complaintId",
							"type": "uint256"
						},
						{
							"internalType": "bool",
							"name": "_isGuilty",
							"type": "bool"
						}
					],
					"name": "reviewComplaint",
					"outputs": [],
					"stateMutability": "nonpayable",
					"type": "function"
				},
				{
					"inputs": [
						{
							"internalType": "uint256",
							"name": "_amount",
							"type": "uint256"
						}
					],
					"name": "withdraw",
					"outputs": [],
					"stateMutability": "nonpayable",
					"type": "function"
				}
			],
			"devdoc": {
				"kind": "dev",
				"methods": {},
				"version": 1
			},
			"evm": {
				"assembly": "    /* \"contracts/rrr.sol\":60:2168  contract MedicalPoB {... */\n  mstore(0x40, 0x80)\n    /* \"contracts/rrr.sol\":584:635  constructor() {... */\n  callvalue\n  dup1\n  iszero\n  tag_1\n  jumpi\n  0x00\n  dup1\n  revert\ntag_1:\n  pop\n    /* \"contracts/rrr.sol\":617:627  msg.sender */\n  caller\n    /* \"contracts/rrr.sol\":609:614  admin */\n  0x00\n  dup1\n    /* \"contracts/rrr.sol\":609:627  admin = msg.sender */\n  0x0100\n  exp\n  dup2\n  sload\n  dup2\n  0xffffffffffffffffffffffffffffffffffffffff\n  mul\n  not\n  and\n  swap1\n  dup4\n  0xffffffffffffffffffffffffffffffffffffffff\n  and\n  mul\n  or\n  swap1\n  sstore\n  pop\n    /* \"contracts/rrr.sol\":60:2168  contract MedicalPoB {... */\n  dataSize(sub_0)\n  dup1\n  dataOffset(sub_0)\n  0x00\n  codecopy\n  0x00\n  return\nstop\n\nsub_0: assembly {\n        /* \"contracts/rrr.sol\":60:2168  contract MedicalPoB {... */\n      mstore(0x40, 0x80)\n      jumpi(tag_1, lt(calldatasize, 0x04))\n      shr(0xe0, calldataload(0x00))\n      dup1\n      0x7e69e912\n      gt\n      tag_9\n      jumpi\n      dup1\n      0x7e69e912\n      eq\n      tag_5\n      jumpi\n      dup1\n      0xaa71b833\n      eq\n      tag_6\n      jumpi\n      dup1\n      0xe5c813ca\n      eq\n      tag_7\n      jumpi\n      dup1\n      0xf851a440\n      eq\n      tag_8\n      jumpi\n      jump(tag_1)\n    tag_9:\n      dup1\n      0x0ed74b62\n      eq\n      tag_2\n      jumpi\n      dup1\n      0x12065fe0\n      eq\n      tag_3\n      jumpi\n      dup1\n      0x2e1a7d4d\n      eq\n      tag_4\n      jumpi\n    tag_1:\n      0x00\n      dup1\n      revert\n        /* \"contracts/rrr.sol\":334:365  uint256 public complaintCounter */\n    tag_2:\n      callvalue\n      dup1\n      iszero\n      tag_10\n      jumpi\n      0x00\n      dup1\n      revert\n    tag_10:\n      pop\n      tag_11\n      tag_12\n      jump\t// in\n    tag_11:\n      mload(0x40)\n      tag_13\n      swap2\n      swap1\n      tag_14\n      jump\t// in\n    tag_13:\n      mload(0x40)\n      dup1\n      swap2\n      sub\n      swap1\n      return\n        /* \"contracts/rrr.sol\":2064:2165  function getBalance() external view returns (uint256) {... */\n    tag_3:\n      callvalue\n      dup1\n      iszero\n      tag_15\n      jumpi\n      0x00\n      dup1\n      revert\n    tag_15:\n      pop\n      tag_16\n      tag_17\n      jump\t// in\n    tag_16:\n      mload(0x40)\n      tag_18\n      swap2\n      swap1\n      tag_14\n      jump\t// in\n    tag_18:\n      mload(0x40)\n      dup1\n      swap2\n      sub\n      swap1\n      return\n        /* \"contracts/rrr.sol\":1874:2056  function withdraw(uint256 _amount) external onlyAdmin {... */\n    tag_4:\n      callvalue\n      dup1\n      iszero\n      tag_19\n      jumpi\n      0x00\n      dup1\n      revert\n    tag_19:\n      pop\n      tag_20\n      0x04\n      dup1\n      calldatasize\n      sub\n      dup2\n      add\n      swap1\n      tag_21\n      swap2\n      swap1\n      tag_22\n      jump\t// in\n    tag_21:\n      tag_23\n      jump\t// in\n    tag_20:\n      stop\n        /* \"contracts/rrr.sol\":280:327  mapping(uint256 => Complaint) public complaints */\n    tag_5:\n      callvalue\n      dup1\n      iszero\n      tag_24\n      jumpi\n      0x00\n      dup1\n      revert\n    tag_24:\n      pop\n      tag_25\n      0x04\n      dup1\n      calldatasize\n      sub\n      dup2\n      add\n      swap1\n      tag_26\n      swap2\n      swap1\n      tag_22\n      jump\t// in\n    tag_26:\n      tag_27\n      jump\t// in\n    tag_25:\n      mload(0x40)\n      tag_28\n      swap6\n      swap5\n      swap4\n      swap3\n      swap2\n      swap1\n      tag_29\n      jump\t// in\n    tag_28:\n      mload(0x40)\n      dup1\n      swap2\n      sub\n      swap1\n      return\n        /* \"contracts/rrr.sol\":769:1284  function fileComplaint() external payable {... */\n    tag_6:\n      tag_30\n      tag_31\n      jump\t// in\n    tag_30:\n      stop\n        /* \"contracts/rrr.sol\":1292:1866  function reviewComplaint(uint256 _complaintId, bool _isGuilty) external onlyAdmin {... */\n    tag_7:\n      callvalue\n      dup1\n      iszero\n      tag_32\n      jumpi\n      0x00\n      dup1\n      revert\n    tag_32:\n      pop\n      tag_33\n      0x04\n      dup1\n      calldatasize\n      sub\n      dup2\n      add\n      swap1\n      tag_34\n      swap2\n      swap1\n      tag_35\n      jump\t// in\n    tag_34:\n      tag_36\n      jump\t// in\n    tag_33:\n      stop\n        /* \"contracts/rrr.sol\":253:273  address public admin */\n    tag_8:\n      callvalue\n      dup1\n      iszero\n      tag_37\n      jumpi\n      0x00\n      dup1\n      revert\n    tag_37:\n      pop\n      tag_38\n      tag_39\n      jump\t// in\n    tag_38:\n      mload(0x40)\n      tag_40\n      swap2\n      swap1\n      tag_41\n      jump\t// in\n    tag_40:\n      mload(0x40)\n      dup1\n      swap2\n      sub\n      swap1\n      return\n        /* \"contracts/rrr.sol\":334:365  uint256 public complaintCounter */\n    tag_12:\n      sload(0x02)\n      dup2\n      jump\t// out\n        /* \"contracts/rrr.sol\":2064:2165  function getBalance() external view returns (uint256) {... */\n    tag_17:\n        /* \"contracts/rrr.sol\":2109:2116  uint256 */\n      0x00\n        /* \"contracts/rrr.sol\":2136:2157  address(this).balance */\n      selfbalance\n        /* \"contracts/rrr.sol\":2129:2157  return address(this).balance */\n      swap1\n      pop\n        /* \"contracts/rrr.sol\":2064:2165  function getBalance() external view returns (uint256) {... */\n      swap1\n      jump\t// out\n        /* \"contracts/rrr.sol\":1874:2056  function withdraw(uint256 _amount) external onlyAdmin {... */\n    tag_23:\n        /* \"contracts/rrr.sol\":697:702  admin */\n      0x00\n      dup1\n      sload\n      swap1\n      0x0100\n      exp\n      swap1\n      div\n      0xffffffffffffffffffffffffffffffffffffffff\n      and\n        /* \"contracts/rrr.sol\":683:702  msg.sender == admin */\n      0xffffffffffffffffffffffffffffffffffffffff\n      and\n        /* \"contracts/rrr.sol\":683:693  msg.sender */\n      caller\n        /* \"contracts/rrr.sol\":683:702  msg.sender == admin */\n      0xffffffffffffffffffffffffffffffffffffffff\n      and\n      eq\n        /* \"contracts/rrr.sol\":675:741  require(msg.sender == admin, \"Only admin can call this function.\") */\n      tag_44\n      jumpi\n      mload(0x40)\n      0x08c379a000000000000000000000000000000000000000000000000000000000\n      dup2\n      mstore\n      0x04\n      add\n      tag_45\n      swap1\n      tag_46\n      jump\t// in\n    tag_45:\n      mload(0x40)\n      dup1\n      swap2\n      sub\n      swap1\n      revert\n    tag_44:\n        /* \"contracts/rrr.sol\":1958:1979  address(this).balance */\n      selfbalance\n        /* \"contracts/rrr.sol\":1947:1954  _amount */\n      dup2\n        /* \"contracts/rrr.sol\":1947:1979  _amount <= address(this).balance */\n      gt\n      iszero\n        /* \"contracts/rrr.sol\":1939:2005  require(_amount <= address(this).balance, \"Insufficient balance.\") */\n      tag_48\n      jumpi\n      mload(0x40)\n      0x08c379a000000000000000000000000000000000000000000000000000000000\n      dup2\n      mstore\n      0x04\n      add\n      tag_49\n      swap1\n      tag_50\n      jump\t// in\n    tag_49:\n      mload(0x40)\n      dup1\n      swap2\n      sub\n      swap1\n      revert\n    tag_48:\n        /* \"contracts/rrr.sol\":2024:2029  admin */\n      0x00\n      dup1\n      sload\n      swap1\n      0x0100\n      exp\n      swap1\n      div\n      0xffffffffffffffffffffffffffffffffffffffff\n      and\n        /* \"contracts/rrr.sol\":2016:2039  payable(admin).transfer */\n      0xffffffffffffffffffffffffffffffffffffffff\n      and\n        /* \"contracts/rrr.sol\":2016:2048  payable(admin).transfer(_amount) */\n      0x08fc\n        /* \"contracts/rrr.sol\":2040:2047  _amount */\n      dup3\n        /* \"contracts/rrr.sol\":2016:2048  payable(admin).transfer(_amount) */\n      swap1\n      dup2\n      iszero\n      mul\n      swap1\n      mload(0x40)\n      0x00\n      mload(0x40)\n      dup1\n      dup4\n      sub\n      dup2\n      dup6\n      dup9\n      dup9\n      call\n      swap4\n      pop\n      pop\n      pop\n      pop\n      iszero\n      dup1\n      iszero\n      tag_52\n      jumpi\n      returndatasize\n      0x00\n      dup1\n      returndatacopy\n      revert(0x00, returndatasize)\n    tag_52:\n      pop\n        /* \"contracts/rrr.sol\":1874:2056  function withdraw(uint256 _amount) external onlyAdmin {... */\n      pop\n      jump\t// out\n        /* \"contracts/rrr.sol\":280:327  mapping(uint256 => Complaint) public complaints */\n    tag_27:\n      mstore(0x20, 0x01)\n      dup1\n      0x00\n      mstore\n      keccak256(0x00, 0x40)\n      0x00\n      swap2\n      pop\n      swap1\n      pop\n      dup1\n      0x00\n      add\n      0x00\n      swap1\n      sload\n      swap1\n      0x0100\n      exp\n      swap1\n      div\n      0xffffffffffffffffffffffffffffffffffffffff\n      and\n      swap1\n      dup1\n      0x01\n      add\n      sload\n      swap1\n      dup1\n      0x02\n      add\n      sload\n      swap1\n      dup1\n      0x03\n      add\n      0x00\n      swap1\n      sload\n      swap1\n      0x0100\n      exp\n      swap1\n      div\n      0xff\n      and\n      swap1\n      dup1\n      0x03\n      add\n      0x01\n      swap1\n      sload\n      swap1\n      0x0100\n      exp\n      swap1\n      div\n      0xff\n      and\n      swap1\n      pop\n      dup6\n      jump\t// out\n        /* \"contracts/rrr.sol\":769:1284  function fileComplaint() external payable {... */\n    tag_31:\n        /* \"contracts/rrr.sol\":842:843  0 */\n      0x00\n        /* \"contracts/rrr.sol\":830:839  msg.value */\n      callvalue\n        /* \"contracts/rrr.sol\":830:843  msg.value > 0 */\n      gt\n        /* \"contracts/rrr.sol\":822:883  require(msg.value > 0, \"Burn amount must be greater than 0.\") */\n      tag_54\n      jumpi\n      mload(0x40)\n      0x08c379a000000000000000000000000000000000000000000000000000000000\n      dup2\n      mstore\n      0x04\n      add\n      tag_55\n      swap1\n      tag_56\n      jump\t// in\n    tag_55:\n      mload(0x40)\n      dup1\n      swap2\n      sub\n      swap1\n      revert\n    tag_54:\n        /* \"contracts/rrr.sol\":896:910  uint256 tokens */\n      0x00\n        /* \"contracts/rrr.sol\":925:927  20 */\n      0x14\n        /* \"contracts/rrr.sol\":913:922  msg.value */\n      callvalue\n        /* \"contracts/rrr.sol\":913:927  msg.value * 20 */\n      tag_57\n      swap2\n      swap1\n      tag_58\n      jump\t// in\n    tag_57:\n        /* \"contracts/rrr.sol\":896:927  uint256 tokens = msg.value * 20 */\n      swap1\n      pop\n        /* \"contracts/rrr.sol\":980:1166  Complaint({... */\n      mload(0x40)\n      dup1\n      0xa0\n      add\n      0x40\n      mstore\n      dup1\n        /* \"contracts/rrr.sol\":1014:1024  msg.sender */\n      caller\n        /* \"contracts/rrr.sol\":980:1166  Complaint({... */\n      0xffffffffffffffffffffffffffffffffffffffff\n      and\n      dup2\n      mstore\n      0x20\n      add\n        /* \"contracts/rrr.sol\":1051:1060  msg.value */\n      callvalue\n        /* \"contracts/rrr.sol\":980:1166  Complaint({... */\n      dup2\n      mstore\n      0x20\n      add\n        /* \"contracts/rrr.sol\":1088:1094  tokens */\n      dup3\n        /* \"contracts/rrr.sol\":980:1166  Complaint({... */\n      dup2\n      mstore\n      0x20\n      add\n        /* \"contracts/rrr.sol\":1119:1124  false */\n      0x00\n        /* \"contracts/rrr.sol\":980:1166  Complaint({... */\n      iszero\n      iszero\n      dup2\n      mstore\n      0x20\n      add\n        /* \"contracts/rrr.sol\":1149:1154  false */\n      0x00\n        /* \"contracts/rrr.sol\":980:1166  Complaint({... */\n      iszero\n      iszero\n      dup2\n      mstore\n      pop\n        /* \"contracts/rrr.sol\":949:959  complaints */\n      0x01\n        /* \"contracts/rrr.sol\":949:977  complaints[complaintCounter] */\n      0x00\n        /* \"contracts/rrr.sol\":960:976  complaintCounter */\n      sload(0x02)\n        /* \"contracts/rrr.sol\":949:977  complaints[complaintCounter] */\n      dup2\n      mstore\n      0x20\n      add\n      swap1\n      dup2\n      mstore\n      0x20\n      add\n      0x00\n      keccak256\n        /* \"contracts/rrr.sol\":949:1166  complaints[complaintCounter] = Complaint({... */\n      0x00\n      dup3\n      add\n      mload\n      dup2\n      0x00\n      add\n      exp(0x0100, 0x00)\n      dup2\n      sload\n      dup2\n      0xffffffffffffffffffffffffffffffffffffffff\n      mul\n      not\n      and\n      swap1\n      dup4\n      0xffffffffffffffffffffffffffffffffffffffff\n      and\n      mul\n      or\n      swap1\n      sstore\n      pop\n      0x20\n      dup3\n      add\n      mload\n      dup2\n      0x01\n      add\n      sstore\n      0x40\n      dup3\n      add\n      mload\n      dup2\n      0x02\n      add\n      sstore\n      0x60\n      dup3\n      add\n      mload\n      dup2\n      0x03\n      add\n      exp(0x0100, 0x00)\n      dup2\n      sload\n      dup2\n      0xff\n      mul\n      not\n      and\n      swap1\n      dup4\n      iszero\n      iszero\n      mul\n      or\n      swap1\n      sstore\n      pop\n      0x80\n      dup3\n      add\n      mload\n      dup2\n      0x03\n      add\n      exp(0x0100, 0x01)\n      dup2\n      sload\n      dup2\n      0xff\n      mul\n      not\n      and\n      swap1\n      dup4\n      iszero\n      iszero\n      mul\n      or\n      swap1\n      sstore\n      pop\n      swap1\n      pop\n      pop\n        /* \"contracts/rrr.sol\":1217:1227  msg.sender */\n      caller\n        /* \"contracts/rrr.sol\":1184:1247  ComplaintFiled(complaintCounter, msg.sender, msg.value, tokens) */\n      0xffffffffffffffffffffffffffffffffffffffff\n      and\n      0x66ceaee71e77238d682ad8da51475bcd63d696cc69fdfc6b02255bdda29d8ad4\n        /* \"contracts/rrr.sol\":1199:1215  complaintCounter */\n      sload(0x02)\n        /* \"contracts/rrr.sol\":1229:1238  msg.value */\n      callvalue\n        /* \"contracts/rrr.sol\":1240:1246  tokens */\n      dup5\n        /* \"contracts/rrr.sol\":1184:1247  ComplaintFiled(complaintCounter, msg.sender, msg.value, tokens) */\n      mload(0x40)\n      tag_59\n      swap4\n      swap3\n      swap2\n      swap1\n      tag_60\n      jump\t// in\n    tag_59:\n      mload(0x40)\n      dup1\n      swap2\n      sub\n      swap1\n      log2\n        /* \"contracts/rrr.sol\":1258:1274  complaintCounter */\n      0x02\n      0x00\n        /* \"contracts/rrr.sol\":1258:1276  complaintCounter++ */\n      dup2\n      sload\n      dup1\n      swap3\n      swap2\n      swap1\n      tag_61\n      swap1\n      tag_62\n      jump\t// in\n    tag_61:\n      swap2\n      swap1\n      pop\n      sstore\n      pop\n        /* \"contracts/rrr.sol\":811:1284  {... */\n      pop\n        /* \"contracts/rrr.sol\":769:1284  function fileComplaint() external payable {... */\n      jump\t// out\n        /* \"contracts/rrr.sol\":1292:1866  function reviewComplaint(uint256 _complaintId, bool _isGuilty) external onlyAdmin {... */\n    tag_36:\n        /* \"contracts/rrr.sol\":697:702  admin */\n      0x00\n      dup1\n      sload\n      swap1\n      0x0100\n      exp\n      swap1\n      div\n      0xffffffffffffffffffffffffffffffffffffffff\n      and\n        /* \"contracts/rrr.sol\":683:702  msg.sender == admin */\n      0xffffffffffffffffffffffffffffffffffffffff\n      and\n        /* \"contracts/rrr.sol\":683:693  msg.sender */\n      caller\n        /* \"contracts/rrr.sol\":683:702  msg.sender == admin */\n      0xffffffffffffffffffffffffffffffffffffffff\n      and\n      eq\n        /* \"contracts/rrr.sol\":675:741  require(msg.sender == admin, \"Only admin can call this function.\") */\n      tag_64\n      jumpi\n      mload(0x40)\n      0x08c379a000000000000000000000000000000000000000000000000000000000\n      dup2\n      mstore\n      0x04\n      add\n      tag_65\n      swap1\n      tag_46\n      jump\t// in\n    tag_65:\n      mload(0x40)\n      dup1\n      swap2\n      sub\n      swap1\n      revert\n    tag_64:\n        /* \"contracts/rrr.sol\":1385:1412  Complaint storage complaint */\n      0x00\n        /* \"contracts/rrr.sol\":1415:1425  complaints */\n      0x01\n        /* \"contracts/rrr.sol\":1415:1439  complaints[_complaintId] */\n      0x00\n        /* \"contracts/rrr.sol\":1426:1438  _complaintId */\n      dup5\n        /* \"contracts/rrr.sol\":1415:1439  complaints[_complaintId] */\n      dup2\n      mstore\n      0x20\n      add\n      swap1\n      dup2\n      mstore\n      0x20\n      add\n      0x00\n      keccak256\n        /* \"contracts/rrr.sol\":1385:1439  Complaint storage complaint = complaints[_complaintId] */\n      swap1\n      pop\n        /* \"contracts/rrr.sol\":1459:1468  complaint */\n      dup1\n        /* \"contracts/rrr.sol\":1459:1477  complaint.reviewed */\n      0x03\n      add\n      0x00\n      swap1\n      sload\n      swap1\n      0x0100\n      exp\n      swap1\n      div\n      0xff\n      and\n        /* \"contracts/rrr.sol\":1458:1477  !complaint.reviewed */\n      iszero\n        /* \"contracts/rrr.sol\":1450:1509  require(!complaint.reviewed, \"Complaint already reviewed.\") */\n      tag_67\n      jumpi\n      mload(0x40)\n      0x08c379a000000000000000000000000000000000000000000000000000000000\n      dup2\n      mstore\n      0x04\n      add\n      tag_68\n      swap1\n      tag_69\n      jump\t// in\n    tag_68:\n      mload(0x40)\n      dup1\n      swap2\n      sub\n      swap1\n      revert\n    tag_67:\n        /* \"contracts/rrr.sol\":1543:1547  true */\n      0x01\n        /* \"contracts/rrr.sol\":1522:1531  complaint */\n      dup2\n        /* \"contracts/rrr.sol\":1522:1540  complaint.reviewed */\n      0x03\n      add\n      0x00\n        /* \"contracts/rrr.sol\":1522:1547  complaint.reviewed = true */\n      0x0100\n      exp\n      dup2\n      sload\n      dup2\n      0xff\n      mul\n      not\n      and\n      swap1\n      dup4\n      iszero\n      iszero\n      mul\n      or\n      swap1\n      sstore\n      pop\n        /* \"contracts/rrr.sol\":1579:1588  _isGuilty */\n      dup2\n        /* \"contracts/rrr.sol\":1558:1567  complaint */\n      dup2\n        /* \"contracts/rrr.sol\":1558:1576  complaint.isGuilty */\n      0x03\n      add\n      0x01\n        /* \"contracts/rrr.sol\":1558:1588  complaint.isGuilty = _isGuilty */\n      0x0100\n      exp\n      dup2\n      sload\n      dup2\n      0xff\n      mul\n      not\n      and\n      swap1\n      dup4\n      iszero\n      iszero\n      mul\n      or\n      swap1\n      sstore\n      pop\n        /* \"contracts/rrr.sol\":1601:1621  uint256 compensation */\n      0x00\n        /* \"contracts/rrr.sol\":1642:1651  _isGuilty */\n      dup3\n        /* \"contracts/rrr.sol\":1638:1785  if (_isGuilty) {... */\n      iszero\n      tag_70\n      jumpi\n        /* \"contracts/rrr.sol\":1707:1708  2 */\n      0x02\n        /* \"contracts/rrr.sol\":1683:1692  complaint */\n      dup3\n        /* \"contracts/rrr.sol\":1683:1704  complaint.tokenAmount */\n      0x02\n      add\n      sload\n        /* \"contracts/rrr.sol\":1683:1708  complaint.tokenAmount * 2 */\n      tag_71\n      swap2\n      swap1\n      tag_58\n      jump\t// in\n    tag_71:\n        /* \"contracts/rrr.sol\":1668:1708  compensation = complaint.tokenAmount * 2 */\n      swap1\n      pop\n        /* \"contracts/rrr.sol\":1732:1741  complaint */\n      dup2\n        /* \"contracts/rrr.sol\":1732:1749  complaint.patient */\n      0x00\n      add\n      0x00\n      swap1\n      sload\n      swap1\n      0x0100\n      exp\n      swap1\n      div\n      0xffffffffffffffffffffffffffffffffffffffff\n      and\n        /* \"contracts/rrr.sol\":1724:1759  payable(complaint.patient).transfer */\n      0xffffffffffffffffffffffffffffffffffffffff\n      and\n        /* \"contracts/rrr.sol\":1724:1773  payable(complaint.patient).transfer(compensation) */\n      0x08fc\n        /* \"contracts/rrr.sol\":1760:1772  compensation */\n      dup3\n        /* \"contracts/rrr.sol\":1724:1773  payable(complaint.patient).transfer(compensation) */\n      swap1\n      dup2\n      iszero\n      mul\n      swap1\n      mload(0x40)\n      0x00\n      mload(0x40)\n      dup1\n      dup4\n      sub\n      dup2\n      dup6\n      dup9\n      dup9\n      call\n      swap4\n      pop\n      pop\n      pop\n      pop\n      iszero\n      dup1\n      iszero\n      tag_73\n      jumpi\n      returndatasize\n      0x00\n      dup1\n      returndatacopy\n      revert(0x00, returndatasize)\n    tag_73:\n      pop\n        /* \"contracts/rrr.sol\":1638:1785  if (_isGuilty) {... */\n    tag_70:\n        /* \"contracts/rrr.sol\":1802:1858  ComplaintReviewed(_complaintId, _isGuilty, compensation) */\n      0xc76efecf8313df5a9c7bac5447876eb7e252b0ee5ffa5ad8d32c78d7ea7cf3db\n        /* \"contracts/rrr.sol\":1820:1832  _complaintId */\n      dup5\n        /* \"contracts/rrr.sol\":1834:1843  _isGuilty */\n      dup5\n        /* \"contracts/rrr.sol\":1845:1857  compensation */\n      dup4\n        /* \"contracts/rrr.sol\":1802:1858  ComplaintReviewed(_complaintId, _isGuilty, compensation) */\n      mload(0x40)\n      tag_74\n      swap4\n      swap3\n      swap2\n      swap1\n      tag_75\n      jump\t// in\n    tag_74:\n      mload(0x40)\n      dup1\n      swap2\n      sub\n      swap1\n      log1\n        /* \"contracts/rrr.sol\":1374:1866  {... */\n      pop\n      pop\n        /* \"contracts/rrr.sol\":1292:1866  function reviewComplaint(uint256 _complaintId, bool _isGuilty) external onlyAdmin {... */\n      pop\n      pop\n      jump\t// out\n        /* \"contracts/rrr.sol\":253:273  address public admin */\n    tag_39:\n      0x00\n      dup1\n      sload\n      swap1\n      0x0100\n      exp\n      swap1\n      div\n      0xffffffffffffffffffffffffffffffffffffffff\n      and\n      dup2\n      jump\t// out\n        /* \"#utility.yul\":7:84   */\n    tag_76:\n        /* \"#utility.yul\":44:51   */\n      0x00\n        /* \"#utility.yul\":73:78   */\n      dup2\n        /* \"#utility.yul\":62:78   */\n      swap1\n      pop\n        /* \"#utility.yul\":7:84   */\n      swap2\n      swap1\n      pop\n      jump\t// out\n        /* \"#utility.yul\":90:208   */\n    tag_77:\n        /* \"#utility.yul\":177:201   */\n      tag_103\n        /* \"#utility.yul\":195:200   */\n      dup2\n        /* \"#utility.yul\":177:201   */\n      tag_76\n      jump\t// in\n    tag_103:\n        /* \"#utility.yul\":172:175   */\n      dup3\n        /* \"#utility.yul\":165:202   */\n      mstore\n        /* \"#utility.yul\":90:208   */\n      pop\n      pop\n      jump\t// out\n        /* \"#utility.yul\":214:436   */\n    tag_14:\n        /* \"#utility.yul\":307:311   */\n      0x00\n        /* \"#utility.yul\":345:347   */\n      0x20\n        /* \"#utility.yul\":334:343   */\n      dup3\n        /* \"#utility.yul\":330:348   */\n      add\n        /* \"#utility.yul\":322:348   */\n      swap1\n      pop\n        /* \"#utility.yul\":358:429   */\n      tag_105\n        /* \"#utility.yul\":426:427   */\n      0x00\n        /* \"#utility.yul\":415:424   */\n      dup4\n        /* \"#utility.yul\":411:428   */\n      add\n        /* \"#utility.yul\":402:408   */\n      dup5\n        /* \"#utility.yul\":358:429   */\n      tag_77\n      jump\t// in\n    tag_105:\n        /* \"#utility.yul\":214:436   */\n      swap3\n      swap2\n      pop\n      pop\n      jump\t// out\n        /* \"#utility.yul\":523:640   */\n    tag_79:\n        /* \"#utility.yul\":632:633   */\n      0x00\n        /* \"#utility.yul\":629:630   */\n      dup1\n        /* \"#utility.yul\":622:634   */\n      revert\n        /* \"#utility.yul\":769:891   */\n    tag_81:\n        /* \"#utility.yul\":842:866   */\n      tag_110\n        /* \"#utility.yul\":860:865   */\n      dup2\n        /* \"#utility.yul\":842:866   */\n      tag_76\n      jump\t// in\n    tag_110:\n        /* \"#utility.yul\":835:840   */\n      dup2\n        /* \"#utility.yul\":832:867   */\n      eq\n        /* \"#utility.yul\":822:885   */\n      tag_111\n      jumpi\n        /* \"#utility.yul\":881:882   */\n      0x00\n        /* \"#utility.yul\":878:879   */\n      dup1\n        /* \"#utility.yul\":871:883   */\n      revert\n        /* \"#utility.yul\":822:885   */\n    tag_111:\n        /* \"#utility.yul\":769:891   */\n      pop\n      jump\t// out\n        /* \"#utility.yul\":897:1036   */\n    tag_82:\n        /* \"#utility.yul\":943:948   */\n      0x00\n        /* \"#utility.yul\":981:987   */\n      dup2\n        /* \"#utility.yul\":968:988   */\n      calldataload\n        /* \"#utility.yul\":959:988   */\n      swap1\n      pop\n        /* \"#utility.yul\":997:1030   */\n      tag_113\n        /* \"#utility.yul\":1024:1029   */\n      dup2\n        /* \"#utility.yul\":997:1030   */\n      tag_81\n      jump\t// in\n    tag_113:\n        /* \"#utility.yul\":897:1036   */\n      swap3\n      swap2\n      pop\n      pop\n      jump\t// out\n        /* \"#utility.yul\":1042:1371   */\n    tag_22:\n        /* \"#utility.yul\":1101:1107   */\n      0x00\n        /* \"#utility.yul\":1150:1152   */\n      0x20\n        /* \"#utility.yul\":1138:1147   */\n      dup3\n        /* \"#utility.yul\":1129:1136   */\n      dup5\n        /* \"#utility.yul\":1125:1148   */\n      sub\n        /* \"#utility.yul\":1121:1153   */\n      slt\n        /* \"#utility.yul\":1118:1237   */\n      iszero\n      tag_115\n      jumpi\n        /* \"#utility.yul\":1156:1235   */\n      tag_116\n      tag_79\n      jump\t// in\n    tag_116:\n        /* \"#utility.yul\":1118:1237   */\n    tag_115:\n        /* \"#utility.yul\":1276:1277   */\n      0x00\n        /* \"#utility.yul\":1301:1354   */\n      tag_117\n        /* \"#utility.yul\":1346:1353   */\n      dup5\n        /* \"#utility.yul\":1337:1343   */\n      dup3\n        /* \"#utility.yul\":1326:1335   */\n      dup6\n        /* \"#utility.yul\":1322:1344   */\n      add\n        /* \"#utility.yul\":1301:1354   */\n      tag_82\n      jump\t// in\n    tag_117:\n        /* \"#utility.yul\":1291:1354   */\n      swap2\n      pop\n        /* \"#utility.yul\":1247:1364   */\n      pop\n        /* \"#utility.yul\":1042:1371   */\n      swap3\n      swap2\n      pop\n      pop\n      jump\t// out\n        /* \"#utility.yul\":1377:1503   */\n    tag_83:\n        /* \"#utility.yul\":1414:1421   */\n      0x00\n        /* \"#utility.yul\":1454:1496   */\n      0xffffffffffffffffffffffffffffffffffffffff\n        /* \"#utility.yul\":1447:1452   */\n      dup3\n        /* \"#utility.yul\":1443:1497   */\n      and\n        /* \"#utility.yul\":1432:1497   */\n      swap1\n      pop\n        /* \"#utility.yul\":1377:1503   */\n      swap2\n      swap1\n      pop\n      jump\t// out\n        /* \"#utility.yul\":1509:1605   */\n    tag_84:\n        /* \"#utility.yul\":1546:1553   */\n      0x00\n        /* \"#utility.yul\":1575:1599   */\n      tag_120\n        /* \"#utility.yul\":1593:1598   */\n      dup3\n        /* \"#utility.yul\":1575:1599   */\n      tag_83\n      jump\t// in\n    tag_120:\n        /* \"#utility.yul\":1564:1599   */\n      swap1\n      pop\n        /* \"#utility.yul\":1509:1605   */\n      swap2\n      swap1\n      pop\n      jump\t// out\n        /* \"#utility.yul\":1611:1729   */\n    tag_85:\n        /* \"#utility.yul\":1698:1722   */\n      tag_122\n        /* \"#utility.yul\":1716:1721   */\n      dup2\n        /* \"#utility.yul\":1698:1722   */\n      tag_84\n      jump\t// in\n    tag_122:\n        /* \"#utility.yul\":1693:1696   */\n      dup3\n        /* \"#utility.yul\":1686:1723   */\n      mstore\n        /* \"#utility.yul\":1611:1729   */\n      pop\n      pop\n      jump\t// out\n        /* \"#utility.yul\":1735:1825   */\n    tag_86:\n        /* \"#utility.yul\":1769:1776   */\n      0x00\n        /* \"#utility.yul\":1812:1817   */\n      dup2\n        /* \"#utility.yul\":1805:1818   */\n      iszero\n        /* \"#utility.yul\":1798:1819   */\n      iszero\n        /* \"#utility.yul\":1787:1819   */\n      swap1\n      pop\n        /* \"#utility.yul\":1735:1825   */\n      swap2\n      swap1\n      pop\n      jump\t// out\n        /* \"#utility.yul\":1831:1940   */\n    tag_87:\n        /* \"#utility.yul\":1912:1933   */\n      tag_125\n        /* \"#utility.yul\":1927:1932   */\n      dup2\n        /* \"#utility.yul\":1912:1933   */\n      tag_86\n      jump\t// in\n    tag_125:\n        /* \"#utility.yul\":1907:1910   */\n      dup3\n        /* \"#utility.yul\":1900:1934   */\n      mstore\n        /* \"#utility.yul\":1831:1940   */\n      pop\n      pop\n      jump\t// out\n        /* \"#utility.yul\":1946:2586   */\n    tag_29:\n        /* \"#utility.yul\":2139:2143   */\n      0x00\n        /* \"#utility.yul\":2177:2180   */\n      0xa0\n        /* \"#utility.yul\":2166:2175   */\n      dup3\n        /* \"#utility.yul\":2162:2181   */\n      add\n        /* \"#utility.yul\":2154:2181   */\n      swap1\n      pop\n        /* \"#utility.yul\":2191:2262   */\n      tag_127\n        /* \"#utility.yul\":2259:2260   */\n      0x00\n        /* \"#utility.yul\":2248:2257   */\n      dup4\n        /* \"#utility.yul\":2244:2261   */\n      add\n        /* \"#utility.yul\":2235:2241   */\n      dup9\n        /* \"#utility.yul\":2191:2262   */\n      tag_85\n      jump\t// in\n    tag_127:\n        /* \"#utility.yul\":2272:2344   */\n      tag_128\n        /* \"#utility.yul\":2340:2342   */\n      0x20\n        /* \"#utility.yul\":2329:2338   */\n      dup4\n        /* \"#utility.yul\":2325:2343   */\n      add\n        /* \"#utility.yul\":2316:2322   */\n      dup8\n        /* \"#utility.yul\":2272:2344   */\n      tag_77\n      jump\t// in\n    tag_128:\n        /* \"#utility.yul\":2354:2426   */\n      tag_129\n        /* \"#utility.yul\":2422:2424   */\n      0x40\n        /* \"#utility.yul\":2411:2420   */\n      dup4\n        /* \"#utility.yul\":2407:2425   */\n      add\n        /* \"#utility.yul\":2398:2404   */\n      dup7\n        /* \"#utility.yul\":2354:2426   */\n      tag_77\n      jump\t// in\n    tag_129:\n        /* \"#utility.yul\":2436:2502   */\n      tag_130\n        /* \"#utility.yul\":2498:2500   */\n      0x60\n        /* \"#utility.yul\":2487:2496   */\n      dup4\n        /* \"#utility.yul\":2483:2501   */\n      add\n        /* \"#utility.yul\":2474:2480   */\n      dup6\n        /* \"#utility.yul\":2436:2502   */\n      tag_87\n      jump\t// in\n    tag_130:\n        /* \"#utility.yul\":2512:2579   */\n      tag_131\n        /* \"#utility.yul\":2574:2577   */\n      0x80\n        /* \"#utility.yul\":2563:2572   */\n      dup4\n        /* \"#utility.yul\":2559:2578   */\n      add\n        /* \"#utility.yul\":2550:2556   */\n      dup5\n        /* \"#utility.yul\":2512:2579   */\n      tag_87\n      jump\t// in\n    tag_131:\n        /* \"#utility.yul\":1946:2586   */\n      swap7\n      swap6\n      pop\n      pop\n      pop\n      pop\n      pop\n      pop\n      jump\t// out\n        /* \"#utility.yul\":2592:2708   */\n    tag_88:\n        /* \"#utility.yul\":2662:2683   */\n      tag_133\n        /* \"#utility.yul\":2677:2682   */\n      dup2\n        /* \"#utility.yul\":2662:2683   */\n      tag_86\n      jump\t// in\n    tag_133:\n        /* \"#utility.yul\":2655:2660   */\n      dup2\n        /* \"#utility.yul\":2652:2684   */\n      eq\n        /* \"#utility.yul\":2642:2702   */\n      tag_134\n      jumpi\n        /* \"#utility.yul\":2698:2699   */\n      0x00\n        /* \"#utility.yul\":2695:2696   */\n      dup1\n        /* \"#utility.yul\":2688:2700   */\n      revert\n        /* \"#utility.yul\":2642:2702   */\n    tag_134:\n        /* \"#utility.yul\":2592:2708   */\n      pop\n      jump\t// out\n        /* \"#utility.yul\":2714:2847   */\n    tag_89:\n        /* \"#utility.yul\":2757:2762   */\n      0x00\n        /* \"#utility.yul\":2795:2801   */\n      dup2\n        /* \"#utility.yul\":2782:2802   */\n      calldataload\n        /* \"#utility.yul\":2773:2802   */\n      swap1\n      pop\n        /* \"#utility.yul\":2811:2841   */\n      tag_136\n        /* \"#utility.yul\":2835:2840   */\n      dup2\n        /* \"#utility.yul\":2811:2841   */\n      tag_88\n      jump\t// in\n    tag_136:\n        /* \"#utility.yul\":2714:2847   */\n      swap3\n      swap2\n      pop\n      pop\n      jump\t// out\n        /* \"#utility.yul\":2853:3321   */\n    tag_35:\n        /* \"#utility.yul\":2918:2924   */\n      0x00\n        /* \"#utility.yul\":2926:2932   */\n      dup1\n        /* \"#utility.yul\":2975:2977   */\n      0x40\n        /* \"#utility.yul\":2963:2972   */\n      dup4\n        /* \"#utility.yul\":2954:2961   */\n      dup6\n        /* \"#utility.yul\":2950:2973   */\n      sub\n        /* \"#utility.yul\":2946:2978   */\n      slt\n        /* \"#utility.yul\":2943:3062   */\n      iszero\n      tag_138\n      jumpi\n        /* \"#utility.yul\":2981:3060   */\n      tag_139\n      tag_79\n      jump\t// in\n    tag_139:\n        /* \"#utility.yul\":2943:3062   */\n    tag_138:\n        /* \"#utility.yul\":3101:3102   */\n      0x00\n        /* \"#utility.yul\":3126:3179   */\n      tag_140\n        /* \"#utility.yul\":3171:3178   */\n      dup6\n        /* \"#utility.yul\":3162:3168   */\n      dup3\n        /* \"#utility.yul\":3151:3160   */\n      dup7\n        /* \"#utility.yul\":3147:3169   */\n      add\n        /* \"#utility.yul\":3126:3179   */\n      tag_82\n      jump\t// in\n    tag_140:\n        /* \"#utility.yul\":3116:3179   */\n      swap3\n      pop\n        /* \"#utility.yul\":3072:3189   */\n      pop\n        /* \"#utility.yul\":3228:3230   */\n      0x20\n        /* \"#utility.yul\":3254:3304   */\n      tag_141\n        /* \"#utility.yul\":3296:3303   */\n      dup6\n        /* \"#utility.yul\":3287:3293   */\n      dup3\n        /* \"#utility.yul\":3276:3285   */\n      dup7\n        /* \"#utility.yul\":3272:3294   */\n      add\n        /* \"#utility.yul\":3254:3304   */\n      tag_89\n      jump\t// in\n    tag_141:\n        /* \"#utility.yul\":3244:3304   */\n      swap2\n      pop\n        /* \"#utility.yul\":3199:3314   */\n      pop\n        /* \"#utility.yul\":2853:3321   */\n      swap3\n      pop\n      swap3\n      swap1\n      pop\n      jump\t// out\n        /* \"#utility.yul\":3327:3549   */\n    tag_41:\n        /* \"#utility.yul\":3420:3424   */\n      0x00\n        /* \"#utility.yul\":3458:3460   */\n      0x20\n        /* \"#utility.yul\":3447:3456   */\n      dup3\n        /* \"#utility.yul\":3443:3461   */\n      add\n        /* \"#utility.yul\":3435:3461   */\n      swap1\n      pop\n        /* \"#utility.yul\":3471:3542   */\n      tag_143\n        /* \"#utility.yul\":3539:3540   */\n      0x00\n        /* \"#utility.yul\":3528:3537   */\n      dup4\n        /* \"#utility.yul\":3524:3541   */\n      add\n        /* \"#utility.yul\":3515:3521   */\n      dup5\n        /* \"#utility.yul\":3471:3542   */\n      tag_85\n      jump\t// in\n    tag_143:\n        /* \"#utility.yul\":3327:3549   */\n      swap3\n      swap2\n      pop\n      pop\n      jump\t// out\n        /* \"#utility.yul\":3555:3724   */\n    tag_90:\n        /* \"#utility.yul\":3639:3650   */\n      0x00\n        /* \"#utility.yul\":3673:3679   */\n      dup3\n        /* \"#utility.yul\":3668:3671   */\n      dup3\n        /* \"#utility.yul\":3661:3680   */\n      mstore\n        /* \"#utility.yul\":3713:3717   */\n      0x20\n        /* \"#utility.yul\":3708:3711   */\n      dup3\n        /* \"#utility.yul\":3704:3718   */\n      add\n        /* \"#utility.yul\":3689:3718   */\n      swap1\n      pop\n        /* \"#utility.yul\":3555:3724   */\n      swap3\n      swap2\n      pop\n      pop\n      jump\t// out\n        /* \"#utility.yul\":3730:3951   */\n    tag_91:\n        /* \"#utility.yul\":3870:3904   */\n      0x4f6e6c792061646d696e2063616e2063616c6c20746869732066756e6374696f\n        /* \"#utility.yul\":3866:3867   */\n      0x00\n        /* \"#utility.yul\":3858:3864   */\n      dup3\n        /* \"#utility.yul\":3854:3868   */\n      add\n        /* \"#utility.yul\":3847:3905   */\n      mstore\n        /* \"#utility.yul\":3939:3943   */\n      0x6e2e000000000000000000000000000000000000000000000000000000000000\n        /* \"#utility.yul\":3934:3936   */\n      0x20\n        /* \"#utility.yul\":3926:3932   */\n      dup3\n        /* \"#utility.yul\":3922:3937   */\n      add\n        /* \"#utility.yul\":3915:3944   */\n      mstore\n        /* \"#utility.yul\":3730:3951   */\n      pop\n      jump\t// out\n        /* \"#utility.yul\":3957:4323   */\n    tag_92:\n        /* \"#utility.yul\":4099:4102   */\n      0x00\n        /* \"#utility.yul\":4120:4187   */\n      tag_147\n        /* \"#utility.yul\":4184:4186   */\n      0x22\n        /* \"#utility.yul\":4179:4182   */\n      dup4\n        /* \"#utility.yul\":4120:4187   */\n      tag_90\n      jump\t// in\n    tag_147:\n        /* \"#utility.yul\":4113:4187   */\n      swap2\n      pop\n        /* \"#utility.yul\":4196:4289   */\n      tag_148\n        /* \"#utility.yul\":4285:4288   */\n      dup3\n        /* \"#utility.yul\":4196:4289   */\n      tag_91\n      jump\t// in\n    tag_148:\n        /* \"#utility.yul\":4314:4316   */\n      0x40\n        /* \"#utility.yul\":4309:4312   */\n      dup3\n        /* \"#utility.yul\":4305:4317   */\n      add\n        /* \"#utility.yul\":4298:4317   */\n      swap1\n      pop\n        /* \"#utility.yul\":3957:4323   */\n      swap2\n      swap1\n      pop\n      jump\t// out\n        /* \"#utility.yul\":4329:4748   */\n    tag_46:\n        /* \"#utility.yul\":4495:4499   */\n      0x00\n        /* \"#utility.yul\":4533:4535   */\n      0x20\n        /* \"#utility.yul\":4522:4531   */\n      dup3\n        /* \"#utility.yul\":4518:4536   */\n      add\n        /* \"#utility.yul\":4510:4536   */\n      swap1\n      pop\n        /* \"#utility.yul\":4582:4591   */\n      dup2\n        /* \"#utility.yul\":4576:4580   */\n      dup2\n        /* \"#utility.yul\":4572:4592   */\n      sub\n        /* \"#utility.yul\":4568:4569   */\n      0x00\n        /* \"#utility.yul\":4557:4566   */\n      dup4\n        /* \"#utility.yul\":4553:4570   */\n      add\n        /* \"#utility.yul\":4546:4593   */\n      mstore\n        /* \"#utility.yul\":4610:4741   */\n      tag_150\n        /* \"#utility.yul\":4736:4740   */\n      dup2\n        /* \"#utility.yul\":4610:4741   */\n      tag_92\n      jump\t// in\n    tag_150:\n        /* \"#utility.yul\":4602:4741   */\n      swap1\n      pop\n        /* \"#utility.yul\":4329:4748   */\n      swap2\n      swap1\n      pop\n      jump\t// out\n        /* \"#utility.yul\":4754:4925   */\n    tag_93:\n        /* \"#utility.yul\":4894:4917   */\n      0x496e73756666696369656e742062616c616e63652e0000000000000000000000\n        /* \"#utility.yul\":4890:4891   */\n      0x00\n        /* \"#utility.yul\":4882:4888   */\n      dup3\n        /* \"#utility.yul\":4878:4892   */\n      add\n        /* \"#utility.yul\":4871:4918   */\n      mstore\n        /* \"#utility.yul\":4754:4925   */\n      pop\n      jump\t// out\n        /* \"#utility.yul\":4931:5297   */\n    tag_94:\n        /* \"#utility.yul\":5073:5076   */\n      0x00\n        /* \"#utility.yul\":5094:5161   */\n      tag_153\n        /* \"#utility.yul\":5158:5160   */\n      0x15\n        /* \"#utility.yul\":5153:5156   */\n      dup4\n        /* \"#utility.yul\":5094:5161   */\n      tag_90\n      jump\t// in\n    tag_153:\n        /* \"#utility.yul\":5087:5161   */\n      swap2\n      pop\n        /* \"#utility.yul\":5170:5263   */\n      tag_154\n        /* \"#utility.yul\":5259:5262   */\n      dup3\n        /* \"#utility.yul\":5170:5263   */\n      tag_93\n      jump\t// in\n    tag_154:\n        /* \"#utility.yul\":5288:5290   */\n      0x20\n        /* \"#utility.yul\":5283:5286   */\n      dup3\n        /* \"#utility.yul\":5279:5291   */\n      add\n        /* \"#utility.yul\":5272:5291   */\n      swap1\n      pop\n        /* \"#utility.yul\":4931:5297   */\n      swap2\n      swap1\n      pop\n      jump\t// out\n        /* \"#utility.yul\":5303:5722   */\n    tag_50:\n        /* \"#utility.yul\":5469:5473   */\n      0x00\n        /* \"#utility.yul\":5507:5509   */\n      0x20\n        /* \"#utility.yul\":5496:5505   */\n      dup3\n        /* \"#utility.yul\":5492:5510   */\n      add\n        /* \"#utility.yul\":5484:5510   */\n      swap1\n      pop\n        /* \"#utility.yul\":5556:5565   */\n      dup2\n        /* \"#utility.yul\":5550:5554   */\n      dup2\n        /* \"#utility.yul\":5546:5566   */\n      sub\n        /* \"#utility.yul\":5542:5543   */\n      0x00\n        /* \"#utility.yul\":5531:5540   */\n      dup4\n        /* \"#utility.yul\":5527:5544   */\n      add\n        /* \"#utility.yul\":5520:5567   */\n      mstore\n        /* \"#utility.yul\":5584:5715   */\n      tag_156\n        /* \"#utility.yul\":5710:5714   */\n      dup2\n        /* \"#utility.yul\":5584:5715   */\n      tag_94\n      jump\t// in\n    tag_156:\n        /* \"#utility.yul\":5576:5715   */\n      swap1\n      pop\n        /* \"#utility.yul\":5303:5722   */\n      swap2\n      swap1\n      pop\n      jump\t// out\n        /* \"#utility.yul\":5728:5950   */\n    tag_95:\n        /* \"#utility.yul\":5868:5902   */\n      0x4275726e20616d6f756e74206d7573742062652067726561746572207468616e\n        /* \"#utility.yul\":5864:5865   */\n      0x00\n        /* \"#utility.yul\":5856:5862   */\n      dup3\n        /* \"#utility.yul\":5852:5866   */\n      add\n        /* \"#utility.yul\":5845:5903   */\n      mstore\n        /* \"#utility.yul\":5937:5942   */\n      0x20302e0000000000000000000000000000000000000000000000000000000000\n        /* \"#utility.yul\":5932:5934   */\n      0x20\n        /* \"#utility.yul\":5924:5930   */\n      dup3\n        /* \"#utility.yul\":5920:5935   */\n      add\n        /* \"#utility.yul\":5913:5943   */\n      mstore\n        /* \"#utility.yul\":5728:5950   */\n      pop\n      jump\t// out\n        /* \"#utility.yul\":5956:6322   */\n    tag_96:\n        /* \"#utility.yul\":6098:6101   */\n      0x00\n        /* \"#utility.yul\":6119:6186   */\n      tag_159\n        /* \"#utility.yul\":6183:6185   */\n      0x23\n        /* \"#utility.yul\":6178:6181   */\n      dup4\n        /* \"#utility.yul\":6119:6186   */\n      tag_90\n      jump\t// in\n    tag_159:\n        /* \"#utility.yul\":6112:6186   */\n      swap2\n      pop\n        /* \"#utility.yul\":6195:6288   */\n      tag_160\n        /* \"#utility.yul\":6284:6287   */\n      dup3\n        /* \"#utility.yul\":6195:6288   */\n      tag_95\n      jump\t// in\n    tag_160:\n        /* \"#utility.yul\":6313:6315   */\n      0x40\n        /* \"#utility.yul\":6308:6311   */\n      dup3\n        /* \"#utility.yul\":6304:6316   */\n      add\n        /* \"#utility.yul\":6297:6316   */\n      swap1\n      pop\n        /* \"#utility.yul\":5956:6322   */\n      swap2\n      swap1\n      pop\n      jump\t// out\n        /* \"#utility.yul\":6328:6747   */\n    tag_56:\n        /* \"#utility.yul\":6494:6498   */\n      0x00\n        /* \"#utility.yul\":6532:6534   */\n      0x20\n        /* \"#utility.yul\":6521:6530   */\n      dup3\n        /* \"#utility.yul\":6517:6535   */\n      add\n        /* \"#utility.yul\":6509:6535   */\n      swap1\n      pop\n        /* \"#utility.yul\":6581:6590   */\n      dup2\n        /* \"#utility.yul\":6575:6579   */\n      dup2\n        /* \"#utility.yul\":6571:6591   */\n      sub\n        /* \"#utility.yul\":6567:6568   */\n      0x00\n        /* \"#utility.yul\":6556:6565   */\n      dup4\n        /* \"#utility.yul\":6552:6569   */\n      add\n        /* \"#utility.yul\":6545:6592   */\n      mstore\n        /* \"#utility.yul\":6609:6740   */\n      tag_162\n        /* \"#utility.yul\":6735:6739   */\n      dup2\n        /* \"#utility.yul\":6609:6740   */\n      tag_96\n      jump\t// in\n    tag_162:\n        /* \"#utility.yul\":6601:6740   */\n      swap1\n      pop\n        /* \"#utility.yul\":6328:6747   */\n      swap2\n      swap1\n      pop\n      jump\t// out\n        /* \"#utility.yul\":6753:6933   */\n    tag_97:\n        /* \"#utility.yul\":6801:6878   */\n      0x4e487b7100000000000000000000000000000000000000000000000000000000\n        /* \"#utility.yul\":6798:6799   */\n      0x00\n        /* \"#utility.yul\":6791:6879   */\n      mstore\n        /* \"#utility.yul\":6898:6902   */\n      0x11\n        /* \"#utility.yul\":6895:6896   */\n      0x04\n        /* \"#utility.yul\":6888:6903   */\n      mstore\n        /* \"#utility.yul\":6922:6926   */\n      0x24\n        /* \"#utility.yul\":6919:6920   */\n      0x00\n        /* \"#utility.yul\":6912:6927   */\n      revert\n        /* \"#utility.yul\":6939:7349   */\n    tag_58:\n        /* \"#utility.yul\":6979:6986   */\n      0x00\n        /* \"#utility.yul\":7002:7022   */\n      tag_165\n        /* \"#utility.yul\":7020:7021   */\n      dup3\n        /* \"#utility.yul\":7002:7022   */\n      tag_76\n      jump\t// in\n    tag_165:\n        /* \"#utility.yul\":6997:7022   */\n      swap2\n      pop\n        /* \"#utility.yul\":7036:7056   */\n      tag_166\n        /* \"#utility.yul\":7054:7055   */\n      dup4\n        /* \"#utility.yul\":7036:7056   */\n      tag_76\n      jump\t// in\n    tag_166:\n        /* \"#utility.yul\":7031:7056   */\n      swap3\n      pop\n        /* \"#utility.yul\":7091:7092   */\n      dup3\n        /* \"#utility.yul\":7088:7089   */\n      dup3\n        /* \"#utility.yul\":7084:7093   */\n      mul\n        /* \"#utility.yul\":7113:7143   */\n      tag_167\n        /* \"#utility.yul\":7131:7142   */\n      dup2\n        /* \"#utility.yul\":7113:7143   */\n      tag_76\n      jump\t// in\n    tag_167:\n        /* \"#utility.yul\":7102:7143   */\n      swap2\n      pop\n        /* \"#utility.yul\":7292:7293   */\n      dup3\n        /* \"#utility.yul\":7283:7290   */\n      dup3\n        /* \"#utility.yul\":7279:7294   */\n      div\n        /* \"#utility.yul\":7276:7277   */\n      dup5\n        /* \"#utility.yul\":7273:7295   */\n      eq\n        /* \"#utility.yul\":7253:7254   */\n      dup4\n        /* \"#utility.yul\":7246:7255   */\n      iszero\n        /* \"#utility.yul\":7226:7309   */\n      or\n        /* \"#utility.yul\":7203:7342   */\n      tag_168\n      jumpi\n        /* \"#utility.yul\":7322:7340   */\n      tag_169\n      tag_97\n      jump\t// in\n    tag_169:\n        /* \"#utility.yul\":7203:7342   */\n    tag_168:\n        /* \"#utility.yul\":6987:7349   */\n      pop\n        /* \"#utility.yul\":6939:7349   */\n      swap3\n      swap2\n      pop\n      pop\n      jump\t// out\n        /* \"#utility.yul\":7355:7797   */\n    tag_60:\n        /* \"#utility.yul\":7504:7508   */\n      0x00\n        /* \"#utility.yul\":7542:7544   */\n      0x60\n        /* \"#utility.yul\":7531:7540   */\n      dup3\n        /* \"#utility.yul\":7527:7545   */\n      add\n        /* \"#utility.yul\":7519:7545   */\n      swap1\n      pop\n        /* \"#utility.yul\":7555:7626   */\n      tag_171\n        /* \"#utility.yul\":7623:7624   */\n      0x00\n        /* \"#utility.yul\":7612:7621   */\n      dup4\n        /* \"#utility.yul\":7608:7625   */\n      add\n        /* \"#utility.yul\":7599:7605   */\n      dup7\n        /* \"#utility.yul\":7555:7626   */\n      tag_77\n      jump\t// in\n    tag_171:\n        /* \"#utility.yul\":7636:7708   */\n      tag_172\n        /* \"#utility.yul\":7704:7706   */\n      0x20\n        /* \"#utility.yul\":7693:7702   */\n      dup4\n        /* \"#utility.yul\":7689:7707   */\n      add\n        /* \"#utility.yul\":7680:7686   */\n      dup6\n        /* \"#utility.yul\":7636:7708   */\n      tag_77\n      jump\t// in\n    tag_172:\n        /* \"#utility.yul\":7718:7790   */\n      tag_173\n        /* \"#utility.yul\":7786:7788   */\n      0x40\n        /* \"#utility.yul\":7775:7784   */\n      dup4\n        /* \"#utility.yul\":7771:7789   */\n      add\n        /* \"#utility.yul\":7762:7768   */\n      dup5\n        /* \"#utility.yul\":7718:7790   */\n      tag_77\n      jump\t// in\n    tag_173:\n        /* \"#utility.yul\":7355:7797   */\n      swap5\n      swap4\n      pop\n      pop\n      pop\n      pop\n      jump\t// out\n        /* \"#utility.yul\":7803:8036   */\n    tag_62:\n        /* \"#utility.yul\":7842:7845   */\n      0x00\n        /* \"#utility.yul\":7865:7889   */\n      tag_175\n        /* \"#utility.yul\":7883:7888   */\n      dup3\n        /* \"#utility.yul\":7865:7889   */\n      tag_76\n      jump\t// in\n    tag_175:\n        /* \"#utility.yul\":7856:7889   */\n      swap2\n      pop\n        /* \"#utility.yul\":7911:7977   */\n      0xffffffffffffffffffffffffffffffffffffffffffffffffffffffffffffffff\n        /* \"#utility.yul\":7904:7909   */\n      dup3\n        /* \"#utility.yul\":7901:7978   */\n      sub\n        /* \"#utility.yul\":7898:8001   */\n      tag_176\n      jumpi\n        /* \"#utility.yul\":7981:7999   */\n      tag_177\n      tag_97\n      jump\t// in\n    tag_177:\n        /* \"#utility.yul\":7898:8001   */\n    tag_176:\n        /* \"#utility.yul\":8028:8029   */\n      0x01\n        /* \"#utility.yul\":8021:8026   */\n      dup3\n        /* \"#utility.yul\":8017:8030   */\n      add\n        /* \"#utility.yul\":8010:8030   */\n      swap1\n      pop\n        /* \"#utility.yul\":7803:8036   */\n      swap2\n      swap1\n      pop\n      jump\t// out\n        /* \"#utility.yul\":8042:8219   */\n    tag_98:\n        /* \"#utility.yul\":8182:8211   */\n      0x436f6d706c61696e7420616c72656164792072657669657765642e0000000000\n        /* \"#utility.yul\":8178:8179   */\n      0x00\n        /* \"#utility.yul\":8170:8176   */\n      dup3\n        /* \"#utility.yul\":8166:8180   */\n      add\n        /* \"#utility.yul\":8159:8212   */\n      mstore\n        /* \"#utility.yul\":8042:8219   */\n      pop\n      jump\t// out\n        /* \"#utility.yul\":8225:8591   */\n    tag_99:\n        /* \"#utility.yul\":8367:8370   */\n      0x00\n        /* \"#utility.yul\":8388:8455   */\n      tag_180\n        /* \"#utility.yul\":8452:8454   */\n      0x1b\n        /* \"#utility.yul\":8447:8450   */\n      dup4\n        /* \"#utility.yul\":8388:8455   */\n      tag_90\n      jump\t// in\n    tag_180:\n        /* \"#utility.yul\":8381:8455   */\n      swap2\n      pop\n        /* \"#utility.yul\":8464:8557   */\n      tag_181\n        /* \"#utility.yul\":8553:8556   */\n      dup3\n        /* \"#utility.yul\":8464:8557   */\n      tag_98\n      jump\t// in\n    tag_181:\n        /* \"#utility.yul\":8582:8584   */\n      0x20\n        /* \"#utility.yul\":8577:8580   */\n      dup3\n        /* \"#utility.yul\":8573:8585   */\n      add\n        /* \"#utility.yul\":8566:8585   */\n      swap1\n      pop\n        /* \"#utility.yul\":8225:8591   */\n      swap2\n      swap1\n      pop\n      jump\t// out\n        /* \"#utility.yul\":8597:9016   */\n    tag_69:\n        /* \"#utility.yul\":8763:8767   */\n      0x00\n        /* \"#utility.yul\":8801:8803   */\n      0x20\n        /* \"#utility.yul\":8790:8799   */\n      dup3\n        /* \"#utility.yul\":8786:8804   */\n      add\n        /* \"#utility.yul\":8778:8804   */\n      swap1\n      pop\n        /* \"#utility.yul\":8850:8859   */\n      dup2\n        /* \"#utility.yul\":8844:8848   */\n      dup2\n        /* \"#utility.yul\":8840:8860   */\n      sub\n        /* \"#utility.yul\":8836:8837   */\n      0x00\n        /* \"#utility.yul\":8825:8834   */\n      dup4\n        /* \"#utility.yul\":8821:8838   */\n      add\n        /* \"#utility.yul\":8814:8861   */\n      mstore\n        /* \"#utility.yul\":8878:9009   */\n      tag_183\n        /* \"#utility.yul\":9004:9008   */\n      dup2\n        /* \"#utility.yul\":8878:9009   */\n      tag_99\n      jump\t// in\n    tag_183:\n        /* \"#utility.yul\":8870:9009   */\n      swap1\n      pop\n        /* \"#utility.yul\":8597:9016   */\n      swap2\n      swap1\n      pop\n      jump\t// out\n        /* \"#utility.yul\":9022:9452   */\n    tag_75:\n        /* \"#utility.yul\":9165:9169   */\n      0x00\n        /* \"#utility.yul\":9203:9205   */\n      0x60\n        /* \"#utility.yul\":9192:9201   */\n      dup3\n        /* \"#utility.yul\":9188:9206   */\n      add\n        /* \"#utility.yul\":9180:9206   */\n      swap1\n      pop\n        /* \"#utility.yul\":9216:9287   */\n      tag_185\n        /* \"#utility.yul\":9284:9285   */\n      0x00\n        /* \"#utility.yul\":9273:9282   */\n      dup4\n        /* \"#utility.yul\":9269:9286   */\n      add\n        /* \"#utility.yul\":9260:9266   */\n      dup7\n        /* \"#utility.yul\":9216:9287   */\n      tag_77\n      jump\t// in\n    tag_185:\n        /* \"#utility.yul\":9297:9363   */\n      tag_186\n        /* \"#utility.yul\":9359:9361   */\n      0x20\n        /* \"#utility.yul\":9348:9357   */\n      dup4\n        /* \"#utility.yul\":9344:9362   */\n      add\n        /* \"#utility.yul\":9335:9341   */\n      dup6\n        /* \"#utility.yul\":9297:9363   */\n      tag_87\n      jump\t// in\n    tag_186:\n        /* \"#utility.yul\":9373:9445   */\n      tag_187\n        /* \"#utility.yul\":9441:9443   */\n      0x40\n        /* \"#utility.yul\":9430:9439   */\n      dup4\n        /* \"#utility.yul\":9426:9444   */\n      add\n        /* \"#utility.yul\":9417:9423   */\n      dup5\n        /* \"#utility.yul\":9373:9445   */\n      tag_77\n      jump\t// in\n    tag_187:\n        /* \"#utility.yul\":9022:9452   */\n      swap5\n      swap4\n      pop\n      pop\n      pop\n      pop\n      jump\t// out\n\n    auxdata: 0xa26469706673582212206d861b84fbe5dea3c057c434abc30853829baf95c572acc9c617e5fd28fa128f64736f6c634300081a0033\n}\n",
				"bytecode": {
					"linkReferences": {},
					"object": "6080604052348015600e575f80fd5b50335f806101000a81548173ffffffffffffffffffffffffffffffffffffffff021916908373ffffffffffffffffffffffffffffffffffffffff160217905550610bfb8061005b5f395ff3fe60806040526004361061006f575f3560e01c80637e69e9121161004d5780637e69e912146100ef578063aa71b8331461012f578063e5c813ca14610139578063f851a440146101615761006f565b80630ed74b621461007357806312065fe01461009d5780632e1a7d4d146100c7575b5f80fd5b34801561007e575f80fd5b5061008761018b565b604051610094919061070d565b60405180910390f35b3480156100a8575f80fd5b506100b1610191565b6040516100be919061070d565b60405180910390f35b3480156100d2575f80fd5b506100ed60048036038101906100e89190610754565b610198565b005b3480156100fa575f80fd5b5061011560048036038101906101109190610754565b6102ce565b6040516101269594939291906107d8565b60405180910390f35b610137610338565b005b348015610144575f80fd5b5061015f600480360381019061015a9190610853565b6104e6565b005b34801561016c575f80fd5b506101756106d2565b6040516101829190610891565b60405180910390f35b60025481565b5f47905090565b5f8054906101000a900473ffffffffffffffffffffffffffffffffffffffff1673ffffffffffffffffffffffffffffffffffffffff163373ffffffffffffffffffffffffffffffffffffffff1614610225576040517f08c379a000000000000000000000000000000000000000000000000000000000815260040161021c9061092a565b60405180910390fd5b47811115610268576040517f08c379a000000000000000000000000000000000000000000000000000000000815260040161025f90610992565b60405180910390fd5b5f8054906101000a900473ffffffffffffffffffffffffffffffffffffffff1673ffffffffffffffffffffffffffffffffffffffff166108fc8290811502906040515f60405180830381858888f193505050501580156102ca573d5f803e3d5ffd5b5050565b6001602052805f5260405f205f91509050805f015f9054906101000a900473ffffffffffffffffffffffffffffffffffffffff1690806001015490806002015490806003015f9054906101000a900460ff16908060030160019054906101000a900460ff16905085565b5f341161037a576040517f08c379a000000000000000000000000000000000000000000000000000000000815260040161037190610a20565b60405180910390fd5b5f6014346103889190610a6b565b90506040518060a001604052803373ffffffffffffffffffffffffffffffffffffffff1681526020013481526020018281526020015f151581526020015f151581525060015f60025481526020019081526020015f205f820151815f015f6101000a81548173ffffffffffffffffffffffffffffffffffffffff021916908373ffffffffffffffffffffffffffffffffffffffff16021790555060208201518160010155604082015181600201556060820151816003015f6101000a81548160ff02191690831515021790555060808201518160030160016101000a81548160ff0219169083151502179055509050503373ffffffffffffffffffffffffffffffffffffffff167f66ceaee71e77238d682ad8da51475bcd63d696cc69fdfc6b02255bdda29d8ad460025434846040516104c493929190610aac565b60405180910390a260025f8154809291906104de90610ae1565b919050555050565b5f8054906101000a900473ffffffffffffffffffffffffffffffffffffffff1673ffffffffffffffffffffffffffffffffffffffff163373ffffffffffffffffffffffffffffffffffffffff1614610573576040517f08c379a000000000000000000000000000000000000000000000000000000000815260040161056a9061092a565b60405180910390fd5b5f60015f8481526020019081526020015f209050806003015f9054906101000a900460ff16156105d8576040517f08c379a00000000000000000000000000000000000000000000000000000000081526004016105cf90610b72565b60405180910390fd5b6001816003015f6101000a81548160ff021916908315150217905550818160030160016101000a81548160ff0219169083151502179055505f821561069157600282600201546106289190610a6b565b9050815f015f9054906101000a900473ffffffffffffffffffffffffffffffffffffffff1673ffffffffffffffffffffffffffffffffffffffff166108fc8290811502906040515f60405180830381858888f1935050505015801561068f573d5f803e3d5ffd5b505b7fc76efecf8313df5a9c7bac5447876eb7e252b0ee5ffa5ad8d32c78d7ea7cf3db8484836040516106c493929190610b90565b60405180910390a150505050565b5f8054906101000a900473ffffffffffffffffffffffffffffffffffffffff1681565b5f819050919050565b610707816106f5565b82525050565b5f6020820190506107205f8301846106fe565b92915050565b5f80fd5b610733816106f5565b811461073d575f80fd5b50565b5f8135905061074e8161072a565b92915050565b5f6020828403121561076957610768610726565b5b5f61077684828501610740565b91505092915050565b5f73ffffffffffffffffffffffffffffffffffffffff82169050919050565b5f6107a88261077f565b9050919050565b6107b88161079e565b82525050565b5f8115159050919050565b6107d2816107be565b82525050565b5f60a0820190506107eb5f8301886107af565b6107f860208301876106fe565b61080560408301866106fe565b61081260608301856107c9565b61081f60808301846107c9565b9695505050505050565b610832816107be565b811461083c575f80fd5b50565b5f8135905061084d81610829565b92915050565b5f806040838503121561086957610868610726565b5b5f61087685828601610740565b92505060206108878582860161083f565b9150509250929050565b5f6020820190506108a45f8301846107af565b92915050565b5f82825260208201905092915050565b7f4f6e6c792061646d696e2063616e2063616c6c20746869732066756e6374696f5f8201527f6e2e000000000000000000000000000000000000000000000000000000000000602082015250565b5f6109146022836108aa565b915061091f826108ba565b604082019050919050565b5f6020820190508181035f83015261094181610908565b9050919050565b7f496e73756666696369656e742062616c616e63652e00000000000000000000005f82015250565b5f61097c6015836108aa565b915061098782610948565b602082019050919050565b5f6020820190508181035f8301526109a981610970565b9050919050565b7f4275726e20616d6f756e74206d7573742062652067726561746572207468616e5f8201527f20302e0000000000000000000000000000000000000000000000000000000000602082015250565b5f610a0a6023836108aa565b9150610a15826109b0565b604082019050919050565b5f6020820190508181035f830152610a37816109fe565b9050919050565b7f4e487b71000000000000000000000000000000000000000000000000000000005f52601160045260245ffd5b5f610a75826106f5565b9150610a80836106f5565b9250828202610a8e816106f5565b91508282048414831517610aa557610aa4610a3e565b5b5092915050565b5f606082019050610abf5f8301866106fe565b610acc60208301856106fe565b610ad960408301846106fe565b949350505050565b5f610aeb826106f5565b91507fffffffffffffffffffffffffffffffffffffffffffffffffffffffffffffffff8203610b1d57610b1c610a3e565b5b600182019050919050565b7f436f6d706c61696e7420616c72656164792072657669657765642e00000000005f82015250565b5f610b5c601b836108aa565b9150610b6782610b28565b602082019050919050565b5f6020820190508181035f830152610b8981610b50565b9050919050565b5f606082019050610ba35f8301866106fe565b610bb060208301856107c9565b610bbd60408301846106fe565b94935050505056fea26469706673582212206d861b84fbe5dea3c057c434abc30853829baf95c572acc9c617e5fd28fa128f64736f6c634300081a0033",
					"opcodes": "PUSH1 0x80 PUSH1 0x40 MSTORE CALLVALUE DUP1 ISZERO PUSH1 0xE JUMPI PUSH0 DUP1 REVERT JUMPDEST POP CALLER PUSH0 DUP1 PUSH2 0x100 EXP DUP2 SLOAD DUP2 PUSH20 0xFFFFFFFFFFFFFFFFFFFFFFFFFFFFFFFFFFFFFFFF MUL NOT AND SWAP1 DUP4 PUSH20 0xFFFFFFFFFFFFFFFFFFFFFFFFFFFFFFFFFFFFFFFF AND MUL OR SWAP1 SSTORE POP PUSH2 0xBFB DUP1 PUSH2 0x5B PUSH0 CODECOPY PUSH0 RETURN INVALID PUSH1 0x80 PUSH1 0x40 MSTORE PUSH1 0x4 CALLDATASIZE LT PUSH2 0x6F JUMPI PUSH0 CALLDATALOAD PUSH1 0xE0 SHR DUP1 PUSH4 0x7E69E912 GT PUSH2 0x4D JUMPI DUP1 PUSH4 0x7E69E912 EQ PUSH2 0xEF JUMPI DUP1 PUSH4 0xAA71B833 EQ PUSH2 0x12F JUMPI DUP1 PUSH4 0xE5C813CA EQ PUSH2 0x139 JUMPI DUP1 PUSH4 0xF851A440 EQ PUSH2 0x161 JUMPI PUSH2 0x6F JUMP JUMPDEST DUP1 PUSH4 0xED74B62 EQ PUSH2 0x73 JUMPI DUP1 PUSH4 0x12065FE0 EQ PUSH2 0x9D JUMPI DUP1 PUSH4 0x2E1A7D4D EQ PUSH2 0xC7 JUMPI JUMPDEST PUSH0 DUP1 REVERT JUMPDEST CALLVALUE DUP1 ISZERO PUSH2 0x7E JUMPI PUSH0 DUP1 REVERT JUMPDEST POP PUSH2 0x87 PUSH2 0x18B JUMP JUMPDEST PUSH1 0x40 MLOAD PUSH2 0x94 SWAP2 SWAP1 PUSH2 0x70D JUMP JUMPDEST PUSH1 0x40 MLOAD DUP1 SWAP2 SUB SWAP1 RETURN JUMPDEST CALLVALUE DUP1 ISZERO PUSH2 0xA8 JUMPI PUSH0 DUP1 REVERT JUMPDEST POP PUSH2 0xB1 PUSH2 0x191 JUMP JUMPDEST PUSH1 0x40 MLOAD PUSH2 0xBE SWAP2 SWAP1 PUSH2 0x70D JUMP JUMPDEST PUSH1 0x40 MLOAD DUP1 SWAP2 SUB SWAP1 RETURN JUMPDEST CALLVALUE DUP1 ISZERO PUSH2 0xD2 JUMPI PUSH0 DUP1 REVERT JUMPDEST POP PUSH2 0xED PUSH1 0x4 DUP1 CALLDATASIZE SUB DUP2 ADD SWAP1 PUSH2 0xE8 SWAP2 SWAP1 PUSH2 0x754 JUMP JUMPDEST PUSH2 0x198 JUMP JUMPDEST STOP JUMPDEST CALLVALUE DUP1 ISZERO PUSH2 0xFA JUMPI PUSH0 DUP1 REVERT JUMPDEST POP PUSH2 0x115 PUSH1 0x4 DUP1 CALLDATASIZE SUB DUP2 ADD SWAP1 PUSH2 0x110 SWAP2 SWAP1 PUSH2 0x754 JUMP JUMPDEST PUSH2 0x2CE JUMP JUMPDEST PUSH1 0x40 MLOAD PUSH2 0x126 SWAP6 SWAP5 SWAP4 SWAP3 SWAP2 SWAP1 PUSH2 0x7D8 JUMP JUMPDEST PUSH1 0x40 MLOAD DUP1 SWAP2 SUB SWAP1 RETURN JUMPDEST PUSH2 0x137 PUSH2 0x338 JUMP JUMPDEST STOP JUMPDEST CALLVALUE DUP1 ISZERO PUSH2 0x144 JUMPI PUSH0 DUP1 REVERT JUMPDEST POP PUSH2 0x15F PUSH1 0x4 DUP1 CALLDATASIZE SUB DUP2 ADD SWAP1 PUSH2 0x15A SWAP2 SWAP1 PUSH2 0x853 JUMP JUMPDEST PUSH2 0x4E6 JUMP JUMPDEST STOP JUMPDEST CALLVALUE DUP1 ISZERO PUSH2 0x16C JUMPI PUSH0 DUP1 REVERT JUMPDEST POP PUSH2 0x175 PUSH2 0x6D2 JUMP JUMPDEST PUSH1 0x40 MLOAD PUSH2 0x182 SWAP2 SWAP1 PUSH2 0x891 JUMP JUMPDEST PUSH1 0x40 MLOAD DUP1 SWAP2 SUB SWAP1 RETURN JUMPDEST PUSH1 0x2 SLOAD DUP2 JUMP JUMPDEST PUSH0 SELFBALANCE SWAP1 POP SWAP1 JUMP JUMPDEST PUSH0 DUP1 SLOAD SWAP1 PUSH2 0x100 EXP SWAP1 DIV PUSH20 0xFFFFFFFFFFFFFFFFFFFFFFFFFFFFFFFFFFFFFFFF AND PUSH20 0xFFFFFFFFFFFFFFFFFFFFFFFFFFFFFFFFFFFFFFFF AND CALLER PUSH20 0xFFFFFFFFFFFFFFFFFFFFFFFFFFFFFFFFFFFFFFFF AND EQ PUSH2 0x225 JUMPI PUSH1 0x40 MLOAD PUSH32 0x8C379A000000000000000000000000000000000000000000000000000000000 DUP2 MSTORE PUSH1 0x4 ADD PUSH2 0x21C SWAP1 PUSH2 0x92A JUMP JUMPDEST PUSH1 0x40 MLOAD DUP1 SWAP2 SUB SWAP1 REVERT JUMPDEST SELFBALANCE DUP2 GT ISZERO PUSH2 0x268 JUMPI PUSH1 0x40 MLOAD PUSH32 0x8C379A000000000000000000000000000000000000000000000000000000000 DUP2 MSTORE PUSH1 0x4 ADD PUSH2 0x25F SWAP1 PUSH2 0x992 JUMP JUMPDEST PUSH1 0x40 MLOAD DUP1 SWAP2 SUB SWAP1 REVERT JUMPDEST PUSH0 DUP1 SLOAD SWAP1 PUSH2 0x100 EXP SWAP1 DIV PUSH20 0xFFFFFFFFFFFFFFFFFFFFFFFFFFFFFFFFFFFFFFFF AND PUSH20 0xFFFFFFFFFFFFFFFFFFFFFFFFFFFFFFFFFFFFFFFF AND PUSH2 0x8FC DUP3 SWAP1 DUP2 ISZERO MUL SWAP1 PUSH1 0x40 MLOAD PUSH0 PUSH1 0x40 MLOAD DUP1 DUP4 SUB DUP2 DUP6 DUP9 DUP9 CALL SWAP4 POP POP POP POP ISZERO DUP1 ISZERO PUSH2 0x2CA JUMPI RETURNDATASIZE PUSH0 DUP1 RETURNDATACOPY RETURNDATASIZE PUSH0 REVERT JUMPDEST POP POP JUMP JUMPDEST PUSH1 0x1 PUSH1 0x20 MSTORE DUP1 PUSH0 MSTORE PUSH1 0x40 PUSH0 KECCAK256 PUSH0 SWAP2 POP SWAP1 POP DUP1 PUSH0 ADD PUSH0 SWAP1 SLOAD SWAP1 PUSH2 0x100 EXP SWAP1 DIV PUSH20 0xFFFFFFFFFFFFFFFFFFFFFFFFFFFFFFFFFFFFFFFF AND SWAP1 DUP1 PUSH1 0x1 ADD SLOAD SWAP1 DUP1 PUSH1 0x2 ADD SLOAD SWAP1 DUP1 PUSH1 0x3 ADD PUSH0 SWAP1 SLOAD SWAP1 PUSH2 0x100 EXP SWAP1 DIV PUSH1 0xFF AND SWAP1 DUP1 PUSH1 0x3 ADD PUSH1 0x1 SWAP1 SLOAD SWAP1 PUSH2 0x100 EXP SWAP1 DIV PUSH1 0xFF AND SWAP1 POP DUP6 JUMP JUMPDEST PUSH0 CALLVALUE GT PUSH2 0x37A JUMPI PUSH1 0x40 MLOAD PUSH32 0x8C379A000000000000000000000000000000000000000000000000000000000 DUP2 MSTORE PUSH1 0x4 ADD PUSH2 0x371 SWAP1 PUSH2 0xA20 JUMP JUMPDEST PUSH1 0x40 MLOAD DUP1 SWAP2 SUB SWAP1 REVERT JUMPDEST PUSH0 PUSH1 0x14 CALLVALUE PUSH2 0x388 SWAP2 SWAP1 PUSH2 0xA6B JUMP JUMPDEST SWAP1 POP PUSH1 0x40 MLOAD DUP1 PUSH1 0xA0 ADD PUSH1 0x40 MSTORE DUP1 CALLER PUSH20 0xFFFFFFFFFFFFFFFFFFFFFFFFFFFFFFFFFFFFFFFF AND DUP2 MSTORE PUSH1 0x20 ADD CALLVALUE DUP2 MSTORE PUSH1 0x20 ADD DUP3 DUP2 MSTORE PUSH1 0x20 ADD PUSH0 ISZERO ISZERO DUP2 MSTORE PUSH1 0x20 ADD PUSH0 ISZERO ISZERO DUP2 MSTORE POP PUSH1 0x1 PUSH0 PUSH1 0x2 SLOAD DUP2 MSTORE PUSH1 0x20 ADD SWAP1 DUP2 MSTORE PUSH1 0x20 ADD PUSH0 KECCAK256 PUSH0 DUP3 ADD MLOAD DUP2 PUSH0 ADD PUSH0 PUSH2 0x100 EXP DUP2 SLOAD DUP2 PUSH20 0xFFFFFFFFFFFFFFFFFFFFFFFFFFFFFFFFFFFFFFFF MUL NOT AND SWAP1 DUP4 PUSH20 0xFFFFFFFFFFFFFFFFFFFFFFFFFFFFFFFFFFFFFFFF AND MUL OR SWAP1 SSTORE POP PUSH1 0x20 DUP3 ADD MLOAD DUP2 PUSH1 0x1 ADD SSTORE PUSH1 0x40 DUP3 ADD MLOAD DUP2 PUSH1 0x2 ADD SSTORE PUSH1 0x60 DUP3 ADD MLOAD DUP2 PUSH1 0x3 ADD PUSH0 PUSH2 0x100 EXP DUP2 SLOAD DUP2 PUSH1 0xFF MUL NOT AND SWAP1 DUP4 ISZERO ISZERO MUL OR SWAP1 SSTORE POP PUSH1 0x80 DUP3 ADD MLOAD DUP2 PUSH1 0x3 ADD PUSH1 0x1 PUSH2 0x100 EXP DUP2 SLOAD DUP2 PUSH1 0xFF MUL NOT AND SWAP1 DUP4 ISZERO ISZERO MUL OR SWAP1 SSTORE POP SWAP1 POP POP CALLER PUSH20 0xFFFFFFFFFFFFFFFFFFFFFFFFFFFFFFFFFFFFFFFF AND PUSH32 0x66CEAEE71E77238D682AD8DA51475BCD63D696CC69FDFC6B02255BDDA29D8AD4 PUSH1 0x2 SLOAD CALLVALUE DUP5 PUSH1 0x40 MLOAD PUSH2 0x4C4 SWAP4 SWAP3 SWAP2 SWAP1 PUSH2 0xAAC JUMP JUMPDEST PUSH1 0x40 MLOAD DUP1 SWAP2 SUB SWAP1 LOG2 PUSH1 0x2 PUSH0 DUP2 SLOAD DUP1 SWAP3 SWAP2 SWAP1 PUSH2 0x4DE SWAP1 PUSH2 0xAE1 JUMP JUMPDEST SWAP2 SWAP1 POP SSTORE POP POP JUMP JUMPDEST PUSH0 DUP1 SLOAD SWAP1 PUSH2 0x100 EXP SWAP1 DIV PUSH20 0xFFFFFFFFFFFFFFFFFFFFFFFFFFFFFFFFFFFFFFFF AND PUSH20 0xFFFFFFFFFFFFFFFFFFFFFFFFFFFFFFFFFFFFFFFF AND CALLER PUSH20 0xFFFFFFFFFFFFFFFFFFFFFFFFFFFFFFFFFFFFFFFF AND EQ PUSH2 0x573 JUMPI PUSH1 0x40 MLOAD PUSH32 0x8C379A000000000000000000000000000000000000000000000000000000000 DUP2 MSTORE PUSH1 0x4 ADD PUSH2 0x56A SWAP1 PUSH2 0x92A JUMP JUMPDEST PUSH1 0x40 MLOAD DUP1 SWAP2 SUB SWAP1 REVERT JUMPDEST PUSH0 PUSH1 0x1 PUSH0 DUP5 DUP2 MSTORE PUSH1 0x20 ADD SWAP1 DUP2 MSTORE PUSH1 0x20 ADD PUSH0 KECCAK256 SWAP1 POP DUP1 PUSH1 0x3 ADD PUSH0 SWAP1 SLOAD SWAP1 PUSH2 0x100 EXP SWAP1 DIV PUSH1 0xFF AND ISZERO PUSH2 0x5D8 JUMPI PUSH1 0x40 MLOAD PUSH32 0x8C379A000000000000000000000000000000000000000000000000000000000 DUP2 MSTORE PUSH1 0x4 ADD PUSH2 0x5CF SWAP1 PUSH2 0xB72 JUMP JUMPDEST PUSH1 0x40 MLOAD DUP1 SWAP2 SUB SWAP1 REVERT JUMPDEST PUSH1 0x1 DUP2 PUSH1 0x3 ADD PUSH0 PUSH2 0x100 EXP DUP2 SLOAD DUP2 PUSH1 0xFF MUL NOT AND SWAP1 DUP4 ISZERO ISZERO MUL OR SWAP1 SSTORE POP DUP2 DUP2 PUSH1 0x3 ADD PUSH1 0x1 PUSH2 0x100 EXP DUP2 SLOAD DUP2 PUSH1 0xFF MUL NOT AND SWAP1 DUP4 ISZERO ISZERO MUL OR SWAP1 SSTORE POP PUSH0 DUP3 ISZERO PUSH2 0x691 JUMPI PUSH1 0x2 DUP3 PUSH1 0x2 ADD SLOAD PUSH2 0x628 SWAP2 SWAP1 PUSH2 0xA6B JUMP JUMPDEST SWAP1 POP DUP2 PUSH0 ADD PUSH0 SWAP1 SLOAD SWAP1 PUSH2 0x100 EXP SWAP1 DIV PUSH20 0xFFFFFFFFFFFFFFFFFFFFFFFFFFFFFFFFFFFFFFFF AND PUSH20 0xFFFFFFFFFFFFFFFFFFFFFFFFFFFFFFFFFFFFFFFF AND PUSH2 0x8FC DUP3 SWAP1 DUP2 ISZERO MUL SWAP1 PUSH1 0x40 MLOAD PUSH0 PUSH1 0x40 MLOAD DUP1 DUP4 SUB DUP2 DUP6 DUP9 DUP9 CALL SWAP4 POP POP POP POP ISZERO DUP1 ISZERO PUSH2 0x68F JUMPI RETURNDATASIZE PUSH0 DUP1 RETURNDATACOPY RETURNDATASIZE PUSH0 REVERT JUMPDEST POP JUMPDEST PUSH32 0xC76EFECF8313DF5A9C7BAC5447876EB7E252B0EE5FFA5AD8D32C78D7EA7CF3DB DUP5 DUP5 DUP4 PUSH1 0x40 MLOAD PUSH2 0x6C4 SWAP4 SWAP3 SWAP2 SWAP1 PUSH2 0xB90 JUMP JUMPDEST PUSH1 0x40 MLOAD DUP1 SWAP2 SUB SWAP1 LOG1 POP POP POP POP JUMP JUMPDEST PUSH0 DUP1 SLOAD SWAP1 PUSH2 0x100 EXP SWAP1 DIV PUSH20 0xFFFFFFFFFFFFFFFFFFFFFFFFFFFFFFFFFFFFFFFF AND DUP2 JUMP JUMPDEST PUSH0 DUP2 SWAP1 POP SWAP2 SWAP1 POP JUMP JUMPDEST PUSH2 0x707 DUP2 PUSH2 0x6F5 JUMP JUMPDEST DUP3 MSTORE POP POP JUMP JUMPDEST PUSH0 PUSH1 0x20 DUP3 ADD SWAP1 POP PUSH2 0x720 PUSH0 DUP4 ADD DUP5 PUSH2 0x6FE JUMP JUMPDEST SWAP3 SWAP2 POP POP JUMP JUMPDEST PUSH0 DUP1 REVERT JUMPDEST PUSH2 0x733 DUP2 PUSH2 0x6F5 JUMP JUMPDEST DUP2 EQ PUSH2 0x73D JUMPI PUSH0 DUP1 REVERT JUMPDEST POP JUMP JUMPDEST PUSH0 DUP2 CALLDATALOAD SWAP1 POP PUSH2 0x74E DUP2 PUSH2 0x72A JUMP JUMPDEST SWAP3 SWAP2 POP POP JUMP JUMPDEST PUSH0 PUSH1 0x20 DUP3 DUP5 SUB SLT ISZERO PUSH2 0x769 JUMPI PUSH2 0x768 PUSH2 0x726 JUMP JUMPDEST JUMPDEST PUSH0 PUSH2 0x776 DUP5 DUP3 DUP6 ADD PUSH2 0x740 JUMP JUMPDEST SWAP2 POP POP SWAP3 SWAP2 POP POP JUMP JUMPDEST PUSH0 PUSH20 0xFFFFFFFFFFFFFFFFFFFFFFFFFFFFFFFFFFFFFFFF DUP3 AND SWAP1 POP SWAP2 SWAP1 POP JUMP JUMPDEST PUSH0 PUSH2 0x7A8 DUP3 PUSH2 0x77F JUMP JUMPDEST SWAP1 POP SWAP2 SWAP1 POP JUMP JUMPDEST PUSH2 0x7B8 DUP2 PUSH2 0x79E JUMP JUMPDEST DUP3 MSTORE POP POP JUMP JUMPDEST PUSH0 DUP2 ISZERO ISZERO SWAP1 POP SWAP2 SWAP1 POP JUMP JUMPDEST PUSH2 0x7D2 DUP2 PUSH2 0x7BE JUMP JUMPDEST DUP3 MSTORE POP POP JUMP JUMPDEST PUSH0 PUSH1 0xA0 DUP3 ADD SWAP1 POP PUSH2 0x7EB PUSH0 DUP4 ADD DUP9 PUSH2 0x7AF JUMP JUMPDEST PUSH2 0x7F8 PUSH1 0x20 DUP4 ADD DUP8 PUSH2 0x6FE JUMP JUMPDEST PUSH2 0x805 PUSH1 0x40 DUP4 ADD DUP7 PUSH2 0x6FE JUMP JUMPDEST PUSH2 0x812 PUSH1 0x60 DUP4 ADD DUP6 PUSH2 0x7C9 JUMP JUMPDEST PUSH2 0x81F PUSH1 0x80 DUP4 ADD DUP5 PUSH2 0x7C9 JUMP JUMPDEST SWAP7 SWAP6 POP POP POP POP POP POP JUMP JUMPDEST PUSH2 0x832 DUP2 PUSH2 0x7BE JUMP JUMPDEST DUP2 EQ PUSH2 0x83C JUMPI PUSH0 DUP1 REVERT JUMPDEST POP JUMP JUMPDEST PUSH0 DUP2 CALLDATALOAD SWAP1 POP PUSH2 0x84D DUP2 PUSH2 0x829 JUMP JUMPDEST SWAP3 SWAP2 POP POP JUMP JUMPDEST PUSH0 DUP1 PUSH1 0x40 DUP4 DUP6 SUB SLT ISZERO PUSH2 0x869 JUMPI PUSH2 0x868 PUSH2 0x726 JUMP JUMPDEST JUMPDEST PUSH0 PUSH2 0x876 DUP6 DUP3 DUP7 ADD PUSH2 0x740 JUMP JUMPDEST SWAP3 POP POP PUSH1 0x20 PUSH2 0x887 DUP6 DUP3 DUP7 ADD PUSH2 0x83F JUMP JUMPDEST SWAP2 POP POP SWAP3 POP SWAP3 SWAP1 POP JUMP JUMPDEST PUSH0 PUSH1 0x20 DUP3 ADD SWAP1 POP PUSH2 0x8A4 PUSH0 DUP4 ADD DUP5 PUSH2 0x7AF JUMP JUMPDEST SWAP3 SWAP2 POP POP JUMP JUMPDEST PUSH0 DUP3 DUP3 MSTORE PUSH1 0x20 DUP3 ADD SWAP1 POP SWAP3 SWAP2 POP POP JUMP JUMPDEST PUSH32 0x4F6E6C792061646D696E2063616E2063616C6C20746869732066756E6374696F PUSH0 DUP3 ADD MSTORE PUSH32 0x6E2E000000000000000000000000000000000000000000000000000000000000 PUSH1 0x20 DUP3 ADD MSTORE POP JUMP JUMPDEST PUSH0 PUSH2 0x914 PUSH1 0x22 DUP4 PUSH2 0x8AA JUMP JUMPDEST SWAP2 POP PUSH2 0x91F DUP3 PUSH2 0x8BA JUMP JUMPDEST PUSH1 0x40 DUP3 ADD SWAP1 POP SWAP2 SWAP1 POP JUMP JUMPDEST PUSH0 PUSH1 0x20 DUP3 ADD SWAP1 POP DUP2 DUP2 SUB PUSH0 DUP4 ADD MSTORE PUSH2 0x941 DUP2 PUSH2 0x908 JUMP JUMPDEST SWAP1 POP SWAP2 SWAP1 POP JUMP JUMPDEST PUSH32 0x496E73756666696369656E742062616C616E63652E0000000000000000000000 PUSH0 DUP3 ADD MSTORE POP JUMP JUMPDEST PUSH0 PUSH2 0x97C PUSH1 0x15 DUP4 PUSH2 0x8AA JUMP JUMPDEST SWAP2 POP PUSH2 0x987 DUP3 PUSH2 0x948 JUMP JUMPDEST PUSH1 0x20 DUP3 ADD SWAP1 POP SWAP2 SWAP1 POP JUMP JUMPDEST PUSH0 PUSH1 0x20 DUP3 ADD SWAP1 POP DUP2 DUP2 SUB PUSH0 DUP4 ADD MSTORE PUSH2 0x9A9 DUP2 PUSH2 0x970 JUMP JUMPDEST SWAP1 POP SWAP2 SWAP1 POP JUMP JUMPDEST PUSH32 0x4275726E20616D6F756E74206D7573742062652067726561746572207468616E PUSH0 DUP3 ADD MSTORE PUSH32 0x20302E0000000000000000000000000000000000000000000000000000000000 PUSH1 0x20 DUP3 ADD MSTORE POP JUMP JUMPDEST PUSH0 PUSH2 0xA0A PUSH1 0x23 DUP4 PUSH2 0x8AA JUMP JUMPDEST SWAP2 POP PUSH2 0xA15 DUP3 PUSH2 0x9B0 JUMP JUMPDEST PUSH1 0x40 DUP3 ADD SWAP1 POP SWAP2 SWAP1 POP JUMP JUMPDEST PUSH0 PUSH1 0x20 DUP3 ADD SWAP1 POP DUP2 DUP2 SUB PUSH0 DUP4 ADD MSTORE PUSH2 0xA37 DUP2 PUSH2 0x9FE JUMP JUMPDEST SWAP1 POP SWAP2 SWAP1 POP JUMP JUMPDEST PUSH32 0x4E487B7100000000000000000000000000000000000000000000000000000000 PUSH0 MSTORE PUSH1 0x11 PUSH1 0x4 MSTORE PUSH1 0x24 PUSH0 REVERT JUMPDEST PUSH0 PUSH2 0xA75 DUP3 PUSH2 0x6F5 JUMP JUMPDEST SWAP2 POP PUSH2 0xA80 DUP4 PUSH2 0x6F5 JUMP JUMPDEST SWAP3 POP DUP3 DUP3 MUL PUSH2 0xA8E DUP2 PUSH2 0x6F5 JUMP JUMPDEST SWAP2 POP DUP3 DUP3 DIV DUP5 EQ DUP4 ISZERO OR PUSH2 0xAA5 JUMPI PUSH2 0xAA4 PUSH2 0xA3E JUMP JUMPDEST JUMPDEST POP SWAP3 SWAP2 POP POP JUMP JUMPDEST PUSH0 PUSH1 0x60 DUP3 ADD SWAP1 POP PUSH2 0xABF PUSH0 DUP4 ADD DUP7 PUSH2 0x6FE JUMP JUMPDEST PUSH2 0xACC PUSH1 0x20 DUP4 ADD DUP6 PUSH2 0x6FE JUMP JUMPDEST PUSH2 0xAD9 PUSH1 0x40 DUP4 ADD DUP5 PUSH2 0x6FE JUMP JUMPDEST SWAP5 SWAP4 POP POP POP POP JUMP JUMPDEST PUSH0 PUSH2 0xAEB DUP3 PUSH2 0x6F5 JUMP JUMPDEST SWAP2 POP PUSH32 0xFFFFFFFFFFFFFFFFFFFFFFFFFFFFFFFFFFFFFFFFFFFFFFFFFFFFFFFFFFFFFFFF DUP3 SUB PUSH2 0xB1D JUMPI PUSH2 0xB1C PUSH2 0xA3E JUMP JUMPDEST JUMPDEST PUSH1 0x1 DUP3 ADD SWAP1 POP SWAP2 SWAP1 POP JUMP JUMPDEST PUSH32 0x436F6D706C61696E7420616C72656164792072657669657765642E0000000000 PUSH0 DUP3 ADD MSTORE POP JUMP JUMPDEST PUSH0 PUSH2 0xB5C PUSH1 0x1B DUP4 PUSH2 0x8AA JUMP JUMPDEST SWAP2 POP PUSH2 0xB67 DUP3 PUSH2 0xB28 JUMP JUMPDEST PUSH1 0x20 DUP3 ADD SWAP1 POP SWAP2 SWAP1 POP JUMP JUMPDEST PUSH0 PUSH1 0x20 DUP3 ADD SWAP1 POP DUP2 DUP2 SUB PUSH0 DUP4 ADD MSTORE PUSH2 0xB89 DUP2 PUSH2 0xB50 JUMP JUMPDEST SWAP1 POP SWAP2 SWAP1 POP JUMP JUMPDEST PUSH0 PUSH1 0x60 DUP3 ADD SWAP1 POP PUSH2 0xBA3 PUSH0 DUP4 ADD DUP7 PUSH2 0x6FE JUMP JUMPDEST PUSH2 0xBB0 PUSH1 0x20 DUP4 ADD DUP6 PUSH2 0x7C9 JUMP JUMPDEST PUSH2 0xBBD PUSH1 0x40 DUP4 ADD DUP5 PUSH2 0x6FE JUMP JUMPDEST SWAP5 SWAP4 POP POP POP POP JUMP INVALID LOG2 PUSH5 0x6970667358 0x22 SLT KECCAK256 PUSH14 0x861B84FBE5DEA3C057C434ABC308 MSTORE8 DUP3 SWAP12 0xAF SWAP6 0xC5 PUSH19 0xACC9C617E5FD28FA128F64736F6C634300081A STOP CALLER "
				},
				"gasEstimates": {
					"creation": {
						"codeDepositCost": "613400",
						"executionCost": "24908",
						"totalCost": "638308"
					},
					"external": {
						"admin()": "2571",
						"complaintCounter()": "2426",
						"complaints(uint256)": "infinite",
						"fileComplaint()": "infinite",
						"getBalance()": "357",
						"reviewComplaint(uint256,bool)": "infinite",
						"withdraw(uint256)": "infinite"
					}
				},
				"methodIdentifiers": {
					"admin()": "f851a440",
					"complaintCounter()": "0ed74b62",
					"complaints(uint256)": "7e69e912",
					"fileComplaint()": "aa71b833",
					"getBalance()": "12065fe0",
					"reviewComplaint(uint256,bool)": "e5c813ca",
					"withdraw(uint256)": "2e1a7d4d"
				}
			},
			"storageLayout": {
				"storage": [
					{
						"astId": 14,
						"contract": "contracts/rrr.sol:MedicalPoB",
						"label": "admin",
						"offset": 0,
						"slot": "0",
						"type": "t_address"
					},
					{
						"astId": 19,
						"contract": "contracts/rrr.sol:MedicalPoB",
						"label": "complaints",
						"offset": 0,
						"slot": "1",
						"type": "t_mapping(t_uint256,t_struct(Complaint)12_storage)"
					},
					{
						"astId": 21,
						"contract": "contracts/rrr.sol:MedicalPoB",
						"label": "complaintCounter",
						"offset": 0,
						"slot": "2",
						"type": "t_uint256"
					}
				],
				"types": {
					"t_address": {
						"encoding": "inplace",
						"label": "address",
						"numberOfBytes": "20"
					},
					"t_bool": {
						"encoding": "inplace",
						"label": "bool",
						"numberOfBytes": "1"
					},
					"t_mapping(t_uint256,t_struct(Complaint)12_storage)": {
						"encoding": "mapping",
						"key": "t_uint256",
						"label": "mapping(uint256 => struct MedicalPoB.Complaint)",
						"numberOfBytes": "32",
						"value": "t_struct(Complaint)12_storage"
					},
					"t_struct(Complaint)12_storage": {
						"encoding": "inplace",
						"label": "struct MedicalPoB.Complaint",
						"members": [
							{
								"astId": 3,
								"contract": "contracts/rrr.sol:MedicalPoB",
								"label": "patient",
								"offset": 0,
								"slot": "0",
								"type": "t_address"
							},
							{
								"astId": 5,
								"contract": "contracts/rrr.sol:MedicalPoB",
								"label": "burnAmount",
								"offset": 0,
								"slot": "1",
								"type": "t_uint256"
							},
							{
								"astId": 7,
								"contract": "contracts/rrr.sol:MedicalPoB",
								"label": "tokenAmount",
								"offset": 0,
								"slot": "2",
								"type": "t_uint256"
							},
							{
								"astId": 9,
								"contract": "contracts/rrr.sol:MedicalPoB",
								"label": "reviewed",
								"offset": 0,
								"slot": "3",
								"type": "t_bool"
							},
							{
								"astId": 11,
								"contract": "contracts/rrr.sol:MedicalPoB",
								"label": "isGuilty",
								"offset": 1,
								"slot": "3",
								"type": "t_bool"
							}
						],
						"numberOfBytes": "128"
					},
					"t_uint256": {
						"encoding": "inplace",
						"label": "uint256",
						"numberOfBytes": "32"
					}
				}
			},
			"userdoc": {
				"kind": "user",
				"methods": {},
				"version": 1
			}
		}
	}
}